{
  "contractName": "Forum",
  "abi": [
    {
      "inputs": [
        {
          "internalType": "uint256",
          "name": "_initialAmount",
          "type": "uint256"
        },
        {
          "internalType": "string",
          "name": "_tokenName",
          "type": "string"
        },
        {
          "internalType": "uint8",
          "name": "_decimalUnits",
          "type": "uint8"
        },
        {
          "internalType": "string",
          "name": "_tokenSymbol",
          "type": "string"
        }
      ],
      "payable": false,
      "stateMutability": "nonpayable",
      "type": "constructor"
    },
    {
      "anonymous": false,
      "inputs": [
        {
          "indexed": false,
          "internalType": "address",
          "name": "_userAddress",
          "type": "address"
        },
        {
          "indexed": false,
          "internalType": "string",
          "name": "_userName",
          "type": "string"
        },
        {
          "indexed": false,
          "internalType": "uint256",
          "name": "_karma",
          "type": "uint256"
        }
      ],
      "name": "AddUserToForum",
      "type": "event"
    },
    {
      "anonymous": false,
      "inputs": [
        {
          "indexed": true,
          "internalType": "address",
          "name": "_owner",
          "type": "address"
        },
        {
          "indexed": true,
          "internalType": "address",
          "name": "_spender",
          "type": "address"
        },
        {
          "indexed": false,
          "internalType": "uint256",
          "name": "_value",
          "type": "uint256"
        }
      ],
      "name": "Approval",
      "type": "event"
    },
    {
      "anonymous": false,
      "inputs": [
        {
          "indexed": false,
          "internalType": "uint256",
          "name": "_cor",
          "type": "uint256"
        },
        {
          "indexed": false,
          "internalType": "uint256",
          "name": "_karma",
          "type": "uint256"
        },
        {
          "indexed": false,
          "internalType": "address",
          "name": "_from",
          "type": "address"
        },
        {
          "indexed": false,
          "internalType": "address",
          "name": "_to",
          "type": "address"
        }
      ],
      "name": "CashOut",
      "type": "event"
    },
    {
      "anonymous": false,
      "inputs": [
        {
          "indexed": false,
          "internalType": "bool",
          "name": "_success",
          "type": "bool"
        },
        {
          "indexed": false,
          "internalType": "address",
          "name": "_forumAddress",
          "type": "address"
        },
        {
          "indexed": false,
          "internalType": "string",
          "name": "_forumName",
          "type": "string"
        },
        {
          "indexed": false,
          "internalType": "uint256",
          "name": "_fid",
          "type": "uint256"
        }
      ],
      "name": "CreateForum",
      "type": "event"
    },
    {
      "anonymous": false,
      "inputs": [
        {
          "indexed": false,
          "internalType": "address",
          "name": "_forum",
          "type": "address"
        },
        {
          "indexed": false,
          "internalType": "uint256",
          "name": "_cor",
          "type": "uint256"
        }
      ],
      "name": "SetCashOutPrice",
      "type": "event"
    },
    {
      "anonymous": false,
      "inputs": [
        {
          "indexed": false,
          "internalType": "address",
          "name": "_forum",
          "type": "address"
        },
        {
          "indexed": false,
          "internalType": "address",
          "name": "_userAddress",
          "type": "address"
        },
        {
          "indexed": false,
          "internalType": "uint256",
          "name": "_karma",
          "type": "uint256"
        }
      ],
      "name": "SetKarma",
      "type": "event"
    },
    {
      "anonymous": false,
      "inputs": [
        {
          "indexed": true,
          "internalType": "address",
          "name": "_from",
          "type": "address"
        },
        {
          "indexed": true,
          "internalType": "address",
          "name": "_to",
          "type": "address"
        },
        {
          "indexed": false,
          "internalType": "uint256",
          "name": "_value",
          "type": "uint256"
        }
      ],
      "name": "Transfer",
      "type": "event"
    },
    {
      "constant": true,
      "inputs": [
        {
          "internalType": "address",
          "name": "",
          "type": "address"
        },
        {
          "internalType": "address",
          "name": "",
          "type": "address"
        }
      ],
      "name": "allowed",
      "outputs": [
        {
          "internalType": "uint256",
          "name": "",
          "type": "uint256"
        }
      ],
      "payable": false,
      "stateMutability": "view",
      "type": "function"
    },
    {
      "constant": true,
      "inputs": [
        {
          "internalType": "address",
          "name": "",
          "type": "address"
        }
      ],
      "name": "balances",
      "outputs": [
        {
          "internalType": "uint256",
          "name": "",
          "type": "uint256"
        }
      ],
      "payable": false,
      "stateMutability": "view",
      "type": "function"
    },
    {
      "constant": true,
      "inputs": [],
      "name": "decimals",
      "outputs": [
        {
          "internalType": "uint8",
          "name": "",
          "type": "uint8"
        }
      ],
      "payable": false,
      "stateMutability": "view",
      "type": "function"
    },
    {
      "constant": true,
      "inputs": [],
      "name": "name",
      "outputs": [
        {
          "internalType": "string",
          "name": "",
          "type": "string"
        }
      ],
      "payable": false,
      "stateMutability": "view",
      "type": "function"
    },
    {
      "constant": true,
      "inputs": [],
      "name": "symbol",
      "outputs": [
        {
          "internalType": "string",
          "name": "",
          "type": "string"
        }
      ],
      "payable": false,
      "stateMutability": "view",
      "type": "function"
    },
    {
      "constant": true,
      "inputs": [],
      "name": "totalSupply",
      "outputs": [
        {
          "internalType": "uint256",
          "name": "",
          "type": "uint256"
        }
      ],
      "payable": false,
      "stateMutability": "view",
      "type": "function"
    },
    {
      "constant": false,
      "inputs": [
        {
          "internalType": "address",
          "name": "_to",
          "type": "address"
        },
        {
          "internalType": "uint256",
          "name": "_value",
          "type": "uint256"
        }
      ],
      "name": "transfer",
      "outputs": [
        {
          "internalType": "bool",
          "name": "success",
          "type": "bool"
        }
      ],
      "payable": false,
      "stateMutability": "nonpayable",
      "type": "function"
    },
    {
      "constant": false,
      "inputs": [
        {
          "internalType": "address",
          "name": "_from",
          "type": "address"
        },
        {
          "internalType": "address",
          "name": "_to",
          "type": "address"
        },
        {
          "internalType": "uint256",
          "name": "_value",
          "type": "uint256"
        }
      ],
      "name": "transferFrom",
      "outputs": [
        {
          "internalType": "bool",
          "name": "success",
          "type": "bool"
        }
      ],
      "payable": false,
      "stateMutability": "nonpayable",
      "type": "function"
    },
    {
      "constant": true,
      "inputs": [
        {
          "internalType": "address",
          "name": "_owner",
          "type": "address"
        }
      ],
      "name": "balanceOf",
      "outputs": [
        {
          "internalType": "uint256",
          "name": "balance",
          "type": "uint256"
        }
      ],
      "payable": false,
      "stateMutability": "view",
      "type": "function"
    },
    {
      "constant": false,
      "inputs": [
        {
          "internalType": "address",
          "name": "_spender",
          "type": "address"
        },
        {
          "internalType": "uint256",
          "name": "_value",
          "type": "uint256"
        }
      ],
      "name": "approve",
      "outputs": [
        {
          "internalType": "bool",
          "name": "success",
          "type": "bool"
        }
      ],
      "payable": false,
      "stateMutability": "nonpayable",
      "type": "function"
    },
    {
      "constant": true,
      "inputs": [
        {
          "internalType": "address",
          "name": "_owner",
          "type": "address"
        },
        {
          "internalType": "address",
          "name": "_spender",
          "type": "address"
        }
      ],
      "name": "allowance",
      "outputs": [
        {
          "internalType": "uint256",
          "name": "remaining",
          "type": "uint256"
        }
      ],
      "payable": false,
      "stateMutability": "view",
      "type": "function"
    },
    {
      "constant": false,
      "inputs": [
        {
          "internalType": "string",
          "name": "_fname",
          "type": "string"
        }
      ],
      "name": "createForum",
      "outputs": [
        {
          "internalType": "bool",
          "name": "success",
          "type": "bool"
        }
      ],
      "payable": false,
      "stateMutability": "nonpayable",
      "type": "function"
    },
    {
      "constant": true,
      "inputs": [],
      "name": "getForumCount",
      "outputs": [
        {
          "internalType": "uint256",
          "name": "id",
          "type": "uint256"
        }
      ],
      "payable": false,
      "stateMutability": "view",
      "type": "function"
    },
    {
      "constant": true,
      "inputs": [
        {
          "internalType": "uint256",
          "name": "_fid",
          "type": "uint256"
        }
      ],
      "name": "getForumDataByFid",
      "outputs": [
        {
          "internalType": "address",
          "name": "forumOwner",
          "type": "address"
        },
        {
          "internalType": "string",
          "name": "forumName",
          "type": "string"
        },
        {
          "internalType": "uint256",
          "name": "fid",
          "type": "uint256"
        },
        {
          "internalType": "uint256",
          "name": "cor",
          "type": "uint256"
        }
      ],
      "payable": false,
      "stateMutability": "view",
      "type": "function"
    },
    {
      "constant": true,
      "inputs": [
        {
          "internalType": "address",
          "name": "_owner",
          "type": "address"
        }
      ],
      "name": "getForumDataByAddress",
      "outputs": [
        {
          "internalType": "address",
          "name": "forumOwner",
          "type": "address"
        },
        {
          "internalType": "string",
          "name": "forumName",
          "type": "string"
        },
        {
          "internalType": "uint256",
          "name": "fid",
          "type": "uint256"
        },
        {
          "internalType": "uint256",
          "name": "cor",
          "type": "uint256"
        }
      ],
      "payable": false,
      "stateMutability": "view",
      "type": "function"
    },
    {
      "constant": true,
      "inputs": [],
      "name": "getCurrentMCO",
      "outputs": [
        {
          "internalType": "uint256",
          "name": "max",
          "type": "uint256"
        }
      ],
      "payable": false,
      "stateMutability": "view",
      "type": "function"
    },
    {
      "constant": false,
      "inputs": [
        {
          "internalType": "address",
          "name": "_userAddress",
          "type": "address"
        },
        {
          "internalType": "string",
          "name": "_userName",
          "type": "string"
        },
        {
          "internalType": "uint256",
          "name": "_karma",
          "type": "uint256"
        }
      ],
      "name": "addUserToForum",
      "outputs": [
        {
          "internalType": "bool",
          "name": "success",
          "type": "bool"
        }
      ],
      "payable": false,
      "stateMutability": "nonpayable",
      "type": "function"
    },
    {
      "constant": false,
      "inputs": [
        {
          "internalType": "uint256",
          "name": "_karma",
          "type": "uint256"
        },
        {
          "internalType": "address",
          "name": "_userAddress",
          "type": "address"
        }
      ],
      "name": "setKarma",
      "outputs": [
        {
          "internalType": "bool",
          "name": "success",
          "type": "bool"
        }
      ],
      "payable": false,
      "stateMutability": "nonpayable",
      "type": "function"
    },
    {
      "constant": true,
      "inputs": [
        {
          "internalType": "address",
          "name": "_userAddress",
          "type": "address"
        }
      ],
      "name": "getUserByAddress",
      "outputs": [
        {
          "internalType": "address",
          "name": "usrAddress",
          "type": "address"
        },
        {
          "internalType": "string",
          "name": "usrName",
          "type": "string"
        },
        {
          "internalType": "uint256",
          "name": "usrKarma",
          "type": "uint256"
        }
      ],
      "payable": false,
      "stateMutability": "view",
      "type": "function"
    },
    {
      "constant": true,
      "inputs": [
        {
          "internalType": "uint256",
          "name": "_ucount",
          "type": "uint256"
        }
      ],
      "name": "getUserByIndex",
      "outputs": [
        {
          "internalType": "address",
          "name": "usrAddress",
          "type": "address"
        },
        {
          "internalType": "string",
          "name": "usrName",
          "type": "string"
        },
        {
          "internalType": "uint256",
          "name": "usrKarma",
          "type": "uint256"
        }
      ],
      "payable": false,
      "stateMutability": "view",
      "type": "function"
    },
    {
      "constant": true,
      "inputs": [],
      "name": "getUserCount",
      "outputs": [
        {
          "internalType": "uint256",
          "name": "ucount",
          "type": "uint256"
        }
      ],
      "payable": false,
      "stateMutability": "view",
      "type": "function"
    },
    {
      "constant": true,
      "inputs": [
        {
          "internalType": "address",
          "name": "_admin",
          "type": "address"
        }
      ],
      "name": "getMyInfoByAddress",
      "outputs": [
        {
          "internalType": "address",
          "name": "fAddress",
          "type": "address"
        },
        {
          "internalType": "address",
          "name": "myAddress",
          "type": "address"
        },
        {
          "internalType": "string",
          "name": "myUserName",
          "type": "string"
        },
        {
          "internalType": "uint256",
          "name": "myKarma",
          "type": "uint256"
        }
      ],
      "payable": false,
      "stateMutability": "view",
      "type": "function"
    },
    {
      "constant": true,
      "inputs": [
        {
          "internalType": "uint256",
          "name": "_fid",
          "type": "uint256"
        }
      ],
      "name": "getMyInfoByFid",
      "outputs": [
        {
          "internalType": "uint256",
          "name": "fID",
          "type": "uint256"
        },
        {
          "internalType": "address",
          "name": "myAddress",
          "type": "address"
        },
        {
          "internalType": "string",
          "name": "myUserName",
          "type": "string"
        },
        {
          "internalType": "uint256",
          "name": "myKarma",
          "type": "uint256"
        }
      ],
      "payable": false,
      "stateMutability": "view",
      "type": "function"
    },
    {
      "constant": true,
      "inputs": [
        {
          "internalType": "uint256",
          "name": "_fid",
          "type": "uint256"
        }
      ],
      "name": "getMemberStatus",
      "outputs": [
        {
          "internalType": "uint256",
          "name": "fID",
          "type": "uint256"
        },
        {
          "internalType": "bool",
          "name": "success",
          "type": "bool"
        }
      ],
      "payable": false,
      "stateMutability": "view",
      "type": "function"
    },
    {
      "constant": true,
      "inputs": [
        {
          "internalType": "address",
          "name": "_forum",
          "type": "address"
        }
      ],
      "name": "accForumKarma",
      "outputs": [
        {
          "internalType": "uint256",
          "name": "",
          "type": "uint256"
        }
      ],
      "payable": false,
      "stateMutability": "view",
      "type": "function"
    },
    {
      "constant": false,
      "inputs": [
        {
          "internalType": "uint256",
          "name": "p",
          "type": "uint256"
        }
      ],
      "name": "setCashOutPrice",
      "outputs": [
        {
          "internalType": "uint256",
          "name": "fcor",
          "type": "uint256"
        }
      ],
      "payable": false,
      "stateMutability": "nonpayable",
      "type": "function"
    },
    {
      "constant": true,
      "inputs": [
        {
          "internalType": "address",
          "name": "_forum",
          "type": "address"
        }
      ],
      "name": "getCashOutPrice",
      "outputs": [
        {
          "internalType": "uint256",
          "name": "fcor",
          "type": "uint256"
        }
      ],
      "payable": false,
      "stateMutability": "view",
      "type": "function"
    },
    {
      "constant": false,
      "inputs": [
        {
          "internalType": "address",
          "name": "_forum",
          "type": "address"
        }
      ],
      "name": "cashOut",
      "outputs": [
        {
          "internalType": "bool",
          "name": "_succ",
          "type": "bool"
        }
      ],
      "payable": false,
      "stateMutability": "nonpayable",
      "type": "function"
    }
  ],
  "bytecode": "0x60806040523480156200001157600080fd5b50604051620025f1380380620025f1833981810160405260808110156200003757600080fd5b8151602083018051604051929492938301929190846401000000008211156200005f57600080fd5b9083019060208201858111156200007557600080fd5b82516401000000008111828201881017156200009057600080fd5b82525081516020918201929091019080838360005b83811015620000bf578181015183820152602001620000a5565b50505050905090810190601f168015620000ed5780820380516001836020036101000a031916815260200191505b506040818152602083015192018051929491939192846401000000008211156200011657600080fd5b9083019060208201858111156200012c57600080fd5b82516401000000008111828201881017156200014757600080fd5b82525081516020918201929091019080838360005b83811015620001765781810151838201526020016200015c565b50505050905090810190601f168015620001a45780820380516001836020036101000a031916815260200191505b506040908152336000908152600160209081529181208990558890558651620001d794506003935090870191506200020d565b506004805460ff191660ff84161790558051620001fc9060059060208401906200020d565b5050600160085550620002b2915050565b828054600181600116156101000203166002900490600052602060002090601f016020900481019282601f106200025057805160ff191683800117855562000280565b8280016001018555821562000280579182015b828111156200028057825182559160200191906001019062000263565b506200028e92915062000292565b5090565b620002af91905b808211156200028e576000815560010162000299565b90565b61232f80620002c26000396000f3fe608060405234801561001057600080fd5b50600436106101c45760003560e01c80637d0d719b116100f9578063bcb1a32511610097578063d8a7136411610071578063d8a713641461087b578063dd62ed3e146108a1578063edcf4aca146108cf578063ff5d32fe146108d7576101c4565b8063bcb1a32514610780578063c44782c8146107a6578063d341cad11461085e576101c4565b80639c2ebaaa116100d35780639c2ebaaa14610680578063a232e64b146106a6578063a9059cbb1461074c578063b5cb15f714610778576101c4565b80637d0d719b1461063a57806383d3f6b71461067057806395d89b4114610678576101c4565b806327e235e3116101665780635c658165116101405780635c6581651461049a57806369c212f6146104c857806370a082311461057c57806370e87c30146105a2576101c4565b806327e235e31461042a578063313ce5671461045057806342382b821461046e576101c4565b806318160ddd116101a257806318160ddd146103425780631d654eea1461035c5780631f2061e41461037957806323b872dd146103f4576101c4565b806306fdde03146101c9578063095ea7b3146102465780630d5c846b14610286575b600080fd5b6101d16108f4565b6040805160208082528351818301528351919283929083019185019080838360005b8381101561020b5781810151838201526020016101f3565b50505050905090810190601f1680156102385780820380516001836020036101000a031916815260200191505b509250505060405180910390f35b6102726004803603604081101561025c57600080fd5b506001600160a01b038135169060200135610982565b604080519115158252519081900360200190f35b6102a36004803603602081101561029c57600080fd5b50356109e8565b60405180858152602001846001600160a01b03166001600160a01b0316815260200180602001838152602001828103825284818151815260200191508051906020019080838360005b838110156103045781810151838201526020016102ec565b50505050905090810190601f1680156103315780820380516001836020036101000a031916815260200191505b509550505050505060405180910390f35b61034a610b64565b60408051918252519081900360200190f35b61034a6004803603602081101561037257600080fd5b5035610b6a565b61039f6004803603602081101561038f57600080fd5b50356001600160a01b0316610c2a565b604080516001600160a01b03861681529081018390526060810182905260806020808301828152865192840192909252855160a0840191870190808383600083156103045781810151838201526020016102ec565b6102726004803603606081101561040a57600080fd5b506001600160a01b03813581169160208101359091169060400135610d80565b61034a6004803603602081101561044057600080fd5b50356001600160a01b0316610e82565b610458610e94565b6040805160ff9092168252519081900360200190f35b6102726004803603604081101561048457600080fd5b50803590602001356001600160a01b0316610e9d565b61034a600480360360408110156104b057600080fd5b506001600160a01b0381358116916020013516611040565b6104ee600480360360208110156104de57600080fd5b50356001600160a01b031661105d565b604080516001600160a01b0385168152908101829052606060208083018281528551928401929092528451608084019186019080838360005b8381101561053f578181015183820152602001610527565b50505050905090810190601f16801561056c5780820380516001836020036101000a031916815260200191505b5094505050505060405180910390f35b61034a6004803603602081101561059257600080fd5b50356001600160a01b031661122c565b6105c8600480360360208110156105b857600080fd5b50356001600160a01b0316611247565b60405180856001600160a01b03166001600160a01b03168152602001846001600160a01b03166001600160a01b031681526020018060200183815260200182810382528481815181526020019150805190602001908083836000838110156103045781810151838201526020016102ec565b6106576004803603602081101561065057600080fd5b50356113b5565b6040805192835290151560208301528051918290030190f35b61034a6113ee565b6101d16113f9565b61034a6004803603602081101561069657600080fd5b50356001600160a01b0316611454565b610272600480360360208110156106bc57600080fd5b8101906020810181356401000000008111156106d757600080fd5b8201836020820111156106e957600080fd5b8035906020019184600183028401116401000000008311171561070b57600080fd5b91908080601f016020809104026020016040519081016040528093929190818152602001838380828437600092019190915250929550611472945050505050565b6102726004803603604081101561076257600080fd5b506001600160a01b038135169060200135611722565b61034a6117ac565b61034a6004803603602081101561079657600080fd5b50356001600160a01b03166117c2565b610272600480360360608110156107bc57600080fd5b6001600160a01b0382351691908101906040810160208201356401000000008111156107e757600080fd5b8201836020820111156107f957600080fd5b8035906020019184600183028401116401000000008311171561081b57600080fd5b91908080601f016020809104026020016040519081016040528093929190818152602001838380828437600092019190915250929550509135925061182b915050565b61039f6004803603602081101561087457600080fd5b5035611ae9565b6102726004803603602081101561089157600080fd5b50356001600160a01b0316611c48565b61034a600480360360408110156108b757600080fd5b506001600160a01b0381358116916020013516611f14565b61034a611f3f565b6104ee600480360360208110156108ed57600080fd5b5035611f67565b6003805460408051602060026001851615610100026000190190941693909304601f8101849004840282018401909252818152929183018282801561097a5780601f1061094f5761010080835404028352916020019161097a565b820191906000526020600020905b81548152906001019060200180831161095d57829003601f168201915b505050505081565b3360008181526002602090815260408083206001600160a01b038716808552908352818420869055815186815291519394909390927f8c5be1e5ebec7d5bd14f71427d1e84f3dd0314c0f7b2291e5b200ac8c7c3b925928290030190a350600192915050565b6000818152600760208181526040808420546001600160a01b031680855260068352818520338652909301909152822054829160609183919060ff1680610a605760405162461bcd60e51b81526004018080602001828103825260238152602001806122616023913960400191505060405180910390fd5b6001600160a01b03821660009081526006602081815260408084203385529283018252808420548085526005909301825292839020600190810180548551600293821615610100026000190190911692909204601f810184900484028301840190955284825292936060939192830182828015610b1e5780601f10610af357610100808354040283529160200191610b1e565b820191906000526020600020905b815481529060010190602001808311610b0157829003601f168201915b505050506001600160a01b039590951660009081526006602090815260408083209583526005909501905292909220600201549899339992985091965090945050505050565b60005481565b600080610b76336117c2565b9050610b813361122c565b8382021115610bc15760405162461bcd60e51b815260040180806020018281038252602f8152602001806122ab602f913960400191505060405180910390fd5b336000818152600660209081526040918290206004018690558151928352820185905280517f1e3a664cad8d6510ba3a8d27e2d38dae9ac0d77c6c9c413c8a05e5f667bf1f1b9281900390910190a1505033600090815260066020526040902060040154919050565b3360009081526009602052604081205460609082908190610c8a576040805162461bcd60e51b81526020600482015260156024820152742337b93ab6903237b2b9903737ba1032bc34b9ba1760591b604482015290519081900360640190fd5b606060066000876001600160a01b03166001600160a01b031681526020019081526020016000206001018054600181600116156101000203166002900480601f016020809104026020016040519081016040528092919081815260200182805460018160011615610100020316600290048015610d485780601f10610d1d57610100808354040283529160200191610d48565b820191906000526020600020905b815481529060010190602001808311610d2b57829003601f168201915b505050506001600160a01b03881660009081526006602052604090206002810154600490910154989992989097509550909350505050565b6001600160a01b038316600081815260026020908152604080832033845282528083205493835260019091528120549091908311801590610dc15750828110155b610dca57600080fd5b6001600160a01b0380851660009081526001602052604080822080548701905591871681522080548490039055600019811015610e2c576001600160a01b03851660009081526002602090815260408083203384529091529020805484900390555b836001600160a01b0316856001600160a01b03167fddf252ad1be2c89b69c2b068fc378daa952ba7f163c4a11628f55a4df523b3ef856040518082815260200191505060405180910390a3506001949350505050565b60016020526000908152604090205481565b60045460ff1681565b336000908152600660205260408120546001600160a01b0316610ef15760405162461bcd60e51b81526004018080602001828103825260218152602001806122da6021913960400191505060405180910390fd5b3360009081526006602090815260408083206001600160a01b038616845260070190915290205460ff16610f565760405162461bcd60e51b81526004018080602001828103825260278152602001806122846027913960400191505060405180910390fd5b610f5f3361122c565b336000908152600660205260409020600401548402610f7c611f3f565b011115610fba5760405162461bcd60e51b81526004018080602001828103825260498152602001806121ce6049913960600191505060405180910390fd5b3360008181526006602081815260408084206001600160a01b03881680865293810183528185205480865260059091018352938190206002018890558051948552908401919091528281018690525190917f6e72efde20f4f95dd9fe67aff423f49f00e54450d57a924a4e34d9b4389347fa919081900360600190a15060019392505050565b600260209081526000928352604080842090915290825290205481565b3360009081526006602052604081205460609082906001600160a01b03166110b65760405162461bcd60e51b81526004018080602001828103825260218152602001806122da6021913960400191505060405180910390fd5b3360009081526006602090815260408083206001600160a01b038816845260070190915290205460ff1661112d576040805162461bcd60e51b81526020600482015260196024820152782a3434b9903ab9b2b9103237b2b9903737ba1032bc34b9ba1760391b604482015290519081900360640190fd5b3360009081526006602081815260408084206001600160a01b03898116865293810183528185205480865260059091018352938190208054600191820180548451600261010095831615959095026000190190911693909304601f8101869004860284018601909452838352941693606093919290918301828280156111f45780601f106111c9576101008083540402835291602001916111f4565b820191906000526020600020905b8154815290600101906020018083116111d757829003601f168201915b5050336000908152600660209081526040808320998352600590990190529690962060020154949a9299509397509095505050505050565b6001600160a01b031660009081526001602052604090205490565b6001600160a01b03811660009081526006602090815260408083203384526007019091528120548190606090829060ff16806112b45760405162461bcd60e51b81526004018080602001828103825260238152602001806122616023913960400191505060405180910390fd5b6001600160a01b03861660009081526006602081815260408084203385529283018252808420548085526005909301825292839020600190810180548551600293821615610100026000190190911692909204601f8101849004840283018401909552848252929360609391928301828280156113725780601f1061134757610100808354040283529160200191611372565b820191906000526020600020905b81548152906001019060200180831161135557829003601f168201915b505050506001600160a01b038a16600090815260066020908152604080832096835260059096019052939093206002015498993399919850909650945050505050565b6000818152600760208181526040808420546001600160a01b03168452600682528084203385529092019052902054819060ff16915091565b600854600019015b90565b6005805460408051602060026001851615610100026000190190941693909304601f8101849004840282018401909252818152929183018282801561097a5780601f1061094f5761010080835404028352916020019161097a565b6001600160a01b031660009081526006602052604090206004015490565b336000908152600660209081526040808320600201546009909252822054811580159061149e57508082145b156114f0576040805162461bcd60e51b815260206004820152601860248201527f596f7520616c7265616479206f776e206120666f72756d2e0000000000000000604482015290519081900360640190fd5b6040805160a08101825233808252602080830188815260085484860152600060608501819052608085018190529283526006825293909120825181546001600160a01b0319166001600160a01b039091161781559251805192939261155b9260018501920190612135565b506040828101516002830155606080840151600384015560809093015160049092019190915580519182018152338083526020808401888152600085850181905292835260068252838320838052600501825292909120835181546001600160a01b0319166001600160a01b03909116178155915180516115e29260018501920190612135565b506040918201516002918201553360008181526006602081815285832060078082018352878520805460ff1916600190811790915582850184528886208690556003830180548201905560088054600986528a8820819055875291845288862080546001600160a01b03191688179055815481019091558585529282529094015485518281528086018590526060810182905260809681018781528b51978201979097528a517fdd3369ddaf79b75cbff0e47a0b1d006f335ca8c86536c9ea26f7eb749f9df3fd9793968c959394929360a085019291870191908190849084905b838110156116db5781810151838201526020016116c3565b50505050905090810190601f1680156117085780820380516001836020036101000a031916815260200191505b509550505050505060405180910390a15060019392505050565b3360009081526001602052604081205482111561173e57600080fd5b336000818152600160209081526040808320805487900390556001600160a01b03871680845292819020805487019055805186815290519293927fddf252ad1be2c89b69c2b068fc378daa952ba7f163c4a11628f55a4df523b3ef929181900390910190a350600192915050565b3360009081526006602052604090206003015490565b6001600160a01b03811660009081526006602052604081206003015460010181805b82811015611823576001600160a01b038516600090815260066020908152604080832084845260050190915290206002015491909101906001016117e4565b509392505050565b3360008181526006602052604081205490916001600160a01b03909116146118845760405162461bcd60e51b81526004018080602001828103825260218152602001806122da6021913960400191505060405180910390fd5b3360009081526006602090815260408083206001600160a01b038816845260070190915290205460ff161515600114156118fc576040805162461bcd60e51b81526020600482015260146024820152732ab9b2b91030b63932b0b23c9032bc34b9ba399760611b604482015290519081900360640190fd5b6119053361122c565b336000908152600660205260409020600401548302611922611f3f565b0111156119605760405162461bcd60e51b81526004018080602001828103825260498152602001806121ce6049913960600191505060405180910390fd5b336000908152600660209081526040808320600381015482516060810184526001600160a01b038a811682528186018a81528286018a90528388526005909401865293909520855181546001600160a01b0319169416939093178355905180519194936119d592600185019290910190612135565b5060409182015160029190910155336000818152600660208181528483206001600160a01b038b16808552600782018352868520805460ff19166001908117909155828501845287862089905595855292825260030180549094019093558351908152928301869052606083830181815288519185019190915287517f9563ebf2e8cd8c6e801c3578d24b5ae1daf34409894f28aa09590bcf6b5ba551948a948a948a94929360808501928701918190849084905b83811015611aa2578181015183820152602001611a8a565b50505050905090810190601f168015611acf5780820380516001836020036101000a031916815260200191505b5094505050505060405180910390a1506001949350505050565b600081815260076020526040812054606090829081906001600160a01b031680611b52576040805162461bcd60e51b81526020600482015260156024820152742337b93ab6903237b2b9903737ba1032bc34b9ba1760591b604482015290519081900360640190fd5b606060066000836001600160a01b03166001600160a01b031681526020019081526020016000206001018054600181600116156101000203166002900480601f016020809104026020016040519081016040528092919081815260200182805460018160011615610100020316600290048015611c105780601f10611be557610100808354040283529160200191611c10565b820191906000526020600020905b815481529060010190602001808311611bf357829003601f168201915b505050506001600160a01b03841660009081526006602052604090206002810154600490910154949a92995097509295509350505050565b6001600160a01b038116600090815260066020526040812060020154611cac576040805162461bcd60e51b8152602060048201526014602482015273119bdc9d5b48191bd95cc81b9bdd08195e1a5cdd60621b604482015290519081900360640190fd5b6001600160a01b038216600090815260066020526040902060040154611d19576040805162461bcd60e51b815260206004820152601b60248201527f436173682d6f757420707269636520697320302073636f6e65732e0000000000604482015290519081900360640190fd5b6001600160a01b038216600090815260066020908152604080832033845260070190915290205460ff16611d7e5760405162461bcd60e51b81526004018080602001828103825260238152602001806122616023913960400191505060405180910390fd5b6001600160a01b038216600090815260066020818152604080842033855292830182528084205480855260059093019091529091206002015480611e09576040805162461bcd60e51b815260206004820152601b60248201527f596f75206e656564206b61726d6120746f2063617368206f75742e0000000000604482015290519081900360640190fd5b6001600160a01b0384166000908152600660209081526040808320600401546001909252909120548282021115611e715760405162461bcd60e51b815260040180806020018281038252604a815260200180612217604a913960600191505060405180910390fd5b6001600160a01b038516600081815260016020908152604080832080548787029081900390915533808552828520805490920190915584845260068352818420888552600501835281842060020193909355805185815291820186905281810193909352606081019190915290517f99c66bf0ade74aea49d0ce673e7ec0d12f3cfd12c82f046de9fce19b4058c85c9181900360800190a1506001949350505050565b6001600160a01b03918216600090815260026020908152604080832093909416825291909152205490565b336000818152600660205260408120600401549091829190611f60906117c2565b0291505090565b3360009081526006602052604081205460609082906001600160a01b0316611fd6576040805162461bcd60e51b815260206004820181905260248201527f596f75206e65656420746f20637265617465206120666f72756d206669727374604482015290519081900360640190fd5b3360009081526006602090815260408083208784526005019091529020546001600160a01b031661204a576040805162461bcd60e51b81526020600482015260196024820152782a3434b9903ab9b2b9103237b2b9903737ba1032bc34b9ba1760391b604482015290519081900360640190fd5b3360009081526006602090815260408083208784526005018252918290208054600191820180548551600261010095831615959095026000190190911693909304601f81018590048502840185019095528483526001600160a01b03909116936060938301828280156120fe5780601f106120d3576101008083540402835291602001916120fe565b820191906000526020600020905b8154815290600101906020018083116120e157829003601f168201915b50503360009081526006602090815260408083208d8452600501909152902060020154959850929650939450505050509193909250565b828054600181600116156101000203166002900490600052602060002090601f016020900481019282601f1061217657805160ff19168380011785556121a3565b828001600101855582156121a3579182015b828111156121a3578251825591602001919060010190612188565b506121af9291506121b3565b5090565b6113f691905b808211156121af57600081556001016121b956fe5573657220697320676976656e20746f6f206d756368206b61726d612e20596f75722062616c616365206d69676874206e6f742062652061626c6520746f2068616e646c652069742e596f752063616e206e6f742063617368206f75742073696e636520666f72756d20646f6573206e6f7420686176652073756666696369656e7420616d6f756e74206f662073636f6e6573596f7520617265206e6f742061206d656d62657220696e207468697320666f72756d2e54686973207573657220646f6573206e6f7420657869737420696e20796f757220666f72756d2e546f20686967682e20417175697265206d6f72652073636f6e6573206f72207472792061206c6f77657220434f522e596f75206e65656420746f20637265617465206120666f72756d2066697273742ea265627a7a72315820c25f8e15841ff144a8ee9c6779467b84c192b819f515eeff2a535db3123508be64736f6c63430005100032",
  "source": "/*\nImplements EIP20 token standard: https://github.com/ethereum/EIPs/blob/master/EIPS/eip-20.md\n.*/\n\n\npragma solidity ^0.5.0;\n\nimport \"./EIP20Interface.sol\";\n\n\ncontract Forum is EIP20Interface {\n    // The coin\n    uint256 constant private MAX_UINT256 = 2**256 - 1;\n    mapping (address => uint256) public balances;\n    mapping (address => mapping (address => uint256)) public allowed;\n\n    string public name;\n    uint8 public decimals;\n    string public symbol;\n\n    // Forum\n    mapping (address => forumData) private forums;    // An address can hold a forum\n    mapping (uint => address) private fidOwner;       // A forumID (fid) is mapped to an owner of a forum with this fid.\n    uint256 private forumId;                          // Increments when a new forum is created\n    mapping (address => uint256) addressForumId;\n\n    struct forumData{\n      address owner;\n      string forumName;\n      uint256 fid;\n      uint256 userCount;\n      uint256 cor;\n      mapping(uint256 => userData) users;\n      mapping(address => uint256) userKey; //Equal to next userCount.\n      mapping(address => bool) userExists;\n    }\n\n    struct userData{\n      address userAddress;\n      string userName;\n      uint256 karma;\n      }\n\n    constructor (\n        uint256 _initialAmount,\n        string memory _tokenName,\n        uint8 _decimalUnits,\n        string memory _tokenSymbol\n    ) public {\n        balances[msg.sender] = _initialAmount;\n        totalSupply = _initialAmount;\n        name = _tokenName;\n        decimals = _decimalUnits;\n        symbol = _tokenSymbol;\n        forumId = 1;\n    }\n\n    // Coin functions...\n    function transfer(address _to, uint256 _value) public returns (bool success) {\n        require(balances[msg.sender] >= _value);\n        balances[msg.sender] -= _value;\n        balances[_to] += _value;\n        emit Transfer(msg.sender, _to, _value); //solhint-disable-line indent, no-unused-vars\n        return true;\n    }\n\n    function transferFrom(address _from, address _to, uint256 _value) public returns (bool success) {\n        uint256 allowance = allowed[_from][msg.sender];\n        require(balances[_from] >= _value && allowance >= _value);\n        balances[_to] += _value;\n        balances[_from] -= _value;\n        if (allowance < MAX_UINT256) {\n            allowed[_from][msg.sender] -= _value;\n        }\n        emit Transfer(_from, _to, _value); //solhint-disable-line indent, no-unused-vars\n        return true;\n    }\n\n    function balanceOf(address _owner) public view returns (uint256 balance) {\n        return balances[_owner];\n    }\n\n    function approve(address _spender, uint256 _value) public returns (bool success) {\n        allowed[msg.sender][_spender] = _value;\n        emit Approval(msg.sender, _spender, _value); //solhint-disable-line indent, no-unused-vars\n        return true;\n    }\n\n    function allowance(address _owner, address _spender) public view returns (uint256 remaining) {\n        return allowed[_owner][_spender];\n    }\n    // .. end of coin functions\n\n\n\n    // Forum functions...\n\n    function createForum(string memory _fname) public returns (bool success){\n      uint256 a = forums[msg.sender].fid;\n      uint256 b = addressForumId[msg.sender];\n      if((a != 0) && (a == b)){\n        revert(\"You already own a forum.\");\n      }\n      forums[msg.sender] = forumData(msg.sender, _fname, forumId, 0, 0);\n      forums[msg.sender].users[0] = userData(msg.sender, _fname, 0);\n      forums[msg.sender].userExists[msg.sender] = true;\n      forums[msg.sender].userKey[msg.sender] = 0;\n      forums[msg.sender].userCount ++;\n      addressForumId[msg.sender] = forumId;\n      fidOwner[forumId] = msg.sender;\n      forumId = forumId + 1;\n      emit CreateForum(true, msg.sender, _fname, forums[msg.sender].fid);\n      return (true);\n    }\n    function getForumCount() public view returns (uint256 id){\n      return (forumId-1);\n    }\n\n    function getForumDataByFid(uint256 _fid) public view returns (address forumOwner, string memory forumName, uint256 fid, uint256 cor){\n      address owner = fidOwner[_fid];\n      if(owner == address(0x0))\n        revert(\"Forum does not exist.\");\n      string memory fName = forums[owner].forumName;\n      uint256 id = forums[owner].fid;\n      uint256 fcor = forums[owner].cor;\n      return(owner, fName, id, fcor);\n    }\n\n    function getForumDataByAddress(address _owner) public view returns (address forumOwner, string memory forumName, uint256 fid, uint256 cor){\n      if(addressForumId[msg.sender] == 0){\n        revert(\"Forum does not exist.\");\n      }\n      string memory fName = forums[_owner].forumName;\n      uint256 id = forums[_owner].fid;\n      uint256 fcor = forums[_owner].cor;\n      return(_owner, fName, id, fcor);\n    }\n    //Max cash out, that is if all users were to cash out.\n    function getCurrentMCO() public view returns (uint256 max){\n      uint256 res = accForumKarma(msg.sender) * forums[msg.sender].cor;\n      return res;\n    }\n\n    function addUserToForum(address _userAddress, string memory _userName, uint256 _karma) public returns (bool success){\n      if(forums[msg.sender].owner != msg.sender){\n        revert(\"You need to create a forum first.\");\n      }\n      if(forums[msg.sender].userExists[_userAddress] == true){\n        revert(\"User already exists.\");\n      }\n      if(( getCurrentMCO() + ( forums[msg.sender].cor * _karma)) > balanceOf(msg.sender))\n        revert(\"User is given too much karma. Your balace might not be able to handle it.\"); //t\n\n        uint256 newUserCount = forums[msg.sender].userCount;\n        forums[msg.sender].users[newUserCount] = userData(_userAddress, _userName, _karma);\n        forums[msg.sender].userExists[_userAddress] = true;\n        forums[msg.sender].userKey[_userAddress] = newUserCount;\n        forums[msg.sender].userCount++;\n        emit AddUserToForum(_userAddress, _userName, _karma);\n        return (true);\n    }\n\n    function setKarma(uint256 _karma, address _userAddress) public returns (bool success){\n      if(forums[msg.sender].owner == address(0x0)){\n        revert(\"You need to create a forum first.\"); //t\n      }\n      if(!forums[msg.sender].userExists[_userAddress]){\n        revert(\"This user does not exist in your forum.\"); //t\n      }\n      if(( getCurrentMCO() + ( forums[msg.sender].cor * _karma)) > balanceOf(msg.sender))\n        revert(\"User is given too much karma. Your balace might not be able to handle it.\"); //t\n\n      uint256 ukey = forums[msg.sender].userKey[_userAddress];\n      forums[msg.sender].users[ukey].karma = _karma;\n      emit SetKarma(msg.sender, _userAddress, _karma);\n      return true;\n    }\n\n    function getUserByAddress(address _userAddress) public view returns (address usrAddress, string memory usrName, uint256 usrKarma) {\n        if(forums[msg.sender].owner == address(0x0)){\n          revert(\"You need to create a forum first.\");\n        }\n        if(!forums[msg.sender].userExists[_userAddress]){\n          revert(\"This user does not exist.\");\n        }\n        uint256 uKey = forums[msg.sender].userKey[_userAddress];\n        address uaddress = forums[msg.sender].users[uKey].userAddress;\n        string memory uname = forums[msg.sender].users[uKey].userName;\n        uint256 ukarma = forums[msg.sender].users[uKey].karma;\n        return (uaddress, uname, ukarma);\n    }\n\n    function getUserByIndex(uint256 _ucount) public view returns (address usrAddress, string memory usrName, uint256 usrKarma){\n      if(forums[msg.sender].owner == address(0x0)){\n        revert(\"You need to create a forum first\");\n      }\n\n      if(forums[msg.sender].users[_ucount].userAddress == address(0x0)){\n        revert(\"This user does not exist.\");\n      }\n      address uaddress = forums[msg.sender].users[_ucount].userAddress;\n      string memory uname = forums[msg.sender].users[_ucount].userName;\n      uint256 ukarma = forums[msg.sender].users[_ucount].karma;\n      return (uaddress, uname, ukarma);\n      }\n\n    function getUserCount() public view returns (uint256 ucount){\n      return forums[msg.sender].userCount;\n    }\n\n    function getMyInfoByAddress(address _admin) public view returns (address fAddress, address myAddress, string memory myUserName, uint256 myKarma) {\n      bool exists = forums[_admin].userExists[msg.sender];\n      if(!exists)\n        revert(\"You are not a member in this forum.\");\n      uint256 key = forums[_admin].userKey[msg.sender];\n      string memory uname = forums[_admin].users[key].userName;\n      uint256 karma = forums[_admin].users[key].karma;\n//      uint256 fid = forums[_admin].fid;\n//      uint256 cor = forums[_admin].cor;\n    //  string memory fname = forums[_admin].forumName;\n      return (_admin, msg.sender, uname, karma);\n    }\n\n    function getMyInfoByFid(uint256 _fid) public view returns (uint256 fID, address myAddress, string memory myUserName, uint256 myKarma) {\n      address admin = fidOwner[_fid];\n      bool exists = forums[admin].userExists[msg.sender];\n      if(!exists)\n        revert(\"You are not a member in this forum.\");\n      uint256 key = forums[admin].userKey[msg.sender];\n      string memory uname = forums[admin].users[key].userName;\n      uint256 karma = forums[admin].users[key].karma;\n    //  uint256 fid = forums[admin].fid;\n    //  uint256 cor = forums[admin].cor;\n    //  string memory fname = forums[admin].forumName;\n      return (_fid, msg.sender, uname, karma);\n    }\n\n    function getMemberStatus(uint256 _fid) public view returns (uint256 fID, bool success){\n      address admin = fidOwner[_fid];\n      return (_fid, forums[admin].userExists[msg.sender]);\n    }\n\n    function accForumKarma(address _forum) public view returns (uint256) {\n      uint256 numUsers = forums[_forum].userCount +1;\n      uint256 accKarma = 0;\n      for(uint256 i = 0; i<numUsers; i++){\n        accKarma += forums[_forum].users[i].karma;\n      }\n      return accKarma;\n    }\n\n    function setCashOutPrice(uint256 p) public returns (uint256 fcor){\n      uint256 accKarma = accForumKarma(msg.sender);\n      if(accKarma * p > balanceOf(msg.sender))\n        revert(\"To high. Aquire more scones or try a lower COR.\");\n      forums[msg.sender].cor = p;\n      emit SetCashOutPrice(msg.sender, forums[msg.sender].cor);\n      return forums[msg.sender].cor;\n    }\n\n    function getCashOutPrice(address _forum) public view returns (uint256 fcor){\n      return forums[_forum].cor;\n    }\n\n    function cashOut(address _forum) public returns (bool _succ){\n      if (forums[_forum].fid == 0)\n        revert(\"Forum does not exist\");\n\n      if (forums[_forum].cor == 0)\n        revert(\"Cash-out price is 0 scones.\");\n      if(!forums[_forum].userExists[msg.sender])\n        revert(\"You are not a member in this forum.\");\n\n      uint256 myKey = forums[_forum].userKey[msg.sender];\n      uint256 myKarma = forums[_forum].users[myKey].karma;\n      if(myKarma == 0)\n        revert(\"You need karma to cash out.\");\n\n      uint256 price = forums[_forum].cor;\n      if(balances[_forum] < myKarma*price)\n        revert(\"You can not cash out since forum does not have sufficient amount of scones\");\n      balances[_forum] -= myKarma*price;\n      balances[msg.sender] += myKarma*price;\n      forums[_forum].users[myKey].karma = 0;\n      emit CashOut(price, myKarma, _forum, msg.sender);\n      return true;\n    }\n\n    event SetKarma(address _forum, address _userAddress, uint256 _karma);\n    event SetCashOutPrice(address _forum, uint256 _cor);\n    event CashOut(uint256 _cor, uint256 _karma, address _from, address _to);\n    event AddUserToForum(address _userAddress, string _userName, uint256 _karma);\n    event CreateForum(bool _success, address _forumAddress, string _forumName, uint256 _fid);\n}\n",
  "sourcePath": "/home/anton/Documents/Gitz/Exjobb/Exjobb/SaviourCoin/MainApplication/contracts/Forum.sol",
  "compiler": {
    "name": "solc",
    "version": "0.5.16+commit.9c3226ce.Emscripten.clang"
  },
  "schemaVersion": "3.0.23",
  "updatedAt": "2020-06-01T14:22:54.052Z",
  "devdoc": {
    "methods": {}
  },
  "userdoc": {
    "methods": {}
  }
}