{
  "contractName": "Forum",
  "abi": [
    {
      "inputs": [],
      "payable": false,
      "stateMutability": "nonpayable",
      "type": "constructor"
    },
    {
      "anonymous": false,
      "inputs": [
        {
          "indexed": false,
          "internalType": "bool",
          "name": "_success",
          "type": "bool"
        },
        {
          "indexed": false,
          "internalType": "address",
          "name": "_userAddress",
          "type": "address"
        },
        {
          "indexed": false,
          "internalType": "string",
          "name": "_userName",
          "type": "string"
        },
        {
          "indexed": false,
          "internalType": "uint256",
          "name": "_karma",
          "type": "uint256"
        }
      ],
      "name": "AddUserToForum",
      "type": "event"
    },
    {
      "constant": false,
      "inputs": [
        {
          "internalType": "string",
          "name": "_fname",
          "type": "string"
        }
      ],
      "name": "createForum",
      "outputs": [
        {
          "internalType": "uint256",
          "name": "forum_created",
          "type": "uint256"
        }
      ],
      "payable": false,
      "stateMutability": "nonpayable",
      "type": "function"
    },
    {
      "constant": false,
      "inputs": [],
      "name": "getForumId",
      "outputs": [
        {
          "internalType": "uint256",
          "name": "id",
          "type": "uint256"
        }
      ],
      "payable": false,
      "stateMutability": "nonpayable",
      "type": "function"
    },
    {
      "constant": true,
      "inputs": [
        {
          "internalType": "uint256",
          "name": "_fid",
          "type": "uint256"
        }
      ],
      "name": "getForumData",
      "outputs": [
        {
          "internalType": "address",
          "name": "Owner",
          "type": "address"
        },
        {
          "internalType": "string",
          "name": "Forum_Name",
          "type": "string"
        },
        {
          "internalType": "uint256",
          "name": "Forum_ID",
          "type": "uint256"
        }
      ],
      "payable": false,
      "stateMutability": "view",
      "type": "function"
    },
    {
      "constant": false,
      "inputs": [
        {
          "internalType": "address",
          "name": "_userAddress",
          "type": "address"
        },
        {
          "internalType": "string",
          "name": "_userName",
          "type": "string"
        },
        {
          "internalType": "uint256",
          "name": "_karma",
          "type": "uint256"
        }
      ],
      "name": "addUserToForum",
      "outputs": [
        {
          "internalType": "bool",
          "name": "success",
          "type": "bool"
        }
      ],
      "payable": false,
      "stateMutability": "nonpayable",
      "type": "function"
    },
    {
      "constant": true,
      "inputs": [
        {
          "internalType": "address",
          "name": "_userAddress",
          "type": "address"
        }
      ],
      "name": "getUserData",
      "outputs": [
        {
          "internalType": "address",
          "name": "_address",
          "type": "address"
        },
        {
          "internalType": "string",
          "name": "_userinfo",
          "type": "string"
        },
        {
          "internalType": "uint256",
          "name": "_karma",
          "type": "uint256"
        }
      ],
      "payable": false,
      "stateMutability": "view",
      "type": "function"
    }
  ],
  "bytecode": "0x608060405234801561001057600080fd5b5060006003556108c5806100256000396000f3fe608060405234801561001057600080fd5b50600436106100575760003560e01c80630a85c44f1461005c578063a232e64b14610076578063bfb800c71461011c578063c44782c8146101c7578063ffc9896b14610293575b600080fd5b6100646102b9565b60408051918252519081900360200190f35b6100646004803603602081101561008c57600080fd5b8101906020810181356401000000008111156100a757600080fd5b8201836020820111156100b957600080fd5b803590602001918460018302840111640100000000831117156100db57600080fd5b91908080601f0160208091040260200160405190810160405280939291908181526020018383808284376000920191909152509295506102c0945050505050565b6101396004803603602081101561013257600080fd5b50356103a9565b604080516001600160a01b0385168152908101829052606060208083018281528551928401929092528451608084019186019080838360005b8381101561018a578181015183820152602001610172565b50505050905090810190601f1680156101b75780820380516001836020036101000a031916815260200191505b5094505050505060405180910390f35b61027f600480360360608110156101dd57600080fd5b6001600160a01b03823516919081019060408101602082013564010000000081111561020857600080fd5b82018360208201111561021a57600080fd5b8035906020019184600183028401116401000000008311171561023c57600080fd5b91908080601f0160208091040260200160405190810160405280939291908181526020018383808284376000920191909152509295505091359250610485915050565b604080519115158252519081900360200190f35b610139600480360360208110156102a957600080fd5b50356001600160a01b03166106db565b6003545b90565b604080516060810182523380825260208083018581526003548486015260009283526001808352948320845181546001600160a01b0319166001600160a01b039091161781559051805193959193610320939285019291909101906107ce565b506040820151816002015590505060006103386102b9565b60009081526002602052604081208054336001600160a01b031991821681179092556004805460018181018355919094527f8a35acfbc15ff81a39ae7d344fd709f28e8600b4aa8c65c6b64bfe7fe36bd19b9093018054909116909117905560038054909101908190559392505050565b6000818152600260208181526040808420546001600160a01b031680855260018084528286208101805484516101009382161593909302600019011695909504601f81018590048502820185019093528281526060948694929386938301828280156104565780601f1061042b57610100808354040283529160200191610456565b820191906000526020600020905b81548152906001019060200180831161043957829003601f168201915b505050506001600160a01b03841660009081526001602052604090206002015493989197509295509350505050565b600061048f61084c565b50604080516060810182526001600160a01b038087168083526020808401889052838501879052336000908152808252858120928152919052929092205490911661060657336000908152602081815260408083206001600160a01b0389811685529083529220835181546001600160a01b03191693169290921782558281015180518493926105269260018501929101906107ce565b50604082015181600201559050507f659a65e46a5208d5d8b8e7dc92da715ace2ff27bd9793a9ce4f670f651f967b760018686866040518085151515158152602001846001600160a01b03166001600160a01b0316815260200180602001838152602001828103825284818151815260200191508051906020019080838360005b838110156105bf5781810151838201526020016105a7565b50505050905090810190601f1680156105ec5780820380516001836020036101000a031916815260200191505b509550505050505060405180910390a160019150506106d4565b7f659a65e46a5208d5d8b8e7dc92da715ace2ff27bd9793a9ce4f670f651f967b760008686866040518085151515158152602001846001600160a01b03166001600160a01b0316815260200180602001838152602001828103825284818151815260200191508051906020019080838360005b83811015610691578181015183820152602001610679565b50505050905090810190601f1680156106be5780820380516001836020036101000a031916815260200191505b509550505050505060405180910390a160009150505b9392505050565b336000908152602081815260408083206001600160a01b0385811685529083528184208054600191820180548551600261010095831615959095026000190190911693909304601f810187900487028401870190955284835260609587959290941693869392908301828280156107935780601f1061076857610100808354040283529160200191610793565b820191906000526020600020905b81548152906001019060200180831161077657829003601f168201915b5050336000908152602081815260408083206001600160a01b038e168452909152902060020154959850929650939450505050509193909250565b828054600181600116156101000203166002900490600052602060002090601f016020900481019282601f1061080f57805160ff191683800117855561083c565b8280016001018555821561083c579182015b8281111561083c578251825591602001919060010190610821565b50610848929150610876565b5090565b604051806060016040528060006001600160a01b0316815260200160608152602001600081525090565b6102bd91905b80821115610848576000815560010161087c56fea265627a7a7231582093b724fceda3b183c113a0fcb827d178a1af35755f65133719ce340a686dd16a64736f6c63430005100032",
  "source": "//Klientsidan\n  //Kunna se alla forum från klientsida.\n  //Se till att inte kunna bli tillagd i ett forum hur som helst.\n  //Mina uppgifter i ett forum.\n\n//Forumskaparsida\n  //Skapa ett forum\n  //Lägga till användare i mitt forum.\n\n//pragma solidity ^0.5.0;\npragma solidity ^0.5.16;\n\n\ncontract Forum {\n\n  mapping (address => mapping (address => userData)) private forumUsers;\n  mapping (address => forumData) private forums;\n  mapping (uint => address) private fidOwner;\n  uint256 private forumId;\n  address[] private testz;\n\n  struct forumData{\n    address owner;\n    string forumName;\n    uint256 fid;\n  }\n\n    struct userData{\n      address userAddress;\n      string userName;\n      uint256 karma;\n    }\n\n    constructor () public {\n      forumId = 0;\n    }\n\n    function createForum(string memory _fname) public returns (uint256 forum_created){\n      forums[msg.sender] = forumData(msg.sender, _fname, forumId);\n      uint256 x = getForumId();\n      fidOwner[x] = msg.sender;\n      testz.push(msg.sender);\n      forumId = forumId + 1;\n      return forumId;\n    }\n\n    function getForumId() public returns (uint256 id){\n      return forumId;\n    }\n\n    function getForumData(uint256 _fid) public view returns (address Owner, string memory Forum_Name, uint256 Forum_ID){\n      address owner = fidOwner[_fid];\n      string memory fName = forums[owner].forumName;\n      uint256 id = forums[owner].fid;\n      return(owner, fName, id);\n    }\n\n    function addUserToForum(address _userAddress, string memory _userName, uint256 _karma) public returns (bool success){\n      userData memory newMember = userData(_userAddress, _userName, _karma);\n      if(forumUsers[msg.sender][_userAddress].userAddress == address(0x0)){\n        forumUsers[msg.sender][_userAddress] = newMember;\n        emit AddUserToForum(true, _userAddress, _userName, _karma);\n        return true;\n      }\n      emit AddUserToForum(false, _userAddress, _userName, _karma);\n      return false;\n    }\n\n    function getUserData(address _userAddress) public view returns (address _address, string memory _userinfo, uint256 _karma) {\n        address uaddress = forumUsers[msg.sender][_userAddress].userAddress;\n        string memory uname = forumUsers[msg.sender][_userAddress].userName;\n        uint256 karm = forumUsers[msg.sender][_userAddress].karma;\n\n        return (uaddress, uname, karm);\n    }\n\n\n    event AddUserToForum(bool _success, address _userAddress, string _userName, uint256 _karma);\n\n}\n",
  "sourcePath": "/home/anton/Documents/Gitz/Exjobb/Exjobb/SaviourCoin/MainApplication/contracts/Forum.sol",
  "compiler": {
    "name": "solc",
    "version": "0.5.16+commit.9c3226ce.Emscripten.clang"
  },
  "schemaVersion": "3.0.23",
  "updatedAt": "2020-04-06T01:32:04.958Z",
  "devdoc": {
    "methods": {}
  },
  "userdoc": {
    "methods": {}
  }
}