{
  "contractName": "Forum",
  "abi": [
    {
      "inputs": [],
      "payable": false,
      "stateMutability": "nonpayable",
      "type": "constructor"
    },
    {
      "anonymous": false,
      "inputs": [
        {
          "indexed": false,
          "internalType": "bool",
          "name": "succ",
          "type": "bool"
        },
        {
          "indexed": false,
          "internalType": "string",
          "name": "info",
          "type": "string"
        },
        {
          "indexed": false,
          "internalType": "address",
          "name": "_userAddress",
          "type": "address"
        },
        {
          "indexed": false,
          "internalType": "string",
          "name": "_userName",
          "type": "string"
        }
      ],
      "name": "AddUserToForum",
      "type": "event"
    },
    {
      "anonymous": false,
      "inputs": [
        {
          "indexed": false,
          "internalType": "bool",
          "name": "succ",
          "type": "bool"
        },
        {
          "indexed": false,
          "internalType": "string",
          "name": "info",
          "type": "string"
        },
        {
          "indexed": false,
          "internalType": "address",
          "name": "self",
          "type": "address"
        },
        {
          "indexed": false,
          "internalType": "string",
          "name": "fname",
          "type": "string"
        },
        {
          "indexed": false,
          "internalType": "uint256",
          "name": "fid",
          "type": "uint256"
        }
      ],
      "name": "CreateForum",
      "type": "event"
    },
    {
      "anonymous": false,
      "inputs": [
        {
          "indexed": false,
          "internalType": "bool",
          "name": "success",
          "type": "bool"
        }
      ],
      "name": "Succ",
      "type": "event"
    },
    {
      "constant": false,
      "inputs": [
        {
          "internalType": "string",
          "name": "_fname",
          "type": "string"
        }
      ],
      "name": "createForum",
      "outputs": [
        {
          "internalType": "bool",
          "name": "success",
          "type": "bool"
        }
      ],
      "payable": false,
      "stateMutability": "nonpayable",
      "type": "function"
    },
    {
      "constant": true,
      "inputs": [],
      "name": "getForumCount",
      "outputs": [
        {
          "internalType": "uint256",
          "name": "id",
          "type": "uint256"
        }
      ],
      "payable": false,
      "stateMutability": "view",
      "type": "function"
    },
    {
      "constant": true,
      "inputs": [
        {
          "internalType": "address",
          "name": "_owner",
          "type": "address"
        }
      ],
      "name": "getForumData",
      "outputs": [
        {
          "internalType": "bool",
          "name": "succ",
          "type": "bool"
        },
        {
          "internalType": "address",
          "name": "Owner",
          "type": "address"
        },
        {
          "internalType": "string",
          "name": "Forum_Name",
          "type": "string"
        },
        {
          "internalType": "uint256",
          "name": "Forum_ID",
          "type": "uint256"
        }
      ],
      "payable": false,
      "stateMutability": "view",
      "type": "function"
    },
    {
      "constant": true,
      "inputs": [
        {
          "internalType": "uint256",
          "name": "_fid",
          "type": "uint256"
        }
      ],
      "name": "getForumData",
      "outputs": [
        {
          "internalType": "bool",
          "name": "succ",
          "type": "bool"
        },
        {
          "internalType": "address",
          "name": "Owner",
          "type": "address"
        },
        {
          "internalType": "string",
          "name": "Forum_Name",
          "type": "string"
        },
        {
          "internalType": "uint256",
          "name": "Forum_ID",
          "type": "uint256"
        }
      ],
      "payable": false,
      "stateMutability": "view",
      "type": "function"
    },
    {
      "constant": false,
      "inputs": [
        {
          "internalType": "address",
          "name": "_userAddress",
          "type": "address"
        },
        {
          "internalType": "string",
          "name": "_userName",
          "type": "string"
        },
        {
          "internalType": "uint256",
          "name": "_karma",
          "type": "uint256"
        }
      ],
      "name": "addUserToForum",
      "outputs": [
        {
          "internalType": "bool",
          "name": "success",
          "type": "bool"
        }
      ],
      "payable": false,
      "stateMutability": "nonpayable",
      "type": "function"
    },
    {
      "constant": false,
      "inputs": [
        {
          "internalType": "uint256",
          "name": "_karma",
          "type": "uint256"
        },
        {
          "internalType": "address",
          "name": "_userAddress",
          "type": "address"
        }
      ],
      "name": "setKarma",
      "outputs": [
        {
          "internalType": "bool",
          "name": "succ",
          "type": "bool"
        }
      ],
      "payable": false,
      "stateMutability": "nonpayable",
      "type": "function"
    },
    {
      "constant": true,
      "inputs": [
        {
          "internalType": "uint256",
          "name": "_ucount",
          "type": "uint256"
        }
      ],
      "name": "getUserData",
      "outputs": [
        {
          "internalType": "bool",
          "name": "_succ",
          "type": "bool"
        },
        {
          "internalType": "address",
          "name": "_userAddress",
          "type": "address"
        },
        {
          "internalType": "string",
          "name": "_userinfo",
          "type": "string"
        },
        {
          "internalType": "uint256",
          "name": "_karma",
          "type": "uint256"
        }
      ],
      "payable": false,
      "stateMutability": "view",
      "type": "function"
    },
    {
      "constant": true,
      "inputs": [
        {
          "internalType": "address",
          "name": "_userAddress",
          "type": "address"
        }
      ],
      "name": "getUserData",
      "outputs": [
        {
          "internalType": "bool",
          "name": "succ",
          "type": "bool"
        },
        {
          "internalType": "address",
          "name": "_address",
          "type": "address"
        },
        {
          "internalType": "string",
          "name": "_userinfo",
          "type": "string"
        },
        {
          "internalType": "uint256",
          "name": "_karma",
          "type": "uint256"
        }
      ],
      "payable": false,
      "stateMutability": "view",
      "type": "function"
    },
    {
      "constant": true,
      "inputs": [],
      "name": "getUserCount",
      "outputs": [
        {
          "internalType": "uint256",
          "name": "_ucount",
          "type": "uint256"
        }
      ],
      "payable": false,
      "stateMutability": "view",
      "type": "function"
    },
    {
      "constant": true,
      "inputs": [
        {
          "internalType": "address",
          "name": "_admin",
          "type": "address"
        }
      ],
      "name": "getMyInfo",
      "outputs": [
        {
          "internalType": "uint256",
          "name": "_fID",
          "type": "uint256"
        },
        {
          "internalType": "address",
          "name": "_forumAddress",
          "type": "address"
        },
        {
          "internalType": "address",
          "name": "_myAddress",
          "type": "address"
        },
        {
          "internalType": "string",
          "name": "_userName",
          "type": "string"
        },
        {
          "internalType": "uint256",
          "name": "_karma",
          "type": "uint256"
        }
      ],
      "payable": false,
      "stateMutability": "view",
      "type": "function"
    },
    {
      "constant": true,
      "inputs": [
        {
          "internalType": "uint256",
          "name": "_fid",
          "type": "uint256"
        }
      ],
      "name": "getMyInfo",
      "outputs": [
        {
          "internalType": "uint256",
          "name": "_fID",
          "type": "uint256"
        },
        {
          "internalType": "address",
          "name": "_forumAddress",
          "type": "address"
        },
        {
          "internalType": "address",
          "name": "_myAddress",
          "type": "address"
        },
        {
          "internalType": "string",
          "name": "_userName",
          "type": "string"
        },
        {
          "internalType": "uint256",
          "name": "_karma",
          "type": "uint256"
        }
      ],
      "payable": false,
      "stateMutability": "view",
      "type": "function"
    }
  ],
  "bytecode": "0x608060405234801561001057600080fd5b50600160025561177f806100256000396000f3fe608060405234801561001057600080fd5b50600436106100a95760003560e01c806383d3f6b71161007157806383d3f6b7146102cf578063a232e64b146102e9578063b5cb15f71461038f578063bfb800c714610397578063c44782c8146103b4578063ffc9896b1461046c576100a9565b806301b14278146100ae5780630a32bf36146101835780631fef580c146101a957806342382b821461026957806378f46998146102a9575b600080fd5b6100cb600480360360208110156100c457600080fd5b5035610492565b60405180868152602001856001600160a01b03166001600160a01b03168152602001846001600160a01b03166001600160a01b0316815260200180602001838152602001828103825284818151815260200191508051906020019080838360005b8381101561014457818101518382015260200161012c565b50505050905090810190601f1680156101715780820380516001836020036101000a031916815260200191505b50965050505050505060405180910390f35b6100cb6004803603602081101561019957600080fd5b50356001600160a01b03166105b0565b6101c6600480360360208110156101bf57600080fd5b50356106bf565b6040518085151515158152602001846001600160a01b03166001600160a01b0316815260200180602001838152602001828103825284818151815260200191508051906020019080838360005b8381101561022b578181015183820152602001610213565b50505050905090810190601f1680156102585780820380516001836020036101000a031916815260200191505b509550505050505060405180910390f35b6102956004803603604081101561027f57600080fd5b50803590602001356001600160a01b0316610878565b604080519115158252519081900360200190f35b6101c6600480360360208110156102bf57600080fd5b50356001600160a01b0316610911565b6102d7610a5c565b60408051918252519081900360200190f35b610295600480360360208110156102ff57600080fd5b81019060208101813564010000000081111561031a57600080fd5b82018360208201111561032c57600080fd5b8035906020019184600183028401116401000000008311171561034e57600080fd5b91908080601f016020809104026020016040519081016040528093929190818152602001838380828437600092019190915250929550610a63945050505050565b6102d7610deb565b6101c6600480360360208110156103ad57600080fd5b5035610e01565b610295600480360360608110156103ca57600080fd5b6001600160a01b0382351691908101906040810160208201356401000000008111156103f557600080fd5b82018360208201111561040757600080fd5b8035906020019184600183028401116401000000008311171561042957600080fd5b91908080601f0160208091040260200160405190810160405280939291908181526020018383808284376000920191909152509295505091359250610f54915050565b6101c66004803603602081101561048257600080fd5b50356001600160a01b03166113bf565b6000818152600160208181526040808420546001600160a01b03168085528483528185203386526005810184528286205480875260049091018452828620850180548451600261010098831615989098026000190190911696909604601f810186900486028701860190945283865286958695606095879594938793929091908301828280156105635780601f1061053857610100808354040283529160200191610563565b820191906000526020600020905b81548152906001019060200180831161054657829003601f168201915b505050506001600160a01b0385166000818152602081815260408083209783526004880182528220600290810154938352919052909401549b949a50339950909750919550919350505050565b6001600160a01b0381166000908152602081815260408083203384526005810183528184205480855260049091018352818420600190810180548451600293821615610100026000190190911692909204601f810186900486028301860190945283825285948594606094869490938693919290918301828280156106765780601f1061064b57610100808354040283529160200191610676565b820191906000526020600020905b81548152906001019060200180831161065957829003601f168201915b505050506001600160a01b038a166000818152602081815260408083209783526004880182528220600290810154938352919052909401549a3399509197509295509350505050565b33600090815260208190526040812054819060609082906001600160a01b03166107265750506040805180820190915260208082527f596f75206e65656420746f20637265617465206120666f72756d206669727374908201526000925082915081610871565b33600090815260208190526040902060030154851180610744575060005b1561078c57505060408051808201909152601981527f54686973207573657220646f6573206e6f74206578697374730000000000000060208201526000925082915081610871565b336000908152602081815260408083208884526004018252918290208054600191820180548551600261010095831615959095026000190190911693909304601f81018590048502840185019095528483526001600160a01b039091169360609383018282801561083e5780601f106108135761010080835404028352916020019161083e565b820191906000526020600020905b81548152906001019060200180831161082157829003601f168201915b5050336000908152602081815260408083208e845260040190915290206002015460019a50959850929650939450505050505b9193509193565b336000908152602081905260408120546001600160a01b031661089d5750600061090b565b336000908152602081815260408083206001600160a01b038616845260060190915290205460ff166108d15750600061090b565b50336000908152602081815260408083206001600160a01b0385168452600581018352818420548452600401909152902060020182905560015b92915050565b336000908152600360205260408120548190606090829061096f57505060408051808201909152601781527f466f72756d20646f6573206e6f74206578697374732e2000000000000000000060208201526000925082915081610871565b6060600080876001600160a01b03166001600160a01b031681526020019081526020016000206001018054600181600116156101000203166002900480601f016020809104026020016040519081016040528092919081815260200182805460018160011615610100020316600290048015610a2c5780601f10610a0157610100808354040283529160200191610a2c565b820191906000526020600020905b815481529060010190602001808311610a0f57829003601f168201915b505050506001600160a01b0388166000908152602081905260409020600201546001999297509550909350505050565b6002545b90565b336000908152602081815260408083206002015460039092528220548115801590610a8d57508082145b15610ba0577f360973aa1f412aaed0aa70236cd0568063c3fd881fa2d2b695ff1d2b205cc91660003386600254604051808515151515815260200180602001856001600160a01b03166001600160a01b0316815260200180602001848152602001838103835260198152602001807f596f7520616c7265616479206f776e206120666f72756d212000000000000000815250602001838103825285818151815260200191508051906020019080838360005b83811015610b57578181015183820152602001610b3f565b50505050905090810190601f168015610b845780820380516001836020036101000a031916815260200191505b50965050505050505060405180910390a1600092505050610de6565b604080516080810182523380825260208083018881526002548486015260006060850181905292835282825293909120825181546001600160a01b0319166001600160a01b0390911617815592518051929392610c0392600185019201906115e3565b506040828101516002830155606092830151600390920191909155805191820181523380835260208084018881526000858501819052928352828252838320838052600401825292909120835181546001600160a01b0319166001600160a01b0390911617815591518051610c7e92600185019201906115e3565b506040918201516002918201553360008181526020818152848220600681018252858320805460ff191660019081179091556005820183528684208490556003918201805482019055855491835286842082905590835280825285832080546001600160a01b03191685179055845481019485905585518181529586018490526080860185905260a0868301818152601c918801919091527f466f72756d2063726561746564207375636365737366756c6c7921200000000060c088015260e0606088018181528c51918901919091528b517f360973aa1f412aaed0aa70236cd0568063c3fd881fa2d2b695ff1d2b205cc9169893978d969095610100860192908801918190849084905b83811015610da1578181015183820152602001610d89565b50505050905090810190601f168015610dce5780820380516001836020036101000a031916815260200191505b50965050505050505060405180910390a16001925050505b919050565b3360009081526020819052604090206003015490565b600081815260016020526040812054819060609082906001600160a01b031680610e635760408051808201909152601681527502337b93ab6903237b2b9903737ba1032bc34b9ba17160551b6020820152600095509093509150839050610871565b6060600080836001600160a01b03166001600160a01b031681526020019081526020016000206001018054600181600116156101000203166002900480601f016020809104026020016040519081016040528092919081815260200182805460018160011615610100020316600290048015610f205780601f10610ef557610100808354040283529160200191610f20565b820191906000526020600020905b815481529060010190602001808311610f0357829003601f168201915b505050506001600160a01b03841660009081526020819052604090206002015460019a949950919750909550919350505050565b3360008181526020819052604081205490916001600160a01b03909116146110485760008051602061167c83398151915260008585604051808415151515815260200180602001846001600160a01b03166001600160a01b03168152602001806020018381038352602281526020018061170260229139604001838103825284818151815260200191508051906020019080838360005b83811015611003578181015183820152602001610feb565b50505050905090810190601f1680156110305780820380516001836020036101000a031916815260200191505b509550505050505060405180910390a15060006113b8565b336000908152602081815260408083206001600160a01b038816845260060190915290205460ff1615156001141561111b5760008051602061167c83398151915260008585604051808415151515815260200180602001846001600160a01b03166001600160a01b0316815260200180602001838103835260158152602001807402ab9b2b91030b63932b0b23c9032bc34b9ba39971605d1b8152506020018381038252848181518152602001915080519060200190808383600083811015611003578181015183820152602001610feb565b336000908152602081815260408083206001600160a01b038816845260060190915290205460ff166112ea573360009081526020818152604080832060038101805460019081019182905583516060810185526001600160a01b038b811682528187018b81528287018b90528489526004909501875294909620865181546001600160a01b0319169516949094178455915180519195946111c1938501929101906115e3565b506040918201516002919091015533600090815260208181528282206001600160a01b038916808452600682018352848420805460ff19166001908117909155600590920183528484208690558451828152948501526080848301818152601b918601919091527f4d656d626572206164646564207375636365737366756c6c792e20000000000060a086015260c0606086018181528a5191870191909152895160008051602061167c8339815191529693958c958c9594939260e0860192918701918190849084905b838110156112a357818101518382015260200161128b565b50505050905090810190601f1680156112d05780820380516001836020036101000a031916815260200191505b509550505050505060405180910390a160019150506113b8565b60008051602061167c83398151915260008585604051808415151515815260200180602001846001600160a01b03166001600160a01b0316815260200180602001838103835260388152602001806116ca60389139604001838103825284818151815260200191508051906020019080838360005b8381101561137757818101518382015260200161135f565b50505050905090810190601f1680156113a45780820380516001836020036101000a031916815260200191505b509550505050505060405180910390a15060005b9392505050565b33600090815260208190526040812054819060609082906001600160a01b03166114265750506040805180820190915260208082527f596f75206e65656420746f20637265617465206120666f72756d206669727374908201526000925082915081610871565b336000908152602081815260408083206001600160a01b038916845260060190915290205460ff161561155557336000908152602081815260408083206001600160a01b0389811685526005820184528285205480865260049092018452938290208054600191820180548551600261010095831615959095026000190190911693909304601f8101879004870284018701909552848352929516936060939192919083018282801561151a5780601f106114ef5761010080835404028352916020019161151a565b820191906000526020600020905b8154815290600101906020018083116114fd57829003601f168201915b50503360009081526020818152604080832099835260049099019052969096206002015460019a509498509196509294506108719350505050565b336000908152602081815260408083206001600160a01b038916845260060190915290205460ff166115b2576000806000819150604051806060016040528060278152602001611724602791399296509094509092509050610871565b60008060008191506040518060600160405280602e815260200161169c602e91399298919750919550909350915050565b828054600181600116156101000203166002900490600052602060002090601f016020900481019282601f1061162457805160ff1916838001178555611651565b82800160010185558215611651579182015b82811115611651578251825591602001919060010190611636565b5061165d929150611661565b5090565b610a6091905b8082111561165d576000815560010161166756fe4e2ccda530823d156bb2b039daef610f40c3abcd9ad3dc2b8d5d7b84e27c400b536f6d657468696e672077656e742077726f6e67207769746820616464696e672061206e6577206d656d6265722e536f6d657468696e672077656e742077726f6e672e2054686973206572726f722069732077656972642c20646f20796f75207375636b3f20596f75206e65656420746f20637265617465206120666f72756d2066697273742e2054686973207573657220646f6573206e6f742065786973747320696e20796f757220666f72756da265627a7a7231582047c18199c57f8fcc83770b327103ecb2b8faa2fe9815ec2efb0cb4356c8fc6fd64736f6c63430005100032",
  "source": "//Klientsidan\n  //Se till att inte kunna bli tillagd i ett forum hur som helst.\n\n // Skicka sga \"ok\" att f bli tillagd i ett forum.\n//Forumskaparsida\n  // Kolla om anvndaren har godknt att bli tillagd.\n  // Get userCount\n  // GetUser by usercount\npragma solidity ^0.5.16;\n\ncontract Forum {\n\n  //mapping (address => mapping (address => userData)) private forumUsers;\n  mapping (address => forumData) private forums;\n  mapping (uint => address) private fidOwner;\n  uint256 private forumId;\n  mapping (address => uint256) addressForumId;\n//  address[] private testz;\n\n  struct forumData{\n    address owner;\n    string forumName;\n    uint256 fid;\n    uint256 userCount;\n    mapping(uint256 => userData) users;\n    mapping(address => uint256) userKey; //Equal to next userCount.\n    mapping(address => bool) userExists;\n  }\n\n    struct userData{\n      address userAddress;\n      string userName;\n      uint256 karma;\n    }\n\n    constructor () public {\n      forumId = 1;\n    }\n\n    function createForum(string memory _fname) public returns (bool success){\n      uint256 a = forums[msg.sender].fid;\n      uint256 b = addressForumId[msg.sender];\n      if((a != 0) && (a == b)){\n        emit CreateForum(false, \"You already own a forum! \", msg.sender, _fname, forumId);\n        return(false);\n      }\n      forums[msg.sender] = forumData(msg.sender, _fname, forumId, 0);\n      forums[msg.sender].users[0] = userData(msg.sender, _fname, 0);\n      forums[msg.sender].userExists[msg.sender] = true;\n      forums[msg.sender].userKey[msg.sender] = 0;\n      forums[msg.sender].userCount ++;\n      addressForumId[msg.sender] = forumId;\n      fidOwner[forumId] = msg.sender;\n      forumId = forumId + 1;\n      emit CreateForum(true, \"Forum created successfully! \", msg.sender, _fname, forumId);\n      return (true);\n    }\n\n    function getForumCount() public view returns (uint256 id){\n      return forumId;\n    }\n\n    function getForumData(uint256 _fid) public view returns (bool succ, address Owner, string memory Forum_Name, uint256 Forum_ID){\n      address owner = fidOwner[_fid];\n      if(owner == address(0x0))\n        return (false, owner, \"Forum does not exist. \", 0);\n      string memory fName = forums[owner].forumName;\n      uint256 id = forums[owner].fid;\n      return(true, owner, fName, id);\n    }\n\n    function getForumData(address _owner) public view returns (bool succ, address Owner, string memory Forum_Name, uint256 Forum_ID){\n      if(addressForumId[msg.sender] == 0){\n        return (false, address(0x0), \"Forum does not exists. \", 0);\n      }\n      string memory fName = forums[_owner].forumName;\n      uint256 id = forums[_owner].fid;\n      return(true, _owner, fName, id);\n    }\n\n    function addUserToForum(address _userAddress, string memory _userName, uint256 _karma) public returns (bool success){\n      if(forums[msg.sender].owner != msg.sender){\n        emit AddUserToForum(false, \"You need to create a forum first. \", _userAddress, _userName);\n        return (false);\n      }\n      if(forums[msg.sender].userExists[_userAddress] == true){\n        emit AddUserToForum(false, \"User already exists. \", _userAddress,  _userName);\n        return (false);\n      }\n      if(!forums[msg.sender].userExists[_userAddress]){\n        forums[msg.sender].userCount++;\n        uint256 newUserCount = forums[msg.sender].userCount;\n        forums[msg.sender].users[newUserCount] = userData(_userAddress, _userName, _karma);\n        forums[msg.sender].userExists[_userAddress] = true;\n        forums[msg.sender].userKey[_userAddress] = newUserCount;\n        emit AddUserToForum(true, \"Member added successfully. \", _userAddress, _userName);\n        return (true);\n\n      }\n      emit AddUserToForum(false, \"Something went wrong. This error is weird, do you suck? \", _userAddress, _userName);\n      return (false);\n    }\n\n    function setKarma(uint256 _karma, address _userAddress) public returns (bool succ){\n      if(forums[msg.sender].owner == address(0x0)){\n        return false;\n      }\n      if(!forums[msg.sender].userExists[_userAddress]){\n        return false;\n      }\n      uint256 ukey = forums[msg.sender].userKey[_userAddress];\n      forums[msg.sender].users[ukey].karma = _karma;\n      return true;\n    }\n\n    function getUserData(address _userAddress) public view returns (bool succ, address _address, string memory _userinfo, uint256 _karma) {\n        if(forums[msg.sender].owner == address(0x0)){\n          return (false, address(0x0), \"You need to create a forum first\", 0);\n        }\n        if(forums[msg.sender].userExists[_userAddress]){\n          uint256 uKey = forums[msg.sender].userKey[_userAddress];\n          address uaddress = forums[msg.sender].users[uKey].userAddress;\n          string memory uname = forums[msg.sender].users[uKey].userName;\n          uint256 karm = forums[msg.sender].users[uKey].karma;\n          return (true, uaddress, uname, karm);\n        }\n        if(!forums[msg.sender].userExists[_userAddress]){\n          return(false, address(0x0), \"This user does not exists in your forum\", 0);\n        }\n        return(false, address(0x0),\"Something went wrong with adding a new member.\", 0);\n    }\n\n  function getUserData(uint256 _ucount) public view returns (bool _succ, address _userAddress, string memory _userinfo, uint256 _karma){\n    if(forums[msg.sender].owner == address(0x0)){\n      return (false, address(0x0), \"You need to create a forum first\", 0);\n    }\n\n    if((forums[msg.sender].userCount < _ucount ) || _ucount < 0){\n      return (false, address(0x0), \"This user does not exists\", 0);\n    }\n\n    address uaddress = forums[msg.sender].users[_ucount].userAddress;\n    string memory uname = forums[msg.sender].users[_ucount].userName;\n    uint256 karma = forums[msg.sender].users[_ucount].karma;\n    return (true, uaddress, uname, karma);\n  }\n\n\n    function getUserCount() public view returns (uint256 _ucount){\n      return forums[msg.sender].userCount;\n    }\n\n    function getMyInfo(address _admin) public view returns (uint256 _fID, address _forumAddress, address _myAddress, string memory _userName, uint256 _karma) {\n      uint256 key = forums[_admin].userKey[msg.sender];\n      string memory uname = forums[_admin].users[key].userName;\n      uint256 karma = forums[_admin].users[key].karma;\n      uint256 fid = forums[_admin].fid;\n      return (fid, _admin, msg.sender, uname, karma);\n    }\n\n    function getMyInfo(uint256 _fid) public view returns (uint256 _fID, address _forumAddress, address _myAddress, string memory _userName, uint256 _karma) {\n      address admin = fidOwner[_fid];\n      uint256 key = forums[admin].userKey[msg.sender];\n      string memory uname = forums[admin].users[key].userName;\n      uint256 karma = forums[admin].users[key].karma;\n      uint256 fid = forums[admin].fid;\n      return (fid, admin, msg.sender, uname, karma);\n    }\n\n    event Succ(bool success);\n    event AddUserToForum(bool succ, string info, address _userAddress, string _userName);\n    event CreateForum(bool succ, string info, address self, string fname, uint256 fid);\n}\n",
  "sourcePath": "/home/anton/Documents/Gitz/Exjobb/Exjobb/SaviourCoin/MainApplication/contracts/Forum.sol",
  "compiler": {
    "name": "solc",
    "version": "0.5.16+commit.9c3226ce.Emscripten.clang"
  },
  "schemaVersion": "3.0.23",
  "updatedAt": "2020-05-04T15:02:23.954Z",
  "devdoc": {
    "methods": {}
  },
  "userdoc": {
    "methods": {}
  }
}