{
  "contractName": "Forum",
  "abi": [
    {
      "constant": true,
      "inputs": [],
      "name": "name",
      "outputs": [
        {
          "name": "",
          "type": "string"
        }
      ],
      "payable": false,
      "stateMutability": "view",
      "type": "function"
    },
    {
      "constant": true,
      "inputs": [],
      "name": "totalSupply",
      "outputs": [
        {
          "name": "",
          "type": "uint256"
        }
      ],
      "payable": false,
      "stateMutability": "view",
      "type": "function"
    },
    {
      "constant": true,
      "inputs": [
        {
          "name": "",
          "type": "address"
        }
      ],
      "name": "balances",
      "outputs": [
        {
          "name": "",
          "type": "uint256"
        }
      ],
      "payable": false,
      "stateMutability": "view",
      "type": "function"
    },
    {
      "constant": true,
      "inputs": [],
      "name": "decimals",
      "outputs": [
        {
          "name": "",
          "type": "uint8"
        }
      ],
      "payable": false,
      "stateMutability": "view",
      "type": "function"
    },
    {
      "constant": true,
      "inputs": [
        {
          "name": "",
          "type": "address"
        },
        {
          "name": "",
          "type": "address"
        }
      ],
      "name": "allowed",
      "outputs": [
        {
          "name": "",
          "type": "uint256"
        }
      ],
      "payable": false,
      "stateMutability": "view",
      "type": "function"
    },
    {
      "constant": true,
      "inputs": [],
      "name": "symbol",
      "outputs": [
        {
          "name": "",
          "type": "string"
        }
      ],
      "payable": false,
      "stateMutability": "view",
      "type": "function"
    },
    {
      "inputs": [
        {
          "name": "_initialAmount",
          "type": "uint256"
        },
        {
          "name": "_tokenName",
          "type": "string"
        },
        {
          "name": "_decimalUnits",
          "type": "uint8"
        },
        {
          "name": "_tokenSymbol",
          "type": "string"
        }
      ],
      "payable": false,
      "stateMutability": "nonpayable",
      "type": "constructor"
    },
    {
      "anonymous": false,
      "inputs": [
        {
          "indexed": false,
          "name": "success",
          "type": "bool"
        }
      ],
      "name": "Succ",
      "type": "event"
    },
    {
      "anonymous": false,
      "inputs": [
        {
          "indexed": false,
          "name": "succ",
          "type": "bool"
        },
        {
          "indexed": false,
          "name": "info",
          "type": "string"
        },
        {
          "indexed": false,
          "name": "_userAddress",
          "type": "address"
        },
        {
          "indexed": false,
          "name": "_userName",
          "type": "string"
        }
      ],
      "name": "AddUserToForum",
      "type": "event"
    },
    {
      "anonymous": false,
      "inputs": [
        {
          "indexed": false,
          "name": "succ",
          "type": "bool"
        },
        {
          "indexed": false,
          "name": "info",
          "type": "string"
        },
        {
          "indexed": false,
          "name": "self",
          "type": "address"
        },
        {
          "indexed": false,
          "name": "fname",
          "type": "string"
        },
        {
          "indexed": false,
          "name": "fid",
          "type": "uint256"
        }
      ],
      "name": "CreateForum",
      "type": "event"
    },
    {
      "anonymous": false,
      "inputs": [
        {
          "indexed": true,
          "name": "_from",
          "type": "address"
        },
        {
          "indexed": true,
          "name": "_to",
          "type": "address"
        },
        {
          "indexed": false,
          "name": "_value",
          "type": "uint256"
        }
      ],
      "name": "Transfer",
      "type": "event"
    },
    {
      "anonymous": false,
      "inputs": [
        {
          "indexed": true,
          "name": "_owner",
          "type": "address"
        },
        {
          "indexed": true,
          "name": "_spender",
          "type": "address"
        },
        {
          "indexed": false,
          "name": "_value",
          "type": "uint256"
        }
      ],
      "name": "Approval",
      "type": "event"
    },
    {
      "constant": false,
      "inputs": [
        {
          "name": "_to",
          "type": "address"
        },
        {
          "name": "_value",
          "type": "uint256"
        }
      ],
      "name": "transfer",
      "outputs": [
        {
          "name": "success",
          "type": "bool"
        }
      ],
      "payable": false,
      "stateMutability": "nonpayable",
      "type": "function"
    },
    {
      "constant": false,
      "inputs": [
        {
          "name": "_from",
          "type": "address"
        },
        {
          "name": "_to",
          "type": "address"
        },
        {
          "name": "_value",
          "type": "uint256"
        }
      ],
      "name": "transferFrom",
      "outputs": [
        {
          "name": "success",
          "type": "bool"
        }
      ],
      "payable": false,
      "stateMutability": "nonpayable",
      "type": "function"
    },
    {
      "constant": true,
      "inputs": [
        {
          "name": "_owner",
          "type": "address"
        }
      ],
      "name": "balanceOf",
      "outputs": [
        {
          "name": "balance",
          "type": "uint256"
        }
      ],
      "payable": false,
      "stateMutability": "view",
      "type": "function"
    },
    {
      "constant": false,
      "inputs": [
        {
          "name": "_spender",
          "type": "address"
        },
        {
          "name": "_value",
          "type": "uint256"
        }
      ],
      "name": "approve",
      "outputs": [
        {
          "name": "success",
          "type": "bool"
        }
      ],
      "payable": false,
      "stateMutability": "nonpayable",
      "type": "function"
    },
    {
      "constant": true,
      "inputs": [
        {
          "name": "_owner",
          "type": "address"
        },
        {
          "name": "_spender",
          "type": "address"
        }
      ],
      "name": "allowance",
      "outputs": [
        {
          "name": "remaining",
          "type": "uint256"
        }
      ],
      "payable": false,
      "stateMutability": "view",
      "type": "function"
    },
    {
      "constant": false,
      "inputs": [
        {
          "name": "_fname",
          "type": "string"
        }
      ],
      "name": "createForum",
      "outputs": [
        {
          "name": "success",
          "type": "bool"
        }
      ],
      "payable": false,
      "stateMutability": "nonpayable",
      "type": "function"
    },
    {
      "constant": true,
      "inputs": [],
      "name": "getForumCount",
      "outputs": [
        {
          "name": "id",
          "type": "uint256"
        }
      ],
      "payable": false,
      "stateMutability": "view",
      "type": "function"
    },
    {
      "constant": true,
      "inputs": [
        {
          "name": "_fid",
          "type": "uint256"
        }
      ],
      "name": "getForumDataByFid",
      "outputs": [
        {
          "name": "forumOwner",
          "type": "address"
        },
        {
          "name": "forumName",
          "type": "string"
        },
        {
          "name": "fid",
          "type": "uint256"
        }
      ],
      "payable": false,
      "stateMutability": "view",
      "type": "function"
    },
    {
      "constant": true,
      "inputs": [
        {
          "name": "_owner",
          "type": "address"
        }
      ],
      "name": "getForumData",
      "outputs": [
        {
          "name": "forumOwner",
          "type": "address"
        },
        {
          "name": "forumName",
          "type": "string"
        },
        {
          "name": "fid",
          "type": "uint256"
        }
      ],
      "payable": false,
      "stateMutability": "view",
      "type": "function"
    },
    {
      "constant": false,
      "inputs": [
        {
          "name": "_userAddress",
          "type": "address"
        },
        {
          "name": "_userName",
          "type": "string"
        },
        {
          "name": "_karma",
          "type": "uint256"
        }
      ],
      "name": "addUserToForum",
      "outputs": [
        {
          "name": "success",
          "type": "bool"
        }
      ],
      "payable": false,
      "stateMutability": "nonpayable",
      "type": "function"
    },
    {
      "constant": false,
      "inputs": [
        {
          "name": "_karma",
          "type": "uint256"
        },
        {
          "name": "_userAddress",
          "type": "address"
        }
      ],
      "name": "setKarma",
      "outputs": [
        {
          "name": "succ",
          "type": "bool"
        }
      ],
      "payable": false,
      "stateMutability": "nonpayable",
      "type": "function"
    },
    {
      "constant": true,
      "inputs": [
        {
          "name": "_userAddress",
          "type": "address"
        }
      ],
      "name": "getUserByAddress",
      "outputs": [
        {
          "name": "usrAddress",
          "type": "address"
        },
        {
          "name": "usrName",
          "type": "string"
        },
        {
          "name": "usrKarma",
          "type": "uint256"
        }
      ],
      "payable": false,
      "stateMutability": "view",
      "type": "function"
    },
    {
      "constant": true,
      "inputs": [
        {
          "name": "_ucount",
          "type": "uint256"
        }
      ],
      "name": "getUserByIndex",
      "outputs": [
        {
          "name": "usrAddress",
          "type": "address"
        },
        {
          "name": "usrName",
          "type": "string"
        },
        {
          "name": "usrKarma",
          "type": "uint256"
        }
      ],
      "payable": false,
      "stateMutability": "view",
      "type": "function"
    },
    {
      "constant": true,
      "inputs": [],
      "name": "getUserCount",
      "outputs": [
        {
          "name": "_ucount",
          "type": "uint256"
        }
      ],
      "payable": false,
      "stateMutability": "view",
      "type": "function"
    },
    {
      "constant": true,
      "inputs": [
        {
          "name": "_fid",
          "type": "uint256"
        }
      ],
      "name": "getMyInfo",
      "outputs": [
        {
          "name": "_fID",
          "type": "uint256"
        },
        {
          "name": "_forumAddress",
          "type": "address"
        },
        {
          "name": "_myAddress",
          "type": "address"
        },
        {
          "name": "_userName",
          "type": "string"
        },
        {
          "name": "_karma",
          "type": "uint256"
        }
      ],
      "payable": false,
      "stateMutability": "view",
      "type": "function"
    },
    {
      "constant": true,
      "inputs": [
        {
          "name": "_admin",
          "type": "address"
        }
      ],
      "name": "getMyInfo",
      "outputs": [
        {
          "name": "_fID",
          "type": "uint256"
        },
        {
          "name": "_forumAddress",
          "type": "address"
        },
        {
          "name": "_myAddress",
          "type": "address"
        },
        {
          "name": "_userName",
          "type": "string"
        },
        {
          "name": "_karma",
          "type": "uint256"
        }
      ],
      "payable": false,
      "stateMutability": "view",
      "type": "function"
    },
    {
      "constant": true,
      "inputs": [
        {
          "name": "_fid",
          "type": "uint256"
        }
      ],
      "name": "getMemberStatus",
      "outputs": [
        {
          "name": "success",
          "type": "bool"
        }
      ],
      "payable": false,
      "stateMutability": "view",
      "type": "function"
    },
    {
      "constant": true,
      "inputs": [
        {
          "name": "_forum",
          "type": "address"
        }
      ],
      "name": "accForumKarma",
      "outputs": [
        {
          "name": "",
          "type": "uint256"
        }
      ],
      "payable": false,
      "stateMutability": "view",
      "type": "function"
    },
    {
      "constant": true,
      "inputs": [
        {
          "name": "_forum",
          "type": "address"
        }
      ],
      "name": "getCheckOutPrice",
      "outputs": [
        {
          "name": "_res",
          "type": "uint256"
        }
      ],
      "payable": false,
      "stateMutability": "view",
      "type": "function"
    },
    {
      "constant": false,
      "inputs": [
        {
          "name": "_forum",
          "type": "address"
        }
      ],
      "name": "checkOut",
      "outputs": [
        {
          "name": "_succ",
          "type": "bool"
        }
      ],
      "payable": false,
      "stateMutability": "nonpayable",
      "type": "function"
    }
  ],
  "bytecode": "0x60806040523480156200001157600080fd5b506040516200228238038062002282833981018060405260808110156200003757600080fd5b8151602083018051919392830192916401000000008111156200005957600080fd5b820160208101848111156200006d57600080fd5b81516401000000008111828201871017156200008857600080fd5b50506020820151604090920180519194929391640100000000811115620000ae57600080fd5b82016020810184811115620000c257600080fd5b8151640100000000811182820187101715620000dd57600080fd5b505033600090815260016020908152604082208990559088905586519194506200010f93506003925086019062000145565b506004805460ff191660ff841617905580516200013490600590602084019062000145565b5050600160085550620001ea915050565b828054600181600116156101000203166002900490600052602060002090601f016020900481019282601f106200018857805160ff1916838001178555620001b8565b82800160010185558215620001b8579182015b82811115620001b85782518255916020019190600101906200019b565b50620001c6929150620001ca565b5090565b620001e791905b80821115620001c65760008155600101620001d1565b90565b61208880620001fa6000396000f3fe6080604052600436106101535763ffffffff7c010000000000000000000000000000000000000000000000000000000060003504166301b14278811461015857806306fdde031461023a578063095ea7b3146102c45780630a32bf361461031157806318160ddd1461034457806323b872dd1461036b57806327e235e3146103ae578063313ce567146103e157806342382b821461040c5780635c6581651461044557806369c212f61461048057806370a082311461054157806378f46998146105745780637d0d719b146105a75780638326099c146105d157806383d3f6b7146106045780638d23caa01461061957806395d89b411461064c578063a232e64b14610661578063a9059cbb14610714578063b5cb15f71461074d578063bcb1a32514610762578063c44782c814610795578063d341cad11461085a578063dd62ed3e14610884578063ff5d32fe146108bf575b600080fd5b34801561016457600080fd5b506101826004803603602081101561017b57600080fd5b50356108e9565b6040518086815260200185600160a060020a0316600160a060020a0316815260200184600160a060020a0316600160a060020a0316815260200180602001838152602001828103825284818151815260200191508051906020019080838360005b838110156101fb5781810151838201526020016101e3565b50505050905090810190601f1680156102285780820380516001836020036101000a031916815260200191505b50965050505050505060405180910390f35b34801561024657600080fd5b5061024f610a0e565b6040805160208082528351818301528351919283929083019185019080838360005b83811015610289578181015183820152602001610271565b50505050905090810190601f1680156102b65780820380516001836020036101000a031916815260200191505b509250505060405180910390f35b3480156102d057600080fd5b506102fd600480360360408110156102e757600080fd5b50600160a060020a038135169060200135610a9c565b604080519115158252519081900360200190f35b34801561031d57600080fd5b506101826004803603602081101561033457600080fd5b5035600160a060020a0316610b03565b34801561035057600080fd5b50610359610c15565b60408051918252519081900360200190f35b34801561037757600080fd5b506102fd6004803603606081101561038e57600080fd5b50600160a060020a03813581169160208101359091169060400135610c1b565b3480156103ba57600080fd5b50610359600480360360208110156103d157600080fd5b5035600160a060020a0316610d21565b3480156103ed57600080fd5b506103f6610d33565b6040805160ff9092168252519081900360200190f35b34801561041857600080fd5b506102fd6004803603604081101561042f57600080fd5b5080359060200135600160a060020a0316610d3c565b34801561045157600080fd5b506103596004803603604081101561046857600080fd5b50600160a060020a0381358116916020013516610dd8565b34801561048c57600080fd5b506104b3600480360360208110156104a357600080fd5b5035600160a060020a0316610df5565b60408051600160a060020a0385168152908101829052606060208083018281528551928401929092528451608084019186019080838360005b838110156105045781810151838201526020016104ec565b50505050905090810190601f1680156105315780820380516001836020036101000a031916815260200191505b5094505050505060405180910390f35b34801561054d57600080fd5b506103596004803603602081101561056457600080fd5b5035600160a060020a0316611035565b34801561058057600080fd5b506104b36004803603602081101561059757600080fd5b5035600160a060020a0316611054565b3480156105b357600080fd5b506102fd600480360360208110156105ca57600080fd5b50356111ab565b3480156105dd57600080fd5b50610359600480360360208110156105f457600080fd5b5035600160a060020a03166111e0565b34801561061057600080fd5b50610359611240565b34801561062557600080fd5b506102fd6004803603602081101561063c57600080fd5b5035600160a060020a031661124b565b34801561065857600080fd5b5061024f6112d8565b34801561066d57600080fd5b506102fd6004803603602081101561068457600080fd5b81019060208101813564010000000081111561069f57600080fd5b8201836020820111156106b157600080fd5b803590602001918460018302840111640100000000831117156106d357600080fd5b91908080601f016020809104026020016040519081016040528093929190818152602001838380828437600092019190915250929550611333945050505050565b34801561072057600080fd5b506102fd6004803603604081101561073757600080fd5b50600160a060020a03813516906020013561162b565b34801561075957600080fd5b506103596116b5565b34801561076e57600080fd5b506103596004803603602081101561078557600080fd5b5035600160a060020a03166116cb565b3480156107a157600080fd5b506102fd600480360360608110156107b857600080fd5b600160a060020a0382351691908101906040810160208201356401000000008111156107e357600080fd5b8201836020820111156107f557600080fd5b8035906020019184600183028401116401000000008311171561081757600080fd5b91908080601f0160208091040260200160405190810160405280939291908181526020018383808284376000920191909152509295505091359250611734915050565b34801561086657600080fd5b506104b36004803603602081101561087d57600080fd5b5035611c44565b34801561089057600080fd5b50610359600480360360408110156108a757600080fd5b50600160a060020a0381358116916020013516611da5565b3480156108cb57600080fd5b506104b3600480360360208110156108e257600080fd5b5035611dd0565b600081815260076020908152604080832054600160a060020a0316808452600683528184203385526005810184528285205480865260049091018452828520600190810180548551600261010094831615949094026000190190911692909204601f8101879004870283018701909552848252869586956060958795909490938793919290918301828280156109c05780601f10610995576101008083540402835291602001916109c0565b820191906000526020600020905b8154815290600101906020018083116109a357829003601f168201915b50505050600160a060020a038516600081815260066020818152604080842098845260048901825283206002908101549490935252909401549b949a50339950909750919550919350505050565b6003805460408051602060026001851615610100026000190190941693909304601f81018490048402820184019092528181529291830182828015610a945780601f10610a6957610100808354040283529160200191610a94565b820191906000526020600020905b815481529060010190602001808311610a7757829003601f168201915b505050505081565b336000818152600260209081526040808320600160a060020a038716808552908352818420869055815186815291519394909390927f8c5be1e5ebec7d5bd14f71427d1e84f3dd0314c0f7b2291e5b200ac8c7c3b925928290030190a35060015b92915050565b600160a060020a03811660009081526006602090815260408083203384526005810183528184205480855260049091018352818420600190810180548451600293821615610100026000190190911692909204601f81018690048602830186019094528382528594859460609486949093869391929091830182828015610bcb5780601f10610ba057610100808354040283529160200191610bcb565b820191906000526020600020905b815481529060010190602001808311610bae57829003601f168201915b50505050600160a060020a038a16600081815260066020818152604080842098845260048901825283206002908101549490935252909401549a3399509197509295509350505050565b60005481565b600160a060020a038316600081815260026020908152604080832033845282528083205493835260019091528120549091908311801590610c5c5750828110155b1515610c6757600080fd5b600160a060020a0380851660009081526001602052604080822080548701905591871681522080548490039055600019811015610cc957600160a060020a03851660009081526002602090815260408083203384529091529020805484900390555b83600160a060020a031685600160a060020a03167fddf252ad1be2c89b69c2b068fc378daa952ba7f163c4a11628f55a4df523b3ef856040518082815260200191505060405180910390a360019150505b9392505050565b60016020526000908152604090205481565b60045460ff1681565b33600090815260066020526040812054600160a060020a03161515610d6357506000610afd565b336000908152600660208181526040808420600160a060020a0387168552909201905290205460ff161515610d9a57506000610afd565b50336000908152600660209081526040808320600160a060020a03949094168352600584018252808320548352600490930190522060020155600190565b600260209081526000928352604080842090915290825290205481565b336000908152600660205260408120546060908290600160a060020a03161515610e8f576040805160e560020a62461bcd02815260206004820152602160248201527f596f75206e65656420746f20637265617465206120666f72756d20666972737460448201527f2e00000000000000000000000000000000000000000000000000000000000000606482015290519081900360840190fd5b336000908152600660208181526040808420600160a060020a0389168552909201905290205460ff161515610f34576040805160e560020a62461bcd02815260206004820152602860248201527f54686973207573657220646f6573206e6f742065786973747320696e20796f7560448201527f7220666f72756d2e000000000000000000000000000000000000000000000000606482015290519081900360840190fd5b336000908152600660209081526040808320600160a060020a0388811685526005820184528285205480865260049092018452938290208054600191820180548551600261010095831615959095026000190190911693909304601f81018790048702840187019095528483529295169360609391929190830182828015610ffd5780601f10610fd257610100808354040283529160200191610ffd565b820191906000526020600020905b815481529060010190602001808311610fe057829003601f168201915b5050336000908152600660209081526040808320998352600490990190529690962060020154949a9299509397509095505050505050565b600160a060020a0381166000908152600160205260409020545b919050565b33600090815260096020526040812054606090829015156110bf576040805160e560020a62461bcd02815260206004820152601660248201527f466f72756d20646f6573206e6f74206578697374732e00000000000000000000604482015290519081900360640190fd5b60606006600086600160a060020a0316600160a060020a031681526020019081526020016000206001018054600181600116156101000203166002900480601f01602080910402602001604051908101604052809291908181526020018280546001816001161561010002031660029004801561117d5780601f106111525761010080835404028352916020019161117d565b820191906000526020600020905b81548152906001019060200180831161116057829003601f168201915b50505050600160a060020a038716600090815260066020526040902060020154969791969550909350505050565b600090815260076020908152604080832054600160a060020a0316835260068083528184203385520190915290205460ff1690565b6000806111ec836116cb565b905060006111f984611035565b9050811580611206575080155b156112165760009250505061104f565b6000828281151561122357fe5b06905060008382840381151561123557fe5b049695505050505050565b600854600019015b90565b600080611257836111e0565b905080151561126a57600091505061104f565b600160a060020a039290921660008181526006602090815260408083203380855260058201845282852054808652600490920180855283862060020180549787526001808752858820805499909b0298899003909a5591865292852080549096019095558352905290555090565b6005805460408051602060026001851615610100026000190190941693909304601f81018490048402820184019092528181529291830182828015610a945780601f10610a6957610100808354040283529160200191610a94565b336000908152600660209081526040808320600201546009909252822054811580159061135f57508082145b156113b4576040805160e560020a62461bcd02815260206004820152601860248201527f596f7520616c7265616479206f776e206120666f72756d2e0000000000000000604482015290519081900360640190fd5b604080516080810182523380825260208083018881526008548486015260006060850181905292835260068252939091208251815473ffffffffffffffffffffffffffffffffffffffff1916600160a060020a03909116178155925180519293926114259260018501920190611fa4565b506040828101516002830155606092830151600390920191909155805191820181523380835260208084018881526000858501819052928352600682528383208380526004018252929091208351815473ffffffffffffffffffffffffffffffffffffffff1916600160a060020a03909116178155915180516114ae9260018501920190611fa4565b50604091820151600290910155336000818152600660208181528483209182018152848320805460ff1916600190811790915560058301825285842084905560039092018054830190556008805460098352868520819055845260078252858420805473ffffffffffffffffffffffffffffffffffffffff191686179055805483019081905585518381529586018590526080860181905260a0868301818152601c918801919091527f466f72756d2063726561746564207375636365737366756c6c7921200000000060c088015260e0606088018181528c51918901919091528b517f360973aa1f412aaed0aa70236cd0568063c3fd881fa2d2b695ff1d2b205cc916989597968d969495610100860192908801918190849084905b838110156115e35781810151838201526020016115cb565b50505050905090810190601f1680156116105780820380516001836020036101000a031916815260200191505b50965050505050505060405180910390a15060019392505050565b3360009081526001602052604081205482111561164757600080fd5b33600081815260016020908152604080832080548790039055600160a060020a03871680845292819020805487019055805186815290519293927fddf252ad1be2c89b69c2b068fc378daa952ba7f163c4a11628f55a4df523b3ef929181900390910190a350600192915050565b3360009081526006602052604090206003015490565b600160a060020a03811660009081526006602052604081206003015460010181805b8281101561172c57600160a060020a038516600090815260066020908152604080832084845260040190915290206002015491909101906001016116ed565b509392505050565b336000818152600660205260408120549091600160a060020a039091161461186b5760008051602061203d8339815191526000858560405180841515151581526020018060200184600160a060020a0316600160a060020a0316815260200180602001838103835260228152602001807f596f75206e65656420746f20637265617465206120666f72756d20666972737481526020017f2e20000000000000000000000000000000000000000000000000000000000000815250604001838103825284818151815260200191508051906020019080838360005b8381101561182657818101518382015260200161180e565b50505050905090810190601f1680156118535780820380516001836020036101000a031916815260200191505b509550505050505060405180910390a1506000610d1a565b336000908152600660208181526040808420600160a060020a0389168552909201905290205460ff161515600114156119475760008051602061203d8339815191526000858560405180841515151581526020018060200184600160a060020a0316600160a060020a0316815260200180602001838103835260158152602001807f5573657220616c7265616479206578697374732e200000000000000000000000815250602001838103825284818151815260200191508051906020019080838360008381101561182657818101518382015260200161180e565b336000908152600660208181526040808420600160a060020a0389168552909201905290205460ff161515611b2d573360009081526006602090815260408083206003810180546001908101918290558351606081018552600160a060020a038b811682528187018b81528287018b905284895260049095018752949096208651815473ffffffffffffffffffffffffffffffffffffffff19169516949094178455915180519195946119ff93850192910190611fa4565b506040918201516002919091015533600090815260066020818152838320600160a060020a038a168085529281018252848420805460ff19166001908117909155600590910182528484208690558451818152948501929092526080848201818152601b918601919091527f4d656d626572206164646564207375636365737366756c6c792e20000000000060a086015260c0606086018181528a5191870191909152895160008051602061203d8339815191529694958c958c959094939260e0860192918701918190849084905b83811015611ae6578181015183820152602001611ace565b50505050905090810190601f168015611b135780820380516001836020036101000a031916815260200191505b509550505050505060405180910390a16001915050610d1a565b60008051602061203d8339815191526000858560405180841515151581526020018060200184600160a060020a0316600160a060020a0316815260200180602001838103835260388152602001807f536f6d657468696e672077656e742077726f6e672e2054686973206572726f7281526020017f2069732077656972642c20646f20796f75207375636b3f200000000000000000815250604001838103825284818151815260200191508051906020019080838360005b83811015611bfd578181015183820152602001611be5565b50505050905090810190601f168015611c2a5780820380516001836020036101000a031916815260200191505b509550505050505060405180910390a15060009392505050565b6000818152600760205260408120546060908290600160a060020a0316801515611cb8576040805160e560020a62461bcd02815260206004820152601660248201527f466f72756d20646f6573206e6f74206578697374732e00000000000000000000604482015290519081900360640190fd5b60606006600083600160a060020a0316600160a060020a031681526020019081526020016000206001018054600181600116156101000203166002900480601f016020809104026020016040519081016040528092919081815260200182805460018160011615610100020316600290048015611d765780601f10611d4b57610100808354040283529160200191611d76565b820191906000526020600020905b815481529060010190602001808311611d5957829003601f168201915b50505050600160a060020a03841660009081526006602052604090206002015493989197509295509350505050565b600160a060020a03918216600090815260026020908152604080832093909416825291909152205490565b336000908152600660205260408120546060908290600160a060020a03161515611e44576040805160e560020a62461bcd02815260206004820181905260248201527f596f75206e65656420746f20637265617465206120666f72756d206669727374604482015290519081900360640190fd5b33600090815260066020526040902060030154841180611e645750600084105b15611eb9576040805160e560020a62461bcd02815260206004820152601960248201527f54686973207573657220646f6573206e6f742065786973747300000000000000604482015290519081900360640190fd5b3360009081526006602090815260408083208784526004018252918290208054600191820180548551600261010095831615959095026000190190911693909304601f8101859004850284018501909552848352600160a060020a0390911693606093830182828015611f6d5780601f10611f4257610100808354040283529160200191611f6d565b820191906000526020600020905b815481529060010190602001808311611f5057829003601f168201915b50503360009081526006602090815260408083208d8452600401909152902060020154959850929650939450505050509193909250565b828054600181600116156101000203166002900490600052602060002090601f016020900481019282601f10611fe557805160ff1916838001178555612012565b82800160010185558215612012579182015b82811115612012578251825591602001919060010190611ff7565b5061201e929150612022565b5090565b61124891905b8082111561201e576000815560010161202856fe4e2ccda530823d156bb2b039daef610f40c3abcd9ad3dc2b8d5d7b84e27c400ba165627a7a7230582001ad7fe5c3b93a3c5a4a24d20b03efc9bb8750538a8ec46334274e93a6273a930029",
  "source": "/*\nImplements EIP20 token standard: https://github.com/ethereum/EIPs/blob/master/EIPS/eip-20.md\n.*/\n\n\npragma solidity ^0.5.0;\n\nimport \"./EIP20Interface.sol\";\n\n\ncontract Forum is EIP20Interface {\n    // The coin\n    uint256 constant private MAX_UINT256 = 2**256 - 1;\n    mapping (address => uint256) public balances;\n    mapping (address => mapping (address => uint256)) public allowed;\n\n    string public name;\n    uint8 public decimals;\n    string public symbol;\n\n    // Forum\n    mapping (address => forumData) private forums;    // An address can hold a forum\n    mapping (uint => address) private fidOwner;       // A forumID (fid) is mapped to an owner of a forum with this fid.\n    uint256 private forumId;                          // Increments when a new forum is created\n    mapping (address => uint256) addressForumId;\n\n    struct forumData{\n      address owner;\n      string forumName;\n      uint256 fid;\n      uint256 userCount;\n      mapping(uint256 => userData) users;\n      mapping(address => uint256) userKey; //Equal to next userCount.\n      mapping(address => bool) userExists;\n    }\n\n    struct userData{\n      address userAddress;\n      string userName;\n      uint256 karma;\n      }\n\n    constructor (\n        uint256 _initialAmount,\n        string memory _tokenName,\n        uint8 _decimalUnits,\n        string memory _tokenSymbol\n    ) public {\n        balances[msg.sender] = _initialAmount;\n        totalSupply = _initialAmount;\n        name = _tokenName;\n        decimals = _decimalUnits;\n        symbol = _tokenSymbol;\n        forumId = 1;\n    }\n\n    // Coin functions...\n    function transfer(address _to, uint256 _value) public returns (bool success) {\n        require(balances[msg.sender] >= _value);\n        balances[msg.sender] -= _value;\n        balances[_to] += _value;\n        emit Transfer(msg.sender, _to, _value); //solhint-disable-line indent, no-unused-vars\n        return true;\n    }\n\n    function transferFrom(address _from, address _to, uint256 _value) public returns (bool success) {\n        uint256 allowance = allowed[_from][msg.sender];\n        require(balances[_from] >= _value && allowance >= _value);\n        balances[_to] += _value;\n        balances[_from] -= _value;\n        if (allowance < MAX_UINT256) {\n            allowed[_from][msg.sender] -= _value;\n        }\n        emit Transfer(_from, _to, _value); //solhint-disable-line indent, no-unused-vars\n        return true;\n    }\n\n    function balanceOf(address _owner) public view returns (uint256 balance) {\n        return balances[_owner];\n    }\n\n    function approve(address _spender, uint256 _value) public returns (bool success) {\n        allowed[msg.sender][_spender] = _value;\n        emit Approval(msg.sender, _spender, _value); //solhint-disable-line indent, no-unused-vars\n        return true;\n    }\n\n    function allowance(address _owner, address _spender) public view returns (uint256 remaining) {\n        return allowed[_owner][_spender];\n    }\n    // .. end of coin functions\n\n\n\n\n\n\n    // Forum functions...\n\n    function createForum(string memory _fname) public returns (bool success){\n      uint256 a = forums[msg.sender].fid;\n      uint256 b = addressForumId[msg.sender];\n      if((a != 0) && (a == b)){\n        revert(\"You already own a forum.\");\n      }\n      forums[msg.sender] = forumData(msg.sender, _fname, forumId, 0);\n      forums[msg.sender].users[0] = userData(msg.sender, _fname, 0);\n      forums[msg.sender].userExists[msg.sender] = true;\n      forums[msg.sender].userKey[msg.sender] = 0;\n      forums[msg.sender].userCount ++;\n      addressForumId[msg.sender] = forumId;\n      fidOwner[forumId] = msg.sender;\n      forumId = forumId + 1;\n      //myForums[msg.sender].push(msg.sender);\n      emit CreateForum(true, \"Forum created successfully! \", msg.sender, _fname, forumId);\n      return (true);\n    }\n\n    function getForumCount() public view returns (uint256 id){\n      return (forumId-1);\n    }\n\n    function getForumDataByFid(uint256 _fid) public view returns (address forumOwner, string memory forumName, uint256 fid){\n      address owner = fidOwner[_fid];\n      if(owner == address(0x0))\n        revert(\"Forum does not exists.\");\n      string memory fName = forums[owner].forumName;\n      uint256 id = forums[owner].fid;\n      return(owner, fName, id);\n    }\n\n    function getForumData(address _owner) public view returns (address forumOwner, string memory forumName, uint256 fid){\n      if(addressForumId[msg.sender] == 0){\n        revert(\"Forum does not exists.\");\n      }\n      string memory fName = forums[_owner].forumName;\n      uint256 id = forums[_owner].fid;\n      return(_owner, fName, id);\n    }\n\n    function addUserToForum(address _userAddress, string memory _userName, uint256 _karma) public returns (bool success){\n      if(forums[msg.sender].owner != msg.sender){\n        emit AddUserToForum(false, \"You need to create a forum first. \", _userAddress, _userName);\n        return (false);\n      }\n      if(forums[msg.sender].userExists[_userAddress] == true){\n        emit AddUserToForum(false, \"User already exists. \", _userAddress,  _userName);\n        return (false);\n      }\n      if(!forums[msg.sender].userExists[_userAddress]){\n        forums[msg.sender].userCount++;\n        uint256 newUserCount = forums[msg.sender].userCount;\n        forums[msg.sender].users[newUserCount] = userData(_userAddress, _userName, _karma);\n        forums[msg.sender].userExists[_userAddress] = true;\n        forums[msg.sender].userKey[_userAddress] = newUserCount;\n      //  myForums[_userAddress].push(msg.sender);\n        emit AddUserToForum(true, \"Member added successfully. \", _userAddress, _userName);\n        return (true);\n\n      }\n      emit AddUserToForum(false, \"Something went wrong. This error is weird, do you suck? \", _userAddress, _userName);\n      return (false);\n    }\n\n    function setKarma(uint256 _karma, address _userAddress) public returns (bool succ){\n      if(forums[msg.sender].owner == address(0x0)){\n        return false;\n      }\n      if(!forums[msg.sender].userExists[_userAddress]){\n        return false;\n      }\n      uint256 ukey = forums[msg.sender].userKey[_userAddress];\n      forums[msg.sender].users[ukey].karma = _karma;\n      return true;\n    }\n\n    function getUserByAddress(address _userAddress) public view returns (address usrAddress, string memory usrName, uint256 usrKarma) {\n        if(forums[msg.sender].owner == address(0x0)){\n          revert(\"You need to create a forum first.\");\n        }\n        if(!forums[msg.sender].userExists[_userAddress]){\n          revert(\"This user does not exists in your forum.\");\n        }\n        uint256 uKey = forums[msg.sender].userKey[_userAddress];\n        address uaddress = forums[msg.sender].users[uKey].userAddress;\n        string memory uname = forums[msg.sender].users[uKey].userName;\n        uint256 ukarma = forums[msg.sender].users[uKey].karma;\n        return (uaddress, uname, ukarma);\n    }\n\n    function getUserByIndex(uint256 _ucount) public view returns (address usrAddress, string memory usrName, uint256 usrKarma){\n      if(forums[msg.sender].owner == address(0x0)){\n        revert(\"You need to create a forum first\");\n      }\n\n      if((forums[msg.sender].userCount < _ucount ) || _ucount < 0){\n        revert(\"This user does not exists\");\n      }\n      address uaddress = forums[msg.sender].users[_ucount].userAddress;\n      string memory uname = forums[msg.sender].users[_ucount].userName;\n      uint256 ukarma = forums[msg.sender].users[_ucount].karma;\n      return (uaddress, uname, ukarma);\n      }\n\n\n    function getUserCount() public view returns (uint256 _ucount){\n      return forums[msg.sender].userCount;\n    }\n\n    function getMyInfo(address _admin) public view returns (uint256 _fID, address _forumAddress, address _myAddress, string memory _userName, uint256 _karma) {\n      uint256 key = forums[_admin].userKey[msg.sender];\n      string memory uname = forums[_admin].users[key].userName;\n      uint256 karma = forums[_admin].users[key].karma;\n      uint256 fid = forums[_admin].fid;\n      return (fid, _admin, msg.sender, uname, karma);\n    }\n\n    function getMyInfo(uint256 _fid) public view returns (uint256 _fID, address _forumAddress, address _myAddress, string memory _userName, uint256 _karma) {\n      address admin = fidOwner[_fid];\n      uint256 key = forums[admin].userKey[msg.sender];\n      string memory uname = forums[admin].users[key].userName;\n      uint256 karma = forums[admin].users[key].karma;\n      uint256 fid = forums[admin].fid;\n      return (fid, admin, msg.sender, uname, karma);\n    }\n\n    function getMemberStatus(uint256 _fid) public view returns (bool success){\n      address admin = fidOwner[_fid];\n      return forums[admin].userExists[msg.sender];\n    }\n\n    function accForumKarma(address _forum) public view returns (uint256) {\n      uint256 numUsers = forums[_forum].userCount +1;\n      uint256 accKarma = 0;\n      for(uint256 i = 0; i<numUsers; i++){\n        accKarma += forums[_forum].users[i].karma;\n      }\n      return accKarma;\n    }\n\n    function getCheckOutPrice(address _forum) public view returns (uint256 _res){\n      uint256 totKarma = accForumKarma(_forum);\n      uint256 bal = balanceOf(_forum);\n      if(totKarma == 0 || bal == 0) return 0;\n      uint256 rest = bal % totKarma;\n      uint256 res = (bal-rest)/totKarma;\n      return res;\n    }\n\n    function checkOut(address _forum) public returns (bool _succ){\n      uint256 val = getCheckOutPrice(_forum);\n      if (val == 0) return false;\n      uint256 myKey = forums[_forum].userKey[msg.sender];\n      uint256 myKarma = forums[_forum].users[myKey].karma;\n      balances[_forum] -= myKarma*val;\n      balances[msg.sender] += myKarma*val;\n      forums[_forum].users[myKey].karma = 0;\n      return true;\n    }\n\n    event Succ(bool success);\n    event AddUserToForum(bool succ, string info, address _userAddress, string _userName);\n    event CreateForum(bool succ, string info, address self, string fname, uint256 fid);\n}\n",
  "sourcePath": "/home/uhrej/Git/Exjobb/SaviourCoin/MainApplication/contracts/Forum.sol",
  "compiler": {
    "name": "solc",
    "version": "0.5.0+commit.1d4f565a.Emscripten.clang"
  },
  "schemaVersion": "3.0.1",
  "updatedAt": "2020-05-16T20:20:23.707Z",
  "devdoc": {
    "methods": {}
  },
  "userdoc": {
    "methods": {}
  }
}