{
  "contractName": "Forum",
  "abi": [
    {
      "inputs": [],
      "payable": false,
      "stateMutability": "nonpayable",
      "type": "constructor",
      "signature": "constructor"
    },
    {
      "anonymous": false,
      "inputs": [
        {
          "indexed": false,
          "name": "_success",
          "type": "bool"
        },
        {
          "indexed": false,
          "name": "_userAddress",
          "type": "address"
        },
        {
          "indexed": false,
          "name": "_userName",
          "type": "string"
        },
        {
          "indexed": false,
          "name": "_karma",
          "type": "uint256"
        }
      ],
      "name": "AddUserToForum",
      "type": "event",
      "signature": "0x659a65e46a5208d5d8b8e7dc92da715ace2ff27bd9793a9ce4f670f651f967b7"
    },
    {
      "constant": false,
      "inputs": [
        {
          "name": "_userAddress",
          "type": "address"
        },
        {
          "name": "_userName",
          "type": "string"
        },
        {
          "name": "_karma",
          "type": "uint256"
        }
      ],
      "name": "addUserToForum",
      "outputs": [
        {
          "name": "success",
          "type": "bool"
        }
      ],
      "payable": false,
      "stateMutability": "nonpayable",
      "type": "function",
      "signature": "0xc44782c8"
    },
    {
      "constant": true,
      "inputs": [
        {
          "name": "_userAddress",
          "type": "address"
        }
      ],
      "name": "getUserData",
      "outputs": [
        {
          "name": "_address",
          "type": "address"
        },
        {
          "name": "_userinfo",
          "type": "string"
        },
        {
          "name": "_karma",
          "type": "uint256"
        }
      ],
      "payable": false,
      "stateMutability": "view",
      "type": "function",
      "signature": "0xffc9896b"
    }
  ],
  "bytecode": "0x608060405234801561001057600080fd5b50610634806100206000396000f3fe60806040526004361061004b5763ffffffff7c0100000000000000000000000000000000000000000000000000000000600035041663c44782c88114610050578063ffc9896b14610129575b600080fd5b34801561005c57600080fd5b506101156004803603606081101561007357600080fd5b600160a060020a03823516919081019060408101602082013564010000000081111561009e57600080fd5b8201836020820111156100b057600080fd5b803590602001918460018302840111640100000000831117156100d257600080fd5b91908080601f01602080910402602001604051908101604052809392919081815260200183838082843760009201919091525092955050913592506101ea915050565b604080519115158252519081900360200190f35b34801561013557600080fd5b5061015c6004803603602081101561014c57600080fd5b5035600160a060020a031661044f565b60408051600160a060020a0385168152908101829052606060208083018281528551928401929092528451608084019186019080838360005b838110156101ad578181015183820152602001610195565b50505050905090810190601f1680156101da5780820380516001836020036101000a031916815260200191505b5094505050505060405180910390f35b60006101f4610542565b5060408051606081018252600160a060020a0380871680835260208084018890528385018790523360009081528082528581209281529190529290922054909116151561037a5733600090815260208181526040808320600160a060020a03898116855290835292208351815473ffffffffffffffffffffffffffffffffffffffff1916931692909217825582810151805184939261029a92600185019291019061056d565b50604082015181600201559050507f659a65e46a5208d5d8b8e7dc92da715ace2ff27bd9793a9ce4f670f651f967b76001868686604051808515151515815260200184600160a060020a0316600160a060020a0316815260200180602001838152602001828103825284818151815260200191508051906020019080838360005b8381101561033357818101518382015260200161031b565b50505050905090810190601f1680156103605780820380516001836020036101000a031916815260200191505b509550505050505060405180910390a16001915050610448565b7f659a65e46a5208d5d8b8e7dc92da715ace2ff27bd9793a9ce4f670f651f967b76000868686604051808515151515815260200184600160a060020a0316600160a060020a0316815260200180602001838152602001828103825284818151815260200191508051906020019080838360005b838110156104055781810151838201526020016103ed565b50505050905090810190601f1680156104325780820380516001836020036101000a031916815260200191505b509550505050505060405180910390a160009150505b9392505050565b33600090815260208181526040808320600160a060020a0385811685529083528184208054600191820180548551600261010095831615959095026000190190911693909304601f810187900487028401870190955284835260609587959290941693869392908301828280156105075780601f106104dc57610100808354040283529160200191610507565b820191906000526020600020905b8154815290600101906020018083116104ea57829003601f168201915b505033600090815260208181526040808320600160a060020a038e168452909152902060020154959850929650939450505050509193909250565b6060604051908101604052806000600160a060020a0316815260200160608152602001600081525090565b828054600181600116156101000203166002900490600052602060002090601f016020900481019282601f106105ae57805160ff19168380011785556105db565b828001600101855582156105db579182015b828111156105db5782518255916020019190600101906105c0565b506105e79291506105eb565b5090565b61060591905b808211156105e757600081556001016105f1565b9056fea165627a7a7230582075a77316164d9376d244b8c0bb25acef8d5d526d7c23a17af6077892a0813e650029",
  "source": "/*\nImplements EIP20 token standard: https://github.com/ethereum/EIPs/blob/master/EIPS/eip-20.md\n.*/\n\n\npragma solidity ^0.5.0;\n\n\ncontract Forum {\n\n  mapping (address => mapping (address => userData)) private forumUsers;\n\n    struct userData{\n      address userAddress;\n      string userName;\n      uint256 karma;\n    }\n\n    constructor () public {\n    }\n\n    function addUserToForum(address _userAddress, string memory _userName, uint256 _karma) public returns (bool success){\n      userData memory newMember = userData(_userAddress, _userName, _karma);\n      if(forumUsers[msg.sender][_userAddress].userAddress == address(0x0)){\n        forumUsers[msg.sender][_userAddress] = newMember;\n        emit AddUserToForum(true, _userAddress, _userName, _karma);\n        return true;\n      }\n      emit AddUserToForum(false, _userAddress, _userName, _karma);\n      return false;\n    }\n\n    function getUserData(address _userAddress) public view returns (address _address, string memory _userinfo, uint256 _karma) {\n        address uaddress = forumUsers[msg.sender][_userAddress].userAddress;\n        string memory uname = forumUsers[msg.sender][_userAddress].userName;\n        uint256 karm = forumUsers[msg.sender][_userAddress].karma;\n\n        return (uaddress, uname, karm);\n    }\n\n\n    event AddUserToForum(bool _success, address _userAddress, string _userName, uint256 _karma);\n\n}\n",
  "sourcePath": "/home/anton/Documents/Gitz/Exjobb/Exjobb/SaviourCoin/MainApplication/contracts/Forum.sol",
  "compiler": {
    "name": "solc",
    "version": "0.5.0+commit.1d4f565a.Emscripten.clang"
  },
  "schemaVersion": "3.0.2",
  "updatedAt": "2020-04-03T16:51:06.667Z",
  "devdoc": {
    "methods": {}
  },
  "userdoc": {
    "methods": {}
  }
}