{
  "contractName": "Forum",
  "abi": [
    {
      "inputs": [],
      "payable": false,
      "stateMutability": "nonpayable",
      "type": "constructor"
    },
    {
      "anonymous": false,
      "inputs": [
        {
          "indexed": false,
          "internalType": "bool",
          "name": "succ",
          "type": "bool"
        },
        {
          "indexed": false,
          "internalType": "string",
          "name": "info",
          "type": "string"
        },
        {
          "indexed": false,
          "internalType": "address",
          "name": "_userAddress",
          "type": "address"
        },
        {
          "indexed": false,
          "internalType": "string",
          "name": "_userName",
          "type": "string"
        }
      ],
      "name": "AddUserToForum",
      "type": "event"
    },
    {
      "anonymous": false,
      "inputs": [
        {
          "indexed": false,
          "internalType": "bool",
          "name": "succ",
          "type": "bool"
        },
        {
          "indexed": false,
          "internalType": "string",
          "name": "info",
          "type": "string"
        },
        {
          "indexed": false,
          "internalType": "address",
          "name": "self",
          "type": "address"
        },
        {
          "indexed": false,
          "internalType": "string",
          "name": "fname",
          "type": "string"
        },
        {
          "indexed": false,
          "internalType": "uint256",
          "name": "fid",
          "type": "uint256"
        }
      ],
      "name": "CreateForum",
      "type": "event"
    },
    {
      "anonymous": false,
      "inputs": [
        {
          "indexed": false,
          "internalType": "bool",
          "name": "success",
          "type": "bool"
        }
      ],
      "name": "Succ",
      "type": "event"
    },
    {
      "constant": false,
      "inputs": [
        {
          "internalType": "string",
          "name": "_fname",
          "type": "string"
        }
      ],
      "name": "createForum",
      "outputs": [
        {
          "internalType": "bool",
          "name": "success",
          "type": "bool"
        }
      ],
      "payable": false,
      "stateMutability": "nonpayable",
      "type": "function"
    },
    {
      "constant": true,
      "inputs": [],
      "name": "getForumCount",
      "outputs": [
        {
          "internalType": "uint256",
          "name": "id",
          "type": "uint256"
        }
      ],
      "payable": false,
      "stateMutability": "view",
      "type": "function"
    },
    {
      "constant": true,
      "inputs": [
        {
          "internalType": "address",
          "name": "_owner",
          "type": "address"
        }
      ],
      "name": "getForumData",
      "outputs": [
        {
          "internalType": "bool",
          "name": "succ",
          "type": "bool"
        },
        {
          "internalType": "address",
          "name": "Owner",
          "type": "address"
        },
        {
          "internalType": "string",
          "name": "Forum_Name",
          "type": "string"
        },
        {
          "internalType": "uint256",
          "name": "Forum_ID",
          "type": "uint256"
        }
      ],
      "payable": false,
      "stateMutability": "view",
      "type": "function"
    },
    {
      "constant": true,
      "inputs": [
        {
          "internalType": "uint256",
          "name": "_fid",
          "type": "uint256"
        }
      ],
      "name": "getForumData",
      "outputs": [
        {
          "internalType": "bool",
          "name": "succ",
          "type": "bool"
        },
        {
          "internalType": "address",
          "name": "Owner",
          "type": "address"
        },
        {
          "internalType": "string",
          "name": "Forum_Name",
          "type": "string"
        },
        {
          "internalType": "uint256",
          "name": "Forum_ID",
          "type": "uint256"
        }
      ],
      "payable": false,
      "stateMutability": "view",
      "type": "function"
    },
    {
      "constant": false,
      "inputs": [
        {
          "internalType": "address",
          "name": "_userAddress",
          "type": "address"
        },
        {
          "internalType": "string",
          "name": "_userName",
          "type": "string"
        },
        {
          "internalType": "uint256",
          "name": "_karma",
          "type": "uint256"
        }
      ],
      "name": "addUserToForum",
      "outputs": [
        {
          "internalType": "bool",
          "name": "success",
          "type": "bool"
        }
      ],
      "payable": false,
      "stateMutability": "nonpayable",
      "type": "function"
    },
    {
      "constant": true,
      "inputs": [
        {
          "internalType": "address",
          "name": "_userAddress",
          "type": "address"
        }
      ],
      "name": "getUserData",
      "outputs": [
        {
          "internalType": "bool",
          "name": "succ",
          "type": "bool"
        },
        {
          "internalType": "address",
          "name": "_address",
          "type": "address"
        },
        {
          "internalType": "string",
          "name": "_userinfo",
          "type": "string"
        },
        {
          "internalType": "uint256",
          "name": "_karma",
          "type": "uint256"
        }
      ],
      "payable": false,
      "stateMutability": "view",
      "type": "function"
    }
  ],
  "bytecode": "0x608060405234801561001057600080fd5b506001600355611139806100256000396000f3fe608060405234801561001057600080fd5b50600436106100625760003560e01c806378f469981461006757806383d3f6b714610130578063a232e64b1461014a578063bfb800c714610204578063c44782c814610221578063ffc9896b146102d9575b600080fd5b61008d6004803603602081101561007d57600080fd5b50356001600160a01b03166102ff565b6040518085151515158152602001846001600160a01b03166001600160a01b0316815260200180602001838152602001828103825284818151815260200191508051906020019080838360005b838110156100f25781810151838201526020016100da565b50505050905090810190601f16801561011f5780820380516001836020036101000a031916815260200191505b509550505050505060405180910390f35b610138610436565b60408051918252519081900360200190f35b6101f06004803603602081101561016057600080fd5b81019060208101813564010000000081111561017b57600080fd5b82018360208201111561018d57600080fd5b803590602001918460018302840111640100000000831117156101af57600080fd5b91908080601f01602080910402602001604051908101604052809392919081815260200183838082843760009201919091525092955061043d945050505050565b604080519115158252519081900360200190f35b61008d6004803603602081101561021a57600080fd5b50356107d0565b6101f06004803603606081101561023757600080fd5b6001600160a01b03823516919081019060408101602082013564010000000081111561026257600080fd5b82018360208201111561027457600080fd5b8035906020019184600183028401116401000000008311171561029657600080fd5b91908080601f0160208091040260200160405190810160405280939291908181526020018383808284376000920191909152509295505091359250610908915050565b61008d600480360360208110156102ef57600080fd5b50356001600160a01b0316610d76565b336000908152600460205260408120548190606090829061035d57505060408051808201909152601781527f466f72756d20646f6573206e6f74206578697374732e200000000000000000006020820152600092508291508161042f565b6001600160a01b038516600090815260016020818152604092839020820180548451600294821615610100026000190190911693909304601f810183900483028401830190945283835260609390918301828280156103fd5780601f106103d2576101008083540402835291602001916103fd565b820191906000526020600020905b8154815290600101906020018083116103e057829003601f168201915b5050506001600160a01b0389166000908152600160208190526040909120600201549098508997509295509193505050505b9193509193565b6003545b90565b336000908152600160209081526040808320600201546004909252822054811580159061046957508082145b1561057c577f360973aa1f412aaed0aa70236cd0568063c3fd881fa2d2b695ff1d2b205cc91660003386600354604051808515151515815260200180602001856001600160a01b03166001600160a01b0316815260200180602001848152602001838103835260198152602001807f596f7520616c7265616479206f776e206120666f72756d212000000000000000815250602001838103825285818151815260200191508051906020019080838360005b8381101561053357818101518382015260200161051b565b50505050905090810190601f1680156105605780820380516001836020036101000a031916815260200191505b50965050505050505060405180910390a16000925050506107cb565b6040805160808101825233808252602080830188815260035484860152600060608501819052928352600180835294909220835181546001600160a01b0319166001600160a01b0390911617815591518051939492936105e3938501929190910190610f9d565b5060408281015160028301556060928301516003909201919091558051918201815233808352602080840188815260008585018190529283526001808352848420848052600401835293909220845181546001600160a01b0319166001600160a01b0390911617815591518051929361066493908501929190910190610f9d565b5060409182015160029182015533600081815260016020818152858320600681018252868420805460ff1916841790556005810182528684208490556003908101805484019055805460048352878520819055845294815285832080546001600160a01b03191685179055845482019485905585518281529586018490526080860185905260a0868201818152601c918801919091527f466f72756d2063726561746564207375636365737366756c6c7921200000000060c088015260e0606088018181528c51918901919091528b517f360973aa1f412aaed0aa70236cd0568063c3fd881fa2d2b695ff1d2b205cc9169894978d96909594610100860192908801918190849084905b8381101561078657818101518382015260200161076e565b50505050905090810190601f1680156107b35780820380516001836020036101000a031916815260200191505b50965050505050505060405180910390a16001925050505b919050565b600081815260026020526040812054819060609082906001600160a01b0316806108325760408051808201909152601681527502337b93ab6903237b2b9903737ba1032bc34b9ba17160551b602082015260009550909350915083905061042f565b6001600160a01b038116600090815260016020818152604092839020820180548451600294821615610100026000190190911693909304601f810183900483028401830190945283835260609390918301828280156108d25780601f106108a7576101008083540402835291602001916108d2565b820191906000526020600020905b8154815290600101906020018083116108b557829003601f168201915b505050506001600160a01b038416600090815260016020819052604090912060020154909a949950919750909550919350505050565b3360008181526001602052604081205490916001600160a01b03909116146109fc5760008051602061103683398151915260008585604051808415151515815260200180602001846001600160a01b03166001600160a01b0316815260200180602001838103835260228152602001806110bc60229139604001838103825284818151815260200191508051906020019080838360005b838110156109b757818101518382015260200161099f565b50505050905090810190601f1680156109e45780820380516001836020036101000a031916815260200191505b509550505050505060405180910390a1506000610d6f565b3360009081526001602081815260408084206001600160a01b03891685526006019091529091205460ff1615151415610ad05760008051602061103683398151915260008585604051808415151515815260200180602001846001600160a01b03166001600160a01b0316815260200180602001838103835260158152602001807402ab9b2b91030b63932b0b23c9032bc34b9ba39971605d1b81525060200183810382528481815181526020019150805190602001908083836000838110156109b757818101518382015260200161099f565b3360009081526001602090815260408083206001600160a01b038816845260060190915290205460ff16610ca15733600090815260016020818152604080842060038101805485019081905582516060810184526001600160a01b038b811682528186018b81528286018b90528389526004909401865293909620865181546001600160a01b0319169416939093178355905180519195949293610b7993850192910190610f9d565b5060409182015160029190910155336000908152600160208181528383206001600160a01b038a16808552600682018352858520805460ff191685179055600590910182528484208690558451838152948501526080848201818152601b918601919091527f4d656d626572206164646564207375636365737366756c6c792e20000000000060a086015260c0606086018181528a519187019190915289516000805160206110368339815191529694958c958c959094939260e0860192918701918190849084905b83811015610c5a578181015183820152602001610c42565b50505050905090810190601f168015610c875780820380516001836020036101000a031916815260200191505b509550505050505060405180910390a16001915050610d6f565b60008051602061103683398151915260008585604051808415151515815260200180602001846001600160a01b03166001600160a01b03168152602001806020018381038352603881526020018061108460389139604001838103825284818151815260200191508051906020019080838360005b83811015610d2e578181015183820152602001610d16565b50505050905090810190601f168015610d5b5780820380516001836020036101000a031916815260200191505b509550505050505060405180910390a15060005b9392505050565b33600090815260016020526040812054819060609082906001600160a01b0316610ddd5750506040805180820190915260208082527f596f75206e65656420746f20637265617465206120666f72756d20666972737490820152600092508291508161042f565b3360009081526001602090815260408083206001600160a01b038916845260060190915290205460ff1615610f0d573360009081526001602081815260408084206001600160a01b038a81168652600582018452828620548087526004909201845294829020805490850180548451600261010098831615989098026000190190911696909604601f810186900486028701860190945283865291951693606093909290830182828015610ed25780601f10610ea757610100808354040283529160200191610ed2565b820191906000526020600020905b815481529060010190602001808311610eb557829003601f168201915b50503360009081526001602081815260408084209a84526004909a01905297902060020154969a5094985091965093945061042f9350505050565b3360009081526001602090815260408083206001600160a01b038916845260060190915290205460ff16610f6c5760008060008191506040518060600160405280602781526020016110de60279139929650909450909250905061042f565b60008060008191506040518060600160405280602e8152602001611056602e91399298919750919550909350915050565b828054600181600116156101000203166002900490600052602060002090601f016020900481019282601f10610fde57805160ff191683800117855561100b565b8280016001018555821561100b579182015b8281111561100b578251825591602001919060010190610ff0565b5061101792915061101b565b5090565b61043a91905b80821115611017576000815560010161102156fe4e2ccda530823d156bb2b039daef610f40c3abcd9ad3dc2b8d5d7b84e27c400b536f6d657468696e672077656e742077726f6e67207769746820616464696e672061206e6577206d656d6265722e536f6d657468696e672077656e742077726f6e672e2054686973206572726f722069732077656972642c20646f20796f75207375636b3f20596f75206e65656420746f20637265617465206120666f72756d2066697273742e2054686973207573657220646f6573206e6f742065786973747320696e20796f757220666f72756da265627a7a723158200fe1088319e7e446f866ff1f6d2801cc823ec5acf0c3ad0b724bffda2f9c7fcb64736f6c63430005100032",
  "source": "//Klientsidan\n  //CHECK! Kunna se alla forum från klientsida.\n  //Se till att inte kunna bli tillagd i ett forum hur som helst.\n  //Mina uppgifter i ett forum.\n // Skicka säga \"ok\" att få bli tillagd i ett forum.\n//Forumskaparsida\n  // Kolla om användaren har godkänt att bli tillagd.\n  // Get userCount\n  // GetUser by usercount\n\n//pragma solidity ^0.5.0;\npragma solidity ^0.5.16;\n\n\ncontract Forum {\n\n  mapping (address => mapping (address => userData)) private forumUsers;\n  mapping (address => forumData) private forums;\n  mapping (uint => address) private fidOwner;\n  uint256 private forumId;\n  mapping (address => uint256) addressForumId;\n//  address[] private testz;\n\n  struct forumData{\n    address owner;\n    string forumName;\n    uint256 fid;\n    uint256 userCount;\n    mapping(uint256 => userData) users;\n    mapping(address => uint256) userKey; //Equal to next userCount.\n    mapping(address => bool) userExists;\n  }\n\n    struct userData{\n      address userAddress;\n      string userName;\n      uint256 karma;\n    }\n\n    constructor () public {\n      forumId = 1;\n    }\n\n    function createForum(string memory _fname) public returns (bool success){\n      uint256 a = forums[msg.sender].fid;\n      uint256 b = addressForumId[msg.sender];\n      if((a != 0) && (a == b)){\n        emit CreateForum(false, \"You already own a forum! \", msg.sender, _fname, forumId);\n        return(false);\n      }\n      forums[msg.sender] = forumData(msg.sender, _fname, forumId, 0);\n      forums[msg.sender].users[0] = userData(msg.sender, _fname, 0);\n      forums[msg.sender].userExists[msg.sender] = true;\n      forums[msg.sender].userKey[msg.sender] = 0;\n      forums[msg.sender].userCount ++;\n      addressForumId[msg.sender] = forumId;\n      fidOwner[forumId] = msg.sender;\n      forumId = forumId + 1;\n      emit CreateForum(true, \"Forum created successfully! \", msg.sender, _fname, forumId);\n      return (true);\n    }\n\n    function getForumCount() public view returns (uint256 id){\n      return forumId;\n    }\n\n    function getForumData(uint256 _fid) public view returns (bool succ, address Owner, string memory Forum_Name, uint256 Forum_ID){\n      address owner = fidOwner[_fid];\n      if(owner == address(0x0))\n        return (false, owner, \"Forum does not exist. \", 0);\n      string memory fName = forums[owner].forumName;\n      uint256 id = forums[owner].fid;\n      return(true, owner, fName, id);\n    }\n\n    function getForumData(address _owner) public view returns (bool succ, address Owner, string memory Forum_Name, uint256 Forum_ID){\n      if(addressForumId[msg.sender] == 0){\n        return (false, address(0x0), \"Forum does not exists. \", 0);\n      }\n      string memory fName = forums[_owner].forumName;\n      uint256 id = forums[_owner].fid;\n      return(true, _owner, fName, id);\n    }\n\n    function addUserToForum(address _userAddress, string memory _userName, uint256 _karma) public returns (bool success){\n      if(forums[msg.sender].owner != msg.sender){\n        emit AddUserToForum(false, \"You need to create a forum first. \", _userAddress, _userName);\n        return (false);\n      }\n      if(forums[msg.sender].userExists[_userAddress] == true){\n        emit AddUserToForum(false, \"User already exists. \", _userAddress,  _userName);\n        return (false);\n      }\n      if(!forums[msg.sender].userExists[_userAddress]){\n        forums[msg.sender].userCount++;\n        uint256 newUserCount = forums[msg.sender].userCount;\n        forums[msg.sender].users[newUserCount] = userData(_userAddress, _userName, _karma);\n        forums[msg.sender].userExists[_userAddress] = true;\n        forums[msg.sender].userKey[_userAddress] = newUserCount;\n        emit AddUserToForum(true, \"Member added successfully. \", _userAddress, _userName);\n        return (true);\n\n      }\n      emit AddUserToForum(false, \"Something went wrong. This error is weird, do you suck? \", _userAddress, _userName);\n      return (false);\n    }\n\n\n    function getUserData(address _userAddress) public view returns (bool succ, address _address, string memory _userinfo, uint256 _karma) {\n        if(forums[msg.sender].owner == address(0x0)){\n          return (false, address(0x0), \"You need to create a forum first\", 0);\n        }\n        if(forums[msg.sender].userExists[_userAddress]){\n          uint256 uKey = forums[msg.sender].userKey[_userAddress];\n          address uaddress = forums[msg.sender].users[uKey].userAddress;\n          string memory uname = forums[msg.sender].users[uKey].userName;\n          uint256 karm = forums[msg.sender].users[uKey].karma;\n          return (true, uaddress, uname, karm);\n        }\n        if(!forums[msg.sender].userExists[_userAddress]){\n          return(false, address(0x0), \"This user does not exists in your forum\", 0);\n        }\n        return(false, address(0x0),\"Something went wrong with adding a new member.\", 0);\n    }\n    event Succ(bool success);\n    event AddUserToForum(bool succ, string info, address _userAddress, string _userName);\n    event CreateForum(bool succ, string info, address self, string fname, uint256 fid);\n}\n",
  "sourcePath": "/home/anton/Documents/Gitz/Exjobb/Exjobb/SaviourCoin/MainApplication/contracts/Forum.sol",
  "compiler": {
    "name": "solc",
    "version": "0.5.16+commit.9c3226ce.Emscripten.clang"
  },
  "schemaVersion": "3.0.23",
  "updatedAt": "2020-04-16T14:33:27.824Z",
  "networkType": "ethereum",
  "devdoc": {
    "methods": {}
  },
  "userdoc": {
    "methods": {}
  }
}