{
  "contractName": "Forum",
  "abi": [
    {
      "inputs": [
        {
          "internalType": "uint256",
          "name": "_initialAmount",
          "type": "uint256"
        },
        {
          "internalType": "string",
          "name": "_tokenName",
          "type": "string"
        },
        {
          "internalType": "uint8",
          "name": "_decimalUnits",
          "type": "uint8"
        },
        {
          "internalType": "string",
          "name": "_tokenSymbol",
          "type": "string"
        }
      ],
      "payable": false,
      "stateMutability": "nonpayable",
      "type": "constructor"
    },
    {
      "anonymous": false,
      "inputs": [
        {
          "indexed": false,
          "internalType": "bool",
          "name": "succ",
          "type": "bool"
        },
        {
          "indexed": false,
          "internalType": "string",
          "name": "info",
          "type": "string"
        },
        {
          "indexed": false,
          "internalType": "address",
          "name": "_userAddress",
          "type": "address"
        },
        {
          "indexed": false,
          "internalType": "string",
          "name": "_userName",
          "type": "string"
        }
      ],
      "name": "AddUserToForum",
      "type": "event"
    },
    {
      "anonymous": false,
      "inputs": [
        {
          "indexed": true,
          "internalType": "address",
          "name": "_owner",
          "type": "address"
        },
        {
          "indexed": true,
          "internalType": "address",
          "name": "_spender",
          "type": "address"
        },
        {
          "indexed": false,
          "internalType": "uint256",
          "name": "_value",
          "type": "uint256"
        }
      ],
      "name": "Approval",
      "type": "event"
    },
    {
      "anonymous": false,
      "inputs": [
        {
          "indexed": false,
          "internalType": "bool",
          "name": "succ",
          "type": "bool"
        },
        {
          "indexed": false,
          "internalType": "string",
          "name": "info",
          "type": "string"
        },
        {
          "indexed": false,
          "internalType": "address",
          "name": "self",
          "type": "address"
        },
        {
          "indexed": false,
          "internalType": "string",
          "name": "fname",
          "type": "string"
        },
        {
          "indexed": false,
          "internalType": "uint256",
          "name": "fid",
          "type": "uint256"
        }
      ],
      "name": "CreateForum",
      "type": "event"
    },
    {
      "anonymous": false,
      "inputs": [
        {
          "indexed": false,
          "internalType": "bool",
          "name": "success",
          "type": "bool"
        }
      ],
      "name": "Succ",
      "type": "event"
    },
    {
      "anonymous": false,
      "inputs": [
        {
          "indexed": true,
          "internalType": "address",
          "name": "_from",
          "type": "address"
        },
        {
          "indexed": true,
          "internalType": "address",
          "name": "_to",
          "type": "address"
        },
        {
          "indexed": false,
          "internalType": "uint256",
          "name": "_value",
          "type": "uint256"
        }
      ],
      "name": "Transfer",
      "type": "event"
    },
    {
      "constant": true,
      "inputs": [
        {
          "internalType": "address",
          "name": "",
          "type": "address"
        },
        {
          "internalType": "address",
          "name": "",
          "type": "address"
        }
      ],
      "name": "allowed",
      "outputs": [
        {
          "internalType": "uint256",
          "name": "",
          "type": "uint256"
        }
      ],
      "payable": false,
      "stateMutability": "view",
      "type": "function"
    },
    {
      "constant": true,
      "inputs": [
        {
          "internalType": "address",
          "name": "",
          "type": "address"
        }
      ],
      "name": "balances",
      "outputs": [
        {
          "internalType": "uint256",
          "name": "",
          "type": "uint256"
        }
      ],
      "payable": false,
      "stateMutability": "view",
      "type": "function"
    },
    {
      "constant": true,
      "inputs": [],
      "name": "decimals",
      "outputs": [
        {
          "internalType": "uint8",
          "name": "",
          "type": "uint8"
        }
      ],
      "payable": false,
      "stateMutability": "view",
      "type": "function"
    },
    {
      "constant": true,
      "inputs": [],
      "name": "name",
      "outputs": [
        {
          "internalType": "string",
          "name": "",
          "type": "string"
        }
      ],
      "payable": false,
      "stateMutability": "view",
      "type": "function"
    },
    {
      "constant": true,
      "inputs": [],
      "name": "symbol",
      "outputs": [
        {
          "internalType": "string",
          "name": "",
          "type": "string"
        }
      ],
      "payable": false,
      "stateMutability": "view",
      "type": "function"
    },
    {
      "constant": true,
      "inputs": [],
      "name": "totalSupply",
      "outputs": [
        {
          "internalType": "uint256",
          "name": "",
          "type": "uint256"
        }
      ],
      "payable": false,
      "stateMutability": "view",
      "type": "function"
    },
    {
      "constant": false,
      "inputs": [
        {
          "internalType": "address",
          "name": "_to",
          "type": "address"
        },
        {
          "internalType": "uint256",
          "name": "_value",
          "type": "uint256"
        }
      ],
      "name": "transfer",
      "outputs": [
        {
          "internalType": "bool",
          "name": "success",
          "type": "bool"
        }
      ],
      "payable": false,
      "stateMutability": "nonpayable",
      "type": "function"
    },
    {
      "constant": false,
      "inputs": [
        {
          "internalType": "address",
          "name": "_from",
          "type": "address"
        },
        {
          "internalType": "address",
          "name": "_to",
          "type": "address"
        },
        {
          "internalType": "uint256",
          "name": "_value",
          "type": "uint256"
        }
      ],
      "name": "transferFrom",
      "outputs": [
        {
          "internalType": "bool",
          "name": "success",
          "type": "bool"
        }
      ],
      "payable": false,
      "stateMutability": "nonpayable",
      "type": "function"
    },
    {
      "constant": true,
      "inputs": [
        {
          "internalType": "address",
          "name": "_owner",
          "type": "address"
        }
      ],
      "name": "balanceOf",
      "outputs": [
        {
          "internalType": "uint256",
          "name": "balance",
          "type": "uint256"
        }
      ],
      "payable": false,
      "stateMutability": "view",
      "type": "function"
    },
    {
      "constant": false,
      "inputs": [
        {
          "internalType": "address",
          "name": "_spender",
          "type": "address"
        },
        {
          "internalType": "uint256",
          "name": "_value",
          "type": "uint256"
        }
      ],
      "name": "approve",
      "outputs": [
        {
          "internalType": "bool",
          "name": "success",
          "type": "bool"
        }
      ],
      "payable": false,
      "stateMutability": "nonpayable",
      "type": "function"
    },
    {
      "constant": true,
      "inputs": [
        {
          "internalType": "address",
          "name": "_owner",
          "type": "address"
        },
        {
          "internalType": "address",
          "name": "_spender",
          "type": "address"
        }
      ],
      "name": "allowance",
      "outputs": [
        {
          "internalType": "uint256",
          "name": "remaining",
          "type": "uint256"
        }
      ],
      "payable": false,
      "stateMutability": "view",
      "type": "function"
    },
    {
      "constant": false,
      "inputs": [
        {
          "internalType": "string",
          "name": "_fname",
          "type": "string"
        }
      ],
      "name": "createForum",
      "outputs": [
        {
          "internalType": "bool",
          "name": "success",
          "type": "bool"
        }
      ],
      "payable": false,
      "stateMutability": "nonpayable",
      "type": "function"
    },
    {
      "constant": true,
      "inputs": [],
      "name": "getForumCount",
      "outputs": [
        {
          "internalType": "uint256",
          "name": "id",
          "type": "uint256"
        }
      ],
      "payable": false,
      "stateMutability": "view",
      "type": "function"
    },
    {
      "constant": true,
      "inputs": [
        {
          "internalType": "uint256",
          "name": "_fid",
          "type": "uint256"
        }
      ],
      "name": "getForumDataByFid",
      "outputs": [
        {
          "internalType": "address",
          "name": "forumOwner",
          "type": "address"
        },
        {
          "internalType": "string",
          "name": "forumName",
          "type": "string"
        },
        {
          "internalType": "uint256",
          "name": "fid",
          "type": "uint256"
        }
      ],
      "payable": false,
      "stateMutability": "view",
      "type": "function"
    },
    {
      "constant": true,
      "inputs": [
        {
          "internalType": "address",
          "name": "_owner",
          "type": "address"
        }
      ],
      "name": "getForumData",
      "outputs": [
        {
          "internalType": "address",
          "name": "forumOwner",
          "type": "address"
        },
        {
          "internalType": "string",
          "name": "forumName",
          "type": "string"
        },
        {
          "internalType": "uint256",
          "name": "fid",
          "type": "uint256"
        }
      ],
      "payable": false,
      "stateMutability": "view",
      "type": "function"
    },
    {
      "constant": false,
      "inputs": [
        {
          "internalType": "address",
          "name": "_userAddress",
          "type": "address"
        },
        {
          "internalType": "string",
          "name": "_userName",
          "type": "string"
        },
        {
          "internalType": "uint256",
          "name": "_karma",
          "type": "uint256"
        }
      ],
      "name": "addUserToForum",
      "outputs": [
        {
          "internalType": "bool",
          "name": "success",
          "type": "bool"
        }
      ],
      "payable": false,
      "stateMutability": "nonpayable",
      "type": "function"
    },
    {
      "constant": false,
      "inputs": [
        {
          "internalType": "uint256",
          "name": "_karma",
          "type": "uint256"
        },
        {
          "internalType": "address",
          "name": "_userAddress",
          "type": "address"
        }
      ],
      "name": "setKarma",
      "outputs": [
        {
          "internalType": "bool",
          "name": "succ",
          "type": "bool"
        }
      ],
      "payable": false,
      "stateMutability": "nonpayable",
      "type": "function"
    },
    {
      "constant": true,
      "inputs": [
        {
          "internalType": "address",
          "name": "_userAddress",
          "type": "address"
        }
      ],
      "name": "getUserData",
      "outputs": [
        {
          "internalType": "bool",
          "name": "succ",
          "type": "bool"
        },
        {
          "internalType": "address",
          "name": "_address",
          "type": "address"
        },
        {
          "internalType": "string",
          "name": "_userinfo",
          "type": "string"
        },
        {
          "internalType": "uint256",
          "name": "_karma",
          "type": "uint256"
        }
      ],
      "payable": false,
      "stateMutability": "view",
      "type": "function"
    },
    {
      "constant": true,
      "inputs": [
        {
          "internalType": "uint256",
          "name": "_ucount",
          "type": "uint256"
        }
      ],
      "name": "getUserByUserCount",
      "outputs": [
        {
          "internalType": "bool",
          "name": "_succ",
          "type": "bool"
        },
        {
          "internalType": "address",
          "name": "_userAddress",
          "type": "address"
        },
        {
          "internalType": "string",
          "name": "_userinfo",
          "type": "string"
        },
        {
          "internalType": "uint256",
          "name": "_karma",
          "type": "uint256"
        }
      ],
      "payable": false,
      "stateMutability": "view",
      "type": "function"
    },
    {
      "constant": true,
      "inputs": [],
      "name": "getUserCount",
      "outputs": [
        {
          "internalType": "uint256",
          "name": "_ucount",
          "type": "uint256"
        }
      ],
      "payable": false,
      "stateMutability": "view",
      "type": "function"
    },
    {
      "constant": true,
      "inputs": [
        {
          "internalType": "uint256",
          "name": "_fid",
          "type": "uint256"
        }
      ],
      "name": "getMyInfo",
      "outputs": [
        {
          "internalType": "uint256",
          "name": "_fID",
          "type": "uint256"
        },
        {
          "internalType": "address",
          "name": "_forumAddress",
          "type": "address"
        },
        {
          "internalType": "address",
          "name": "_myAddress",
          "type": "address"
        },
        {
          "internalType": "string",
          "name": "_userName",
          "type": "string"
        },
        {
          "internalType": "uint256",
          "name": "_karma",
          "type": "uint256"
        }
      ],
      "payable": false,
      "stateMutability": "view",
      "type": "function"
    },
    {
      "constant": true,
      "inputs": [
        {
          "internalType": "address",
          "name": "_admin",
          "type": "address"
        }
      ],
      "name": "getMyInfo",
      "outputs": [
        {
          "internalType": "uint256",
          "name": "_fID",
          "type": "uint256"
        },
        {
          "internalType": "address",
          "name": "_forumAddress",
          "type": "address"
        },
        {
          "internalType": "address",
          "name": "_myAddress",
          "type": "address"
        },
        {
          "internalType": "string",
          "name": "_userName",
          "type": "string"
        },
        {
          "internalType": "uint256",
          "name": "_karma",
          "type": "uint256"
        }
      ],
      "payable": false,
      "stateMutability": "view",
      "type": "function"
    },
    {
      "constant": true,
      "inputs": [],
      "name": "getMyForums",
      "outputs": [
        {
          "internalType": "address[]",
          "name": "memberList",
          "type": "address[]"
        }
      ],
      "payable": false,
      "stateMutability": "view",
      "type": "function"
    },
    {
      "constant": true,
      "inputs": [
        {
          "internalType": "address",
          "name": "_forum",
          "type": "address"
        }
      ],
      "name": "accForumKarma",
      "outputs": [
        {
          "internalType": "uint256",
          "name": "",
          "type": "uint256"
        }
      ],
      "payable": false,
      "stateMutability": "view",
      "type": "function"
    },
    {
      "constant": true,
      "inputs": [
        {
          "internalType": "address",
          "name": "_forum",
          "type": "address"
        }
      ],
      "name": "getCheckOutPrice",
      "outputs": [
        {
          "internalType": "uint256",
          "name": "_res",
          "type": "uint256"
        }
      ],
      "payable": false,
      "stateMutability": "view",
      "type": "function"
    },
    {
      "constant": false,
      "inputs": [
        {
          "internalType": "address",
          "name": "_forum",
          "type": "address"
        }
      ],
      "name": "checkOut",
      "outputs": [
        {
          "internalType": "bool",
          "name": "_succ",
          "type": "bool"
        }
      ],
      "payable": false,
      "stateMutability": "nonpayable",
      "type": "function"
    }
  ],
  "bytecode": "0x60806040523480156200001157600080fd5b506040516200232e3803806200232e833981810160405260808110156200003757600080fd5b8151602083018051604051929492938301929190846401000000008211156200005f57600080fd5b9083019060208201858111156200007557600080fd5b82516401000000008111828201881017156200009057600080fd5b82525081516020918201929091019080838360005b83811015620000bf578181015183820152602001620000a5565b50505050905090810190601f168015620000ed5780820380516001836020036101000a031916815260200191505b506040818152602083015192018051929491939192846401000000008211156200011657600080fd5b9083019060208201858111156200012c57600080fd5b82516401000000008111828201881017156200014757600080fd5b82525081516020918201929091019080838360005b83811015620001765781810151838201526020016200015c565b50505050905090810190601f168015620001a45780820380516001836020036101000a031916815260200191505b506040908152336000908152600160209081529181208990558890558651620001d794506003935090870191506200020d565b506004805460ff191660ff84161790558051620001fc9060059060208401906200020d565b5050600160085550620002b2915050565b828054600181600116156101000203166002900490600052602060002090601f016020900481019282601f106200025057805160ff191683800117855562000280565b8280016001018555821562000280579182015b828111156200028057825182559160200191906001019062000263565b506200028e92915062000292565b5090565b620002af91905b808211156200028e576000815560010162000299565b90565b61206c80620002c26000396000f3fe608060405234801561001057600080fd5b506004361061018e5760003560e01c806383d3f6b7116100de578063b5cb15f711610097578063d341cad111610071578063d341cad1146107e7578063dd62ed3e14610804578063e06c1c3614610832578063ffc9896b1461088a5761018e565b8063b5cb15f714610701578063bcb1a32514610709578063c44782c81461072f5761018e565b806383d3f6b7146105395780638d23caa01461054157806395d89b4114610567578063a232e64b1461056f578063a9059cbb14610615578063adcfe1e3146106415761018e565b806327e235e31161014b5780635c658165116101255780635c6581651461040b57806370a082311461043957806378f469981461045f5780638326099c146105135761018e565b806327e235e31461039b578063313ce567146103c157806342382b82146103df5761018e565b806301b142781461019357806306fdde0314610268578063095ea7b3146102e55780630a32bf361461032557806318160ddd1461034b57806323b872dd14610365575b600080fd5b6101b0600480360360208110156101a957600080fd5b50356108b0565b60405180868152602001856001600160a01b03166001600160a01b03168152602001846001600160a01b03166001600160a01b0316815260200180602001838152602001828103825284818151815260200191508051906020019080838360005b83811015610229578181015183820152602001610211565b50505050905090810190601f1680156102565780820380516001836020036101000a031916815260200191505b50965050505050505060405180910390f35b6102706109d5565b6040805160208082528351818301528351919283929083019185019080838360005b838110156102aa578181015183820152602001610292565b50505050905090810190601f1680156102d75780820380516001836020036101000a031916815260200191505b509250505060405180910390f35b610311600480360360408110156102fb57600080fd5b506001600160a01b038135169060200135610a63565b604080519115158252519081900360200190f35b6101b06004803603602081101561033b57600080fd5b50356001600160a01b0316610aca565b610353610bdc565b60408051918252519081900360200190f35b6103116004803603606081101561037b57600080fd5b506001600160a01b03813581169160208101359091169060400135610be2565b610353600480360360208110156103b157600080fd5b50356001600160a01b0316610ce6565b6103c9610cf8565b6040805160ff9092168252519081900360200190f35b610311600480360360408110156103f557600080fd5b50803590602001356001600160a01b0316610d01565b6103536004803603604081101561042157600080fd5b506001600160a01b0381358116916020013516610d99565b6103536004803603602081101561044f57600080fd5b50356001600160a01b0316610db6565b6104856004803603602081101561047557600080fd5b50356001600160a01b0316610dd5565b604080516001600160a01b0385168152908101829052606060208083018281528551928401929092528451608084019186019080838360005b838110156104d65781810151838201526020016104be565b50505050905090810190601f1680156105035780820380516001836020036101000a031916815260200191505b5094505050505060405180910390f35b6103536004803603602081101561052957600080fd5b50356001600160a01b0316610f20565b610353610f7c565b6103116004803603602081101561055757600080fd5b50356001600160a01b0316610f87565b610270611012565b6103116004803603602081101561058557600080fd5b8101906020810181356401000000008111156105a057600080fd5b8201836020820111156105b257600080fd5b803590602001918460018302840111640100000000831117156105d457600080fd5b91908080601f01602080910402602001604051908101604052809392919081815260200183838082843760009201919091525092955061106d945050505050565b6103116004803603604081101561062b57600080fd5b506001600160a01b03813516906020013561135e565b61065e6004803603602081101561065757600080fd5b50356113e8565b6040518085151515158152602001846001600160a01b03166001600160a01b0316815260200180602001838152602001828103825284818151815260200191508051906020019080838360005b838110156106c35781810151838201526020016106ab565b50505050905090810190601f1680156106f05780820380516001836020036101000a031916815260200191505b509550505050505060405180910390f35b6103536115a5565b6103536004803603602081101561071f57600080fd5b50356001600160a01b03166115bb565b6103116004803603606081101561074557600080fd5b6001600160a01b03823516919081019060408101602082013564010000000081111561077057600080fd5b82018360208201111561078257600080fd5b803590602001918460018302840111640100000000831117156107a457600080fd5b91908080601f0160208091040260200160405190810160405280939291908181526020018383808284376000920191909152509295505091359250611624915050565b610485600480360360208110156107fd57600080fd5b5035611abb565b6103536004803603604081101561081a57600080fd5b506001600160a01b0381358116916020013516611c10565b61083a611c3b565b60408051602080825283518183015283519192839290830191858101910280838360005b8381101561087657818101518382015260200161085e565b505050509050019250505060405180910390f35b61065e600480360360208110156108a057600080fd5b50356001600160a01b0316611ca6565b6000818152600760209081526040808320546001600160a01b0316808452600683528184203385526005810184528285205480865260049091018452828520600190810180548551600261010094831615949094026000190190911692909204601f8101879004870283018701909552848252869586956060958795909490938793919290918301828280156109875780601f1061095c57610100808354040283529160200191610987565b820191906000526020600020905b81548152906001019060200180831161096a57829003601f168201915b505050506001600160a01b038516600081815260066020818152604080842098845260048901825283206002908101549490935252909401549b949a50339950909750919550919350505050565b6003805460408051602060026001851615610100026000190190941693909304601f81018490048402820184019092528181529291830182828015610a5b5780601f10610a3057610100808354040283529160200191610a5b565b820191906000526020600020905b815481529060010190602001808311610a3e57829003601f168201915b505050505081565b3360008181526002602090815260408083206001600160a01b038716808552908352818420869055815186815291519394909390927f8c5be1e5ebec7d5bd14f71427d1e84f3dd0314c0f7b2291e5b200ac8c7c3b925928290030190a35060015b92915050565b6001600160a01b03811660009081526006602090815260408083203384526005810183528184205480855260049091018352818420600190810180548451600293821615610100026000190190911692909204601f81018690048602830186019094528382528594859460609486949093869391929091830182828015610b925780601f10610b6757610100808354040283529160200191610b92565b820191906000526020600020905b815481529060010190602001808311610b7557829003601f168201915b505050506001600160a01b038a16600081815260066020818152604080842098845260048901825283206002908101549490935252909401549a3399509197509295509350505050565b60005481565b6001600160a01b038316600081815260026020908152604080832033845282528083205493835260019091528120549091908311801590610c235750828110155b610c2c57600080fd5b6001600160a01b0380851660009081526001602052604080822080548701905591871681522080548490039055600019811015610c8e576001600160a01b03851660009081526002602090815260408083203384529091529020805484900390555b836001600160a01b0316856001600160a01b03167fddf252ad1be2c89b69c2b068fc378daa952ba7f163c4a11628f55a4df523b3ef856040518082815260200191505060405180910390a360019150505b9392505050565b60016020526000908152604090205481565b60045460ff1681565b336000908152600660205260408120546001600160a01b0316610d2657506000610ac4565b3360009081526006602081815260408084206001600160a01b0387168552909201905290205460ff16610d5b57506000610ac4565b503360009081526006602090815260408083206001600160a01b03949094168352600584018252808320548352600490930190522060020155600190565b600260209081526000928352604080842090915290825290205481565b6001600160a01b0381166000908152600160205260409020545b919050565b336000908152600960205260408120546060908290610e34576040805162461bcd60e51b81526020600482015260166024820152752337b93ab6903237b2b9903737ba1032bc34b9ba399760511b604482015290519081900360640190fd5b606060066000866001600160a01b03166001600160a01b031681526020019081526020016000206001018054600181600116156101000203166002900480601f016020809104026020016040519081016040528092919081815260200182805460018160011615610100020316600290048015610ef25780601f10610ec757610100808354040283529160200191610ef2565b820191906000526020600020905b815481529060010190602001808311610ed557829003601f168201915b505050506001600160a01b038716600090815260066020526040902060020154969791969550909350505050565b600080610f2c836115bb565b90506000610f3984610db6565b9050811580610f46575080155b15610f5657600092505050610dd0565b6000828281610f6157fe5b06905060008382840381610f7157fe5b049695505050505050565b600854600019015b90565b600080610f9383610f20565b905080610fa4576000915050610dd0565b6001600160a01b039290921660008181526006602090815260408083203380855260058201845282852054808652600490920180855283862060020180549787526001808752858820805499909b0298899003909a5591865292852080549096019095558352905290555090565b6005805460408051602060026001851615610100026000190190941693909304601f81018490048402820184019092528181529291830182828015610a5b5780601f10610a3057610100808354040283529160200191610a5b565b336000908152600660209081526040808320600201546009909252822054811580159061109957508082145b156110eb576040805162461bcd60e51b815260206004820152601860248201527f596f7520616c7265616479206f776e206120666f72756d2e0000000000000000604482015290519081900360640190fd5b60408051608081018252338082526020808301888152600854848601526000606085018190529283526006825293909120825181546001600160a01b0319166001600160a01b039091161781559251805192939261114f9260018501920190611ed0565b50604082810151600283015560609283015160039092019190915580519182018152338083526020808401888152600085850181905292835260068252838320838052600401825292909120835181546001600160a01b0319166001600160a01b03909116178155915180516111cb9260018501920190611ed0565b50604091820151600290910155336000818152600660208181528483209182018152848320805460ff191660019081179091556005830182528584208490556003909201805483019055600880546009835286852081905584526007825285842080546001600160a01b03199081168717909155815484018255858552600a835286852080548086018255908652838620018054909116861790555485518381529586018590526080860181905260a0868301818152601c918801919091527f466f72756d2063726561746564207375636365737366756c6c7921200000000060c088015260e0606088018181528c51918901919091528b517f360973aa1f412aaed0aa70236cd0568063c3fd881fa2d2b695ff1d2b205cc916989597968d969495610100860192908801918190849084905b838110156113165781810151838201526020016112fe565b50505050905090810190601f1680156113435780820380516001836020036101000a031916815260200191505b50965050505050505060405180910390a15060019392505050565b3360009081526001602052604081205482111561137a57600080fd5b336000818152600160209081526040808320805487900390556001600160a01b03871680845292819020805487019055805186815290519293927fddf252ad1be2c89b69c2b068fc378daa952ba7f163c4a11628f55a4df523b3ef929181900390910190a350600192915050565b33600090815260066020526040812054819060609082906001600160a01b031661144f5750506040805180820190915260208082527f596f75206e65656420746f20637265617465206120666f72756d20666972737490820152600092508291508161159e565b3360009081526006602052604090206003015485118061146d575060005b156114b557505060408051808201909152601981527f54686973207573657220646f6573206e6f7420657869737473000000000000006020820152600092508291508161159e565b3360009081526006602090815260408083208884526004018252918290208054600191820180548551600261010095831615959095026000190190911693909304601f81018590048502840185019095528483526001600160a01b03909116936060938301828280156115695780601f1061153e57610100808354040283529160200191611569565b820191906000526020600020905b81548152906001019060200180831161154c57829003601f168201915b50503360009081526006602090815260408083208e845260040190915290206002015460019a50959850929650939450505050505b9193509193565b3360009081526006602052604090206003015490565b6001600160a01b03811660009081526006602052604081206003015460010181805b8281101561161c576001600160a01b038516600090815260066020908152604080832084845260040190915290206002015491909101906001016115dd565b509392505050565b3360008181526006602052604081205490916001600160a01b039091161461171857600080516020611f6983398151915260008585604051808415151515815260200180602001846001600160a01b03166001600160a01b031681526020018060200183810383526022815260200180611fef60229139604001838103825284818151815260200191508051906020019080838360005b838110156116d35781810151838201526020016116bb565b50505050905090810190601f1680156117005780820380516001836020036101000a031916815260200191505b509550505050505060405180910390a1506000610cdf565b3360009081526006602081815260408084206001600160a01b0389168552909201905290205460ff161515600114156117ec57600080516020611f6983398151915260008585604051808415151515815260200180602001846001600160a01b03166001600160a01b0316815260200180602001838103835260158152602001807402ab9b2b91030b63932b0b23c9032bc34b9ba39971605d1b81525060200183810382528481815181526020019150805190602001908083836000838110156116d35781810151838201526020016116bb565b3360009081526006602081815260408084206001600160a01b0389168552909201905290205460ff166119e75733600090815260066020908152604080832060038101805460019081019182905583516060810185526001600160a01b038b811682528187018b81528287018b90528489526004909501875294909620865181546001600160a01b03191695169490941784559151805191959461189593850192910190611ed0565b5060409182015160029190910155336000818152600660208181528483206001600160a01b038b168085529281018252858420805460ff1916600190811790915560059091018252858420879055600a8252858420805480830182559085528285200180546001600160a01b0319169095179094558451848152948501919091526080848201818152601b918601919091527f4d656d626572206164646564207375636365737366756c6c792e20000000000060a086015260c0606086018181528a51918701919091528951600080516020611f69833981519152968c958c959194939260e08601928701918190849084905b838110156119a0578181015183820152602001611988565b50505050905090810190601f1680156119cd5780820380516001836020036101000a031916815260200191505b509550505050505060405180910390a16001915050610cdf565b600080516020611f6983398151915260008585604051808415151515815260200180602001846001600160a01b03166001600160a01b031681526020018060200183810383526038815260200180611fb760389139604001838103825284818151815260200191508051906020019080838360005b83811015611a74578181015183820152602001611a5c565b50505050905090810190601f168015611aa15780820380516001836020036101000a031916815260200191505b509550505050505060405180910390a15060009392505050565b60008181526007602052604081205460609082906001600160a01b031680611b23576040805162461bcd60e51b81526020600482015260166024820152752337b93ab6903237b2b9903737ba1032bc34b9ba399760511b604482015290519081900360640190fd5b606060066000836001600160a01b03166001600160a01b031681526020019081526020016000206001018054600181600116156101000203166002900480601f016020809104026020016040519081016040528092919081815260200182805460018160011615610100020316600290048015611be15780601f10611bb657610100808354040283529160200191611be1565b820191906000526020600020905b815481529060010190602001808311611bc457829003601f168201915b505050506001600160a01b03841660009081526006602052604090206002015493989197509295509350505050565b6001600160a01b03918216600090815260026020908152604080832093909416825291909152205490565b336000908152600a6020908152604091829020805483518184028101840190945280845260609392830182828015611c9c57602002820191906000526020600020905b81546001600160a01b03168152600190910190602001808311611c7e575b5050505050905090565b33600090815260066020526040812054819060609082906001600160a01b0316611d0d5750506040805180820190915260208082527f596f75206e65656420746f20637265617465206120666f72756d20666972737490820152600092508291508161159e565b3360009081526006602081815260408084206001600160a01b038a168552909201905290205460ff1615611e41573360009081526006602090815260408083206001600160a01b0389811685526005820184528285205480865260049092018452938290208054600191820180548551600261010095831615959095026000190190911693909304601f81018790048702840187019095528483529295169360609391929190830182828015611e045780601f10611dd957610100808354040283529160200191611e04565b820191906000526020600020905b815481529060010190602001808311611de757829003601f168201915b505033600090815260066020908152604080832099835260049099019052969096206002015460019a5094985091965092945061159e9350505050565b3360009081526006602081815260408084206001600160a01b038a168552909201905290205460ff16611e9f57600080600081915060405180606001604052806027815260200161201160279139929650909450909250905061159e565b60008060008191506040518060600160405280602e8152602001611f89602e91399298919750919550909350915050565b828054600181600116156101000203166002900490600052602060002090601f016020900481019282601f10611f1157805160ff1916838001178555611f3e565b82800160010185558215611f3e579182015b82811115611f3e578251825591602001919060010190611f23565b50611f4a929150611f4e565b5090565b610f8491905b80821115611f4a5760008155600101611f5456fe4e2ccda530823d156bb2b039daef610f40c3abcd9ad3dc2b8d5d7b84e27c400b536f6d657468696e672077656e742077726f6e67207769746820616464696e672061206e6577206d656d6265722e536f6d657468696e672077656e742077726f6e672e2054686973206572726f722069732077656972642c20646f20796f75207375636b3f20596f75206e65656420746f20637265617465206120666f72756d2066697273742e2054686973207573657220646f6573206e6f742065786973747320696e20796f757220666f72756da265627a7a72315820ce7f4b84c61ad7cb23026dd0b61795e3a2a02534fc25ddab6432bdf78cbab4e364736f6c63430005100032",
  "source": "/*\nImplements EIP20 token standard: https://github.com/ethereum/EIPs/blob/master/EIPS/eip-20.md\n.*/\n\n\npragma solidity ^0.5.0;\n\nimport \"./EIP20Interface.sol\";\n\n\ncontract Forum is EIP20Interface {\n    // The coin\n    uint256 constant private MAX_UINT256 = 2**256 - 1;\n    mapping (address => uint256) public balances;\n    mapping (address => mapping (address => uint256)) public allowed;\n\n    string public name;\n    uint8 public decimals;\n    string public symbol;\n\n    // Forum\n    mapping (address => forumData) private forums;    // An address can hold a forum\n    mapping (uint => address) private fidOwner;       // A forumID (fid) is mapped to an owner of a forum with this fid.\n    uint256 private forumId;                          // Increments when a new forum is created\n    mapping (address => uint256) addressForumId;\n    mapping(address => address [] ) myForums;\n\n    struct forumData{\n      address owner;\n      string forumName;\n      uint256 fid;\n      uint256 userCount;\n      mapping(uint256 => userData) users;\n      mapping(address => uint256) userKey; //Equal to next userCount.\n      mapping(address => bool) userExists;\n    }\n\n    struct userData{\n      address userAddress;\n      string userName;\n      uint256 karma;\n      }\n\n    constructor (\n        uint256 _initialAmount,\n        string memory _tokenName,\n        uint8 _decimalUnits,\n        string memory _tokenSymbol\n    ) public {\n        balances[msg.sender] = _initialAmount;\n        totalSupply = _initialAmount;\n        name = _tokenName;\n        decimals = _decimalUnits;\n        symbol = _tokenSymbol;\n        forumId = 1;\n    }\n\n    // Coin functions...\n    function transfer(address _to, uint256 _value) public returns (bool success) {\n        require(balances[msg.sender] >= _value);\n        balances[msg.sender] -= _value;\n        balances[_to] += _value;\n        emit Transfer(msg.sender, _to, _value); //solhint-disable-line indent, no-unused-vars\n        return true;\n    }\n\n    function transferFrom(address _from, address _to, uint256 _value) public returns (bool success) {\n        uint256 allowance = allowed[_from][msg.sender];\n        require(balances[_from] >= _value && allowance >= _value);\n        balances[_to] += _value;\n        balances[_from] -= _value;\n        if (allowance < MAX_UINT256) {\n            allowed[_from][msg.sender] -= _value;\n        }\n        emit Transfer(_from, _to, _value); //solhint-disable-line indent, no-unused-vars\n        return true;\n    }\n\n    function balanceOf(address _owner) public view returns (uint256 balance) {\n        return balances[_owner];\n    }\n\n    function approve(address _spender, uint256 _value) public returns (bool success) {\n        allowed[msg.sender][_spender] = _value;\n        emit Approval(msg.sender, _spender, _value); //solhint-disable-line indent, no-unused-vars\n        return true;\n    }\n\n    function allowance(address _owner, address _spender) public view returns (uint256 remaining) {\n        return allowed[_owner][_spender];\n    }\n    // .. end of coin functions\n\n\n\n\n\n\n    // Forum functions...\n\n    function createForum(string memory _fname) public returns (bool success){\n      uint256 a = forums[msg.sender].fid;\n      uint256 b = addressForumId[msg.sender];\n      if((a != 0) && (a == b)){\n        revert(\"You already own a forum.\");\n      }\n      forums[msg.sender] = forumData(msg.sender, _fname, forumId, 0);\n      forums[msg.sender].users[0] = userData(msg.sender, _fname, 0);\n      forums[msg.sender].userExists[msg.sender] = true;\n      forums[msg.sender].userKey[msg.sender] = 0;\n      forums[msg.sender].userCount ++;\n      addressForumId[msg.sender] = forumId;\n      fidOwner[forumId] = msg.sender;\n      forumId = forumId + 1;\n      myForums[msg.sender].push(msg.sender);\n      emit CreateForum(true, \"Forum created successfully! \", msg.sender, _fname, forumId);\n      return (true);\n    }\n\n    function getForumCount() public view returns (uint256 id){\n      return (forumId-1);\n    }\n\n    function getForumDataByFid(uint256 _fid) public view returns (address forumOwner, string memory forumName, uint256 fid){\n      address owner = fidOwner[_fid];\n      if(owner == address(0x0))\n        revert(\"Forum does not exists.\");\n      string memory fName = forums[owner].forumName;\n      uint256 id = forums[owner].fid;\n      return(owner, fName, id);\n    }\n\n    function getForumData(address _owner) public view returns (address forumOwner, string memory forumName, uint256 fid){\n      if(addressForumId[msg.sender] == 0){\n        revert(\"Forum does not exists.\");\n      }\n      string memory fName = forums[_owner].forumName;\n      uint256 id = forums[_owner].fid;\n      return(_owner, fName, id);\n    }\n\n    function addUserToForum(address _userAddress, string memory _userName, uint256 _karma) public returns (bool success){\n      if(forums[msg.sender].owner != msg.sender){\n        emit AddUserToForum(false, \"You need to create a forum first. \", _userAddress, _userName);\n        return (false);\n      }\n      if(forums[msg.sender].userExists[_userAddress] == true){\n        emit AddUserToForum(false, \"User already exists. \", _userAddress,  _userName);\n        return (false);\n      }\n      if(!forums[msg.sender].userExists[_userAddress]){\n        forums[msg.sender].userCount++;\n        uint256 newUserCount = forums[msg.sender].userCount;\n        forums[msg.sender].users[newUserCount] = userData(_userAddress, _userName, _karma);\n        forums[msg.sender].userExists[_userAddress] = true;\n        forums[msg.sender].userKey[_userAddress] = newUserCount;\n        myForums[_userAddress].push(msg.sender);\n        emit AddUserToForum(true, \"Member added successfully. \", _userAddress, _userName);\n        return (true);\n\n      }\n      emit AddUserToForum(false, \"Something went wrong. This error is weird, do you suck? \", _userAddress, _userName);\n      return (false);\n    }\n\n    function setKarma(uint256 _karma, address _userAddress) public returns (bool succ){\n      if(forums[msg.sender].owner == address(0x0)){\n        return false;\n      }\n      if(!forums[msg.sender].userExists[_userAddress]){\n        return false;\n      }\n      uint256 ukey = forums[msg.sender].userKey[_userAddress];\n      forums[msg.sender].users[ukey].karma = _karma;\n      return true;\n    }\n\n    function getUserData(address _userAddress) public view returns (bool succ, address _address, string memory _userinfo, uint256 _karma) {\n        if(forums[msg.sender].owner == address(0x0)){\n          return (false, address(0x0), \"You need to create a forum first\", 0);\n        }\n        if(forums[msg.sender].userExists[_userAddress]){\n          uint256 uKey = forums[msg.sender].userKey[_userAddress];\n          address uaddress = forums[msg.sender].users[uKey].userAddress;\n          string memory uname = forums[msg.sender].users[uKey].userName;\n          uint256 karm = forums[msg.sender].users[uKey].karma;\n          return (true, uaddress, uname, karm);\n        }\n        if(!forums[msg.sender].userExists[_userAddress]){\n          return(false, address(0x0), \"This user does not exists in your forum\", 0);\n        }\n        return(false, address(0x0),\"Something went wrong with adding a new member.\", 0);\n    }\n\n    function getUserByUserCount(uint256 _ucount) public view returns (bool _succ, address _userAddress, string memory _userinfo, uint256 _karma){\n      if(forums[msg.sender].owner == address(0x0)){\n        return (false, address(0x0), \"You need to create a forum first\", 0);\n      }\n\n      if((forums[msg.sender].userCount < _ucount ) || _ucount < 0){\n        return (false, address(0x0), \"This user does not exists\", 0);\n      }\n\n      address uaddress = forums[msg.sender].users[_ucount].userAddress;\n      string memory uname = forums[msg.sender].users[_ucount].userName;\n      uint256 karma = forums[msg.sender].users[_ucount].karma;\n      return (true, uaddress, uname, karma);\n      }\n\n\n    function getUserCount() public view returns (uint256 _ucount){\n      return forums[msg.sender].userCount;\n    }\n\n    function getMyInfo(address _admin) public view returns (uint256 _fID, address _forumAddress, address _myAddress, string memory _userName, uint256 _karma) {\n      uint256 key = forums[_admin].userKey[msg.sender];\n      string memory uname = forums[_admin].users[key].userName;\n      uint256 karma = forums[_admin].users[key].karma;\n      uint256 fid = forums[_admin].fid;\n      return (fid, _admin, msg.sender, uname, karma);\n    }\n\n    function getMyInfo(uint256 _fid) public view returns (uint256 _fID, address _forumAddress, address _myAddress, string memory _userName, uint256 _karma) {\n      address admin = fidOwner[_fid];\n      uint256 key = forums[admin].userKey[msg.sender];\n      string memory uname = forums[admin].users[key].userName;\n      uint256 karma = forums[admin].users[key].karma;\n      uint256 fid = forums[admin].fid;\n      return (fid, admin, msg.sender, uname, karma);\n    }\n\n    function getMyForums() public view returns (address [] memory memberList){\n      return myForums[msg.sender];\n    }\n\n    function accForumKarma(address _forum) public view returns (uint256) {\n      uint256 numUsers = forums[_forum].userCount +1;\n      uint256 accKarma = 0;\n      for(uint256 i = 0; i<numUsers; i++){\n        accKarma += forums[_forum].users[i].karma;\n      }\n      return accKarma;\n    }\n\n    function getCheckOutPrice(address _forum) public view returns (uint256 _res){\n      uint256 totKarma = accForumKarma(_forum);\n      uint256 bal = balanceOf(_forum);\n      if(totKarma == 0 || bal == 0) return 0;\n      uint256 rest = bal % totKarma;\n      uint256 res = (bal-rest)/totKarma;\n      return res;\n    }\n\n    function checkOut(address _forum) public returns (bool _succ){\n      uint256 val = getCheckOutPrice(_forum);\n      if (val == 0) return false;\n      uint256 myKey = forums[_forum].userKey[msg.sender];\n      uint256 myKarma = forums[_forum].users[myKey].karma;\n      balances[_forum] -= myKarma*val;\n      balances[msg.sender] += myKarma*val;\n      forums[_forum].users[myKey].karma = 0;\n      return true;\n    }\n\n    event Succ(bool success);\n    event AddUserToForum(bool succ, string info, address _userAddress, string _userName);\n    event CreateForum(bool succ, string info, address self, string fname, uint256 fid);\n}\n",
  "sourcePath": "/home/anton/Documents/Gitz/Exjobb/Exjobb/SaviourCoin/MainApplication/contracts/Forum.sol",
  "compiler": {
    "name": "solc",
    "version": "0.5.16+commit.9c3226ce.Emscripten.clang"
  },
  "schemaVersion": "3.0.23",
  "updatedAt": "2020-05-16T16:16:24.945Z",
  "devdoc": {
    "methods": {}
  },
  "userdoc": {
    "methods": {}
  }
}