{
  "contractName": "Forum",
  "abi": [
    {
      "constant": true,
      "inputs": [],
      "name": "name",
      "outputs": [
        {
          "name": "",
          "type": "string"
        }
      ],
      "payable": false,
      "stateMutability": "view",
      "type": "function",
      "signature": "0x06fdde03"
    },
    {
      "constant": true,
      "inputs": [],
      "name": "totalSupply",
      "outputs": [
        {
          "name": "",
          "type": "uint256"
        }
      ],
      "payable": false,
      "stateMutability": "view",
      "type": "function",
      "signature": "0x18160ddd"
    },
    {
      "constant": true,
      "inputs": [
        {
          "name": "",
          "type": "address"
        }
      ],
      "name": "balances",
      "outputs": [
        {
          "name": "",
          "type": "uint256"
        }
      ],
      "payable": false,
      "stateMutability": "view",
      "type": "function",
      "signature": "0x27e235e3"
    },
    {
      "constant": true,
      "inputs": [],
      "name": "decimals",
      "outputs": [
        {
          "name": "",
          "type": "uint8"
        }
      ],
      "payable": false,
      "stateMutability": "view",
      "type": "function",
      "signature": "0x313ce567"
    },
    {
      "constant": true,
      "inputs": [
        {
          "name": "",
          "type": "address"
        },
        {
          "name": "",
          "type": "address"
        }
      ],
      "name": "allowed",
      "outputs": [
        {
          "name": "",
          "type": "uint256"
        }
      ],
      "payable": false,
      "stateMutability": "view",
      "type": "function",
      "signature": "0x5c658165"
    },
    {
      "constant": true,
      "inputs": [],
      "name": "symbol",
      "outputs": [
        {
          "name": "",
          "type": "string"
        }
      ],
      "payable": false,
      "stateMutability": "view",
      "type": "function",
      "signature": "0x95d89b41"
    },
    {
      "inputs": [
        {
          "name": "_initialAmount",
          "type": "uint256"
        },
        {
          "name": "_tokenName",
          "type": "string"
        },
        {
          "name": "_decimalUnits",
          "type": "uint8"
        },
        {
          "name": "_tokenSymbol",
          "type": "string"
        }
      ],
      "payable": false,
      "stateMutability": "nonpayable",
      "type": "constructor",
      "signature": "constructor"
    },
    {
      "anonymous": false,
      "inputs": [
        {
          "indexed": false,
          "name": "_forum",
          "type": "address"
        },
        {
          "indexed": false,
          "name": "_userAddress",
          "type": "address"
        },
        {
          "indexed": false,
          "name": "_karma",
          "type": "uint256"
        }
      ],
      "name": "SetKarma",
      "type": "event",
      "signature": "0x6e72efde20f4f95dd9fe67aff423f49f00e54450d57a924a4e34d9b4389347fa"
    },
    {
      "anonymous": false,
      "inputs": [
        {
          "indexed": false,
          "name": "_forum",
          "type": "address"
        },
        {
          "indexed": false,
          "name": "_cop",
          "type": "uint256"
        }
      ],
      "name": "SetCashOutPrice",
      "type": "event",
      "signature": "0x1e3a664cad8d6510ba3a8d27e2d38dae9ac0d77c6c9c413c8a05e5f667bf1f1b"
    },
    {
      "anonymous": false,
      "inputs": [
        {
          "indexed": false,
          "name": "_cop",
          "type": "uint256"
        },
        {
          "indexed": false,
          "name": "_karma",
          "type": "uint256"
        },
        {
          "indexed": false,
          "name": "_from",
          "type": "address"
        },
        {
          "indexed": false,
          "name": "_to",
          "type": "address"
        }
      ],
      "name": "CashOut",
      "type": "event",
      "signature": "0x99c66bf0ade74aea49d0ce673e7ec0d12f3cfd12c82f046de9fce19b4058c85c"
    },
    {
      "anonymous": false,
      "inputs": [
        {
          "indexed": false,
          "name": "_userAddress",
          "type": "address"
        },
        {
          "indexed": false,
          "name": "_userName",
          "type": "string"
        },
        {
          "indexed": false,
          "name": "_karma",
          "type": "uint256"
        }
      ],
      "name": "AddUserToForum",
      "type": "event",
      "signature": "0x9563ebf2e8cd8c6e801c3578d24b5ae1daf34409894f28aa09590bcf6b5ba551"
    },
    {
      "anonymous": false,
      "inputs": [
        {
          "indexed": false,
          "name": "_success",
          "type": "bool"
        },
        {
          "indexed": false,
          "name": "_forumAddress",
          "type": "address"
        },
        {
          "indexed": false,
          "name": "_forumName",
          "type": "string"
        },
        {
          "indexed": false,
          "name": "_fid",
          "type": "uint256"
        }
      ],
      "name": "CreateForum",
      "type": "event",
      "signature": "0xdd3369ddaf79b75cbff0e47a0b1d006f335ca8c86536c9ea26f7eb749f9df3fd"
    },
    {
      "anonymous": false,
      "inputs": [
        {
          "indexed": true,
          "name": "_from",
          "type": "address"
        },
        {
          "indexed": true,
          "name": "_to",
          "type": "address"
        },
        {
          "indexed": false,
          "name": "_value",
          "type": "uint256"
        }
      ],
      "name": "Transfer",
      "type": "event",
      "signature": "0xddf252ad1be2c89b69c2b068fc378daa952ba7f163c4a11628f55a4df523b3ef"
    },
    {
      "anonymous": false,
      "inputs": [
        {
          "indexed": true,
          "name": "_owner",
          "type": "address"
        },
        {
          "indexed": true,
          "name": "_spender",
          "type": "address"
        },
        {
          "indexed": false,
          "name": "_value",
          "type": "uint256"
        }
      ],
      "name": "Approval",
      "type": "event",
      "signature": "0x8c5be1e5ebec7d5bd14f71427d1e84f3dd0314c0f7b2291e5b200ac8c7c3b925"
    },
    {
      "constant": false,
      "inputs": [
        {
          "name": "_to",
          "type": "address"
        },
        {
          "name": "_value",
          "type": "uint256"
        }
      ],
      "name": "transfer",
      "outputs": [
        {
          "name": "success",
          "type": "bool"
        }
      ],
      "payable": false,
      "stateMutability": "nonpayable",
      "type": "function",
      "signature": "0xa9059cbb"
    },
    {
      "constant": false,
      "inputs": [
        {
          "name": "_from",
          "type": "address"
        },
        {
          "name": "_to",
          "type": "address"
        },
        {
          "name": "_value",
          "type": "uint256"
        }
      ],
      "name": "transferFrom",
      "outputs": [
        {
          "name": "success",
          "type": "bool"
        }
      ],
      "payable": false,
      "stateMutability": "nonpayable",
      "type": "function",
      "signature": "0x23b872dd"
    },
    {
      "constant": true,
      "inputs": [
        {
          "name": "_owner",
          "type": "address"
        }
      ],
      "name": "balanceOf",
      "outputs": [
        {
          "name": "balance",
          "type": "uint256"
        }
      ],
      "payable": false,
      "stateMutability": "view",
      "type": "function",
      "signature": "0x70a08231"
    },
    {
      "constant": false,
      "inputs": [
        {
          "name": "_spender",
          "type": "address"
        },
        {
          "name": "_value",
          "type": "uint256"
        }
      ],
      "name": "approve",
      "outputs": [
        {
          "name": "success",
          "type": "bool"
        }
      ],
      "payable": false,
      "stateMutability": "nonpayable",
      "type": "function",
      "signature": "0x095ea7b3"
    },
    {
      "constant": true,
      "inputs": [
        {
          "name": "_owner",
          "type": "address"
        },
        {
          "name": "_spender",
          "type": "address"
        }
      ],
      "name": "allowance",
      "outputs": [
        {
          "name": "remaining",
          "type": "uint256"
        }
      ],
      "payable": false,
      "stateMutability": "view",
      "type": "function",
      "signature": "0xdd62ed3e"
    },
    {
      "constant": false,
      "inputs": [
        {
          "name": "_fname",
          "type": "string"
        }
      ],
      "name": "createForum",
      "outputs": [
        {
          "name": "success",
          "type": "bool"
        }
      ],
      "payable": false,
      "stateMutability": "nonpayable",
      "type": "function",
      "signature": "0xa232e64b"
    },
    {
      "constant": true,
      "inputs": [],
      "name": "getForumCount",
      "outputs": [
        {
          "name": "id",
          "type": "uint256"
        }
      ],
      "payable": false,
      "stateMutability": "view",
      "type": "function",
      "signature": "0x83d3f6b7"
    },
    {
      "constant": true,
      "inputs": [
        {
          "name": "_fid",
          "type": "uint256"
        }
      ],
      "name": "getForumDataByFid",
      "outputs": [
        {
          "name": "forumOwner",
          "type": "address"
        },
        {
          "name": "forumName",
          "type": "string"
        },
        {
          "name": "fid",
          "type": "uint256"
        },
        {
          "name": "cop",
          "type": "uint256"
        }
      ],
      "payable": false,
      "stateMutability": "view",
      "type": "function",
      "signature": "0xd341cad1"
    },
    {
      "constant": true,
      "inputs": [
        {
          "name": "_owner",
          "type": "address"
        }
      ],
      "name": "getForumData",
      "outputs": [
        {
          "name": "forumOwner",
          "type": "address"
        },
        {
          "name": "forumName",
          "type": "string"
        },
        {
          "name": "fid",
          "type": "uint256"
        },
        {
          "name": "cop",
          "type": "uint256"
        }
      ],
      "payable": false,
      "stateMutability": "view",
      "type": "function",
      "signature": "0x78f46998"
    },
    {
      "constant": true,
      "inputs": [],
      "name": "getCurrentMCO",
      "outputs": [
        {
          "name": "max",
          "type": "uint256"
        }
      ],
      "payable": false,
      "stateMutability": "view",
      "type": "function",
      "signature": "0xedcf4aca"
    },
    {
      "constant": false,
      "inputs": [
        {
          "name": "_userAddress",
          "type": "address"
        },
        {
          "name": "_userName",
          "type": "string"
        },
        {
          "name": "_karma",
          "type": "uint256"
        }
      ],
      "name": "addUserToForum",
      "outputs": [
        {
          "name": "success",
          "type": "bool"
        }
      ],
      "payable": false,
      "stateMutability": "nonpayable",
      "type": "function",
      "signature": "0xc44782c8"
    },
    {
      "constant": false,
      "inputs": [
        {
          "name": "_karma",
          "type": "uint256"
        },
        {
          "name": "_userAddress",
          "type": "address"
        }
      ],
      "name": "setKarma",
      "outputs": [
        {
          "name": "succ",
          "type": "bool"
        }
      ],
      "payable": false,
      "stateMutability": "nonpayable",
      "type": "function",
      "signature": "0x42382b82"
    },
    {
      "constant": true,
      "inputs": [
        {
          "name": "_userAddress",
          "type": "address"
        }
      ],
      "name": "getUserByAddress",
      "outputs": [
        {
          "name": "usrAddress",
          "type": "address"
        },
        {
          "name": "usrName",
          "type": "string"
        },
        {
          "name": "usrKarma",
          "type": "uint256"
        }
      ],
      "payable": false,
      "stateMutability": "view",
      "type": "function",
      "signature": "0x69c212f6"
    },
    {
      "constant": true,
      "inputs": [
        {
          "name": "_ucount",
          "type": "uint256"
        }
      ],
      "name": "getUserByIndex",
      "outputs": [
        {
          "name": "usrAddress",
          "type": "address"
        },
        {
          "name": "usrName",
          "type": "string"
        },
        {
          "name": "usrKarma",
          "type": "uint256"
        }
      ],
      "payable": false,
      "stateMutability": "view",
      "type": "function",
      "signature": "0xff5d32fe"
    },
    {
      "constant": true,
      "inputs": [],
      "name": "getUserCount",
      "outputs": [
        {
          "name": "_ucount",
          "type": "uint256"
        }
      ],
      "payable": false,
      "stateMutability": "view",
      "type": "function",
      "signature": "0xb5cb15f7"
    },
    {
      "constant": true,
      "inputs": [
        {
          "name": "_admin",
          "type": "address"
        }
      ],
      "name": "getMyInfo",
      "outputs": [
        {
          "name": "_fID",
          "type": "uint256"
        },
        {
          "name": "_forumAddress",
          "type": "address"
        },
        {
          "name": "_myAddress",
          "type": "address"
        },
        {
          "name": "_userName",
          "type": "string"
        },
        {
          "name": "_karma",
          "type": "uint256"
        }
      ],
      "payable": false,
      "stateMutability": "view",
      "type": "function",
      "signature": "0x0a32bf36"
    },
    {
      "constant": true,
      "inputs": [
        {
          "name": "_fid",
          "type": "uint256"
        }
      ],
      "name": "getMyInfoByFid",
      "outputs": [
        {
          "name": "_fID",
          "type": "uint256"
        },
        {
          "name": "_forumAddress",
          "type": "address"
        },
        {
          "name": "_myAddress",
          "type": "address"
        },
        {
          "name": "_userName",
          "type": "string"
        },
        {
          "name": "_karma",
          "type": "uint256"
        },
        {
          "name": "_cop",
          "type": "uint256"
        },
        {
          "name": "_forumName",
          "type": "string"
        }
      ],
      "payable": false,
      "stateMutability": "view",
      "type": "function",
      "signature": "0x0d5c846b"
    },
    {
      "constant": true,
      "inputs": [
        {
          "name": "_fid",
          "type": "uint256"
        }
      ],
      "name": "getMemberStatus",
      "outputs": [
        {
          "name": "_fID",
          "type": "uint256"
        },
        {
          "name": "success",
          "type": "bool"
        }
      ],
      "payable": false,
      "stateMutability": "view",
      "type": "function",
      "signature": "0x7d0d719b"
    },
    {
      "constant": true,
      "inputs": [
        {
          "name": "_forum",
          "type": "address"
        }
      ],
      "name": "accForumKarma",
      "outputs": [
        {
          "name": "",
          "type": "uint256"
        }
      ],
      "payable": false,
      "stateMutability": "view",
      "type": "function",
      "signature": "0xbcb1a325"
    },
    {
      "constant": false,
      "inputs": [
        {
          "name": "p",
          "type": "uint256"
        }
      ],
      "name": "setCashOutPrice",
      "outputs": [
        {
          "name": "coPrice",
          "type": "uint256"
        }
      ],
      "payable": false,
      "stateMutability": "nonpayable",
      "type": "function",
      "signature": "0x1d654eea"
    },
    {
      "constant": true,
      "inputs": [
        {
          "name": "_forum",
          "type": "address"
        }
      ],
      "name": "getCashOutPrice",
      "outputs": [
        {
          "name": "fcop",
          "type": "uint256"
        }
      ],
      "payable": false,
      "stateMutability": "view",
      "type": "function",
      "signature": "0x9c2ebaaa"
    },
    {
      "constant": false,
      "inputs": [
        {
          "name": "_forum",
          "type": "address"
        }
      ],
      "name": "cashOut",
      "outputs": [
        {
          "name": "_succ",
          "type": "bool"
        }
      ],
      "payable": false,
      "stateMutability": "nonpayable",
      "type": "function",
      "signature": "0xd8a71364"
    }
  ],
  "bytecode": "0x60806040523480156200001157600080fd5b5060405162002a7938038062002a79833981018060405260808110156200003757600080fd5b8151602083018051919392830192916401000000008111156200005957600080fd5b820160208101848111156200006d57600080fd5b81516401000000008111828201871017156200008857600080fd5b50506020820151604090920180519194929391640100000000811115620000ae57600080fd5b82016020810184811115620000c257600080fd5b8151640100000000811182820187101715620000dd57600080fd5b505033600090815260016020908152604082208990559088905586519194506200010f93506003925086019062000145565b506004805460ff191660ff841617905580516200013490600590602084019062000145565b5050600160085550620001ea915050565b828054600181600116156101000203166002900490600052602060002090601f016020900481019282601f106200018857805160ff1916838001178555620001b8565b82800160010185558215620001b8579182015b82811115620001b85782518255916020019190600101906200019b565b50620001c6929150620001ca565b5090565b620001e791905b80821115620001c65760008155600101620001d1565b90565b61287f80620001fa6000396000f3fe6080604052600436106101695763ffffffff7c010000000000000000000000000000000000000000000000000000000060003504166306fdde03811461016e578063095ea7b3146101f85780630a32bf36146102455780630d5c846b1461033057806318160ddd1461047f5780631d654eea146104a657806323b872dd146104d057806327e235e314610513578063313ce5671461054657806342382b82146105715780635c658165146105aa57806369c212f6146105e557806370a08231146106a657806378f46998146106d95780637d0d719b146107ab57806383d3f6b7146107ee57806395d89b41146108035780639c2ebaaa14610818578063a232e64b1461084b578063a9059cbb146108fe578063b5cb15f714610937578063bcb1a3251461094c578063c44782c81461097f578063d341cad114610a44578063d8a7136414610a6e578063dd62ed3e14610aa1578063edcf4aca14610adc578063ff5d32fe14610af1575b600080fd5b34801561017a57600080fd5b50610183610b1b565b6040805160208082528351818301528351919283929083019185019080838360005b838110156101bd5781810151838201526020016101a5565b50505050905090810190601f1680156101ea5780820380516001836020036101000a031916815260200191505b509250505060405180910390f35b34801561020457600080fd5b506102316004803603604081101561021b57600080fd5b50600160a060020a038135169060200135610ba9565b604080519115158252519081900360200190f35b34801561025157600080fd5b506102786004803603602081101561026857600080fd5b5035600160a060020a0316610c0f565b6040518086815260200185600160a060020a0316600160a060020a0316815260200184600160a060020a0316600160a060020a0316815260200180602001838152602001828103825284818151815260200191508051906020019080838360005b838110156102f15781810151838201526020016102d9565b50505050905090810190601f16801561031e5780820380516001836020036101000a031916815260200191505b50965050505050505060405180910390f35b34801561033c57600080fd5b5061035a6004803603602081101561035357600080fd5b5035610dc8565b6040518088815260200187600160a060020a0316600160a060020a0316815260200186600160a060020a0316600160a060020a031681526020018060200185815260200184815260200180602001838103835287818151815260200191508051906020019080838360005b838110156103dd5781810151838201526020016103c5565b50505050905090810190601f16801561040a5780820380516001836020036101000a031916815260200191505b50838103825284518152845160209182019186019080838360005b8381101561043d578181015183820152602001610425565b50505050905090810190601f16801561046a5780820380516001836020036101000a031916815260200191505b50995050505050505050505060405180910390f35b34801561048b57600080fd5b50610494611041565b60408051918252519081900360200190f35b3480156104b257600080fd5b50610494600480360360208110156104c957600080fd5b5035611047565b3480156104dc57600080fd5b50610231600480360360608110156104f357600080fd5b50600160a060020a03813581169160208101359091169060400135611146565b34801561051f57600080fd5b506104946004803603602081101561053657600080fd5b5035600160a060020a031661124a565b34801561055257600080fd5b5061055b61125c565b6040805160ff9092168252519081900360200190f35b34801561057d57600080fd5b506102316004803603604081101561059457600080fd5b5080359060200135600160a060020a0316611265565b3480156105b657600080fd5b50610494600480360360408110156105cd57600080fd5b50600160a060020a03813581169160200135166114dd565b3480156105f157600080fd5b506106186004803603602081101561060857600080fd5b5035600160a060020a03166114fa565b60408051600160a060020a0385168152908101829052606060208083018281528551928401929092528451608084019186019080838360005b83811015610669578181015183820152602001610651565b50505050905090810190601f1680156106965780820380516001836020036101000a031916815260200191505b5094505050505060405180910390f35b3480156106b257600080fd5b50610494600480360360208110156106c957600080fd5b5035600160a060020a0316611701565b3480156106e557600080fd5b5061070c600480360360208110156106fc57600080fd5b5035600160a060020a031661171c565b6040518085600160a060020a0316600160a060020a0316815260200180602001848152602001838152602001828103825285818151815260200191508051906020019080838360005b8381101561076d578181015183820152602001610755565b50505050905090810190601f16801561079a5780820380516001836020036101000a031916815260200191505b509550505050505060405180910390f35b3480156107b757600080fd5b506107d5600480360360208110156107ce57600080fd5b503561187f565b6040805192835290151560208301528051918290030190f35b3480156107fa57600080fd5b506104946118b8565b34801561080f57600080fd5b506101836118c3565b34801561082457600080fd5b506104946004803603602081101561083b57600080fd5b5035600160a060020a031661191e565b34801561085757600080fd5b506102316004803603602081101561086e57600080fd5b81019060208101813564010000000081111561088957600080fd5b82018360208201111561089b57600080fd5b803590602001918460018302840111640100000000831117156108bd57600080fd5b91908080601f01602080910402602001604051908101604052809392919081815260200183838082843760009201919091525092955061193c945050505050565b34801561090a57600080fd5b506102316004803603604081101561092157600080fd5b50600160a060020a038135169060200135611c16565b34801561094357600080fd5b50610494611ca0565b34801561095857600080fd5b506104946004803603602081101561096f57600080fd5b5035600160a060020a0316611cb6565b34801561098b57600080fd5b50610231600480360360608110156109a257600080fd5b600160a060020a0382351691908101906040810160208201356401000000008111156109cd57600080fd5b8201836020820111156109df57600080fd5b80359060200191846001830284011164010000000083111715610a0157600080fd5b91908080601f0160208091040260200160405190810160405280939291908181526020018383808284376000920191909152509295505091359250611d1f915050565b348015610a5057600080fd5b5061070c60048036036020811015610a6757600080fd5b5035612088565b348015610a7a57600080fd5b5061023160048036036020811015610a9157600080fd5b5035600160a060020a03166121f4565b348015610aad57600080fd5b5061049460048036036040811015610ac457600080fd5b50600160a060020a038135811691602001351661257e565b348015610ae857600080fd5b506104946125a9565b348015610afd57600080fd5b5061061860048036036020811015610b1457600080fd5b50356125d1565b6003805460408051602060026001851615610100026000190190941693909304601f81018490048402820184019092528181529291830182828015610ba15780601f10610b7657610100808354040283529160200191610ba1565b820191906000526020600020905b815481529060010190602001808311610b8457829003601f168201915b505050505081565b336000818152600260209081526040808320600160a060020a038716808552908352818420869055815186815291519394909390927f8c5be1e5ebec7d5bd14f71427d1e84f3dd0314c0f7b2291e5b200ac8c7c3b925928290030190a350600192915050565b600160a060020a038116600090815260066020908152604080832033845260070190915281205481908190606090829060ff16801515610cbf576040805160e560020a62461bcd02815260206004820152602360248201527f596f7520617265206e6f742061206d656d62657220696e207468697320666f7260448201527f756d2e0000000000000000000000000000000000000000000000000000000000606482015290519081900360840190fd5b600160a060020a03871660009081526006602081815260408084203385529283018252808420548085526005909301825292839020600190810180548551600293821615610100026000190190911692909204601f810184900484028301840190955284825292936060939192830182828015610d7d5780601f10610d5257610100808354040283529160200191610d7d565b820191906000526020600020905b815481529060010190602001808311610d6057829003601f168201915b50505050600160a060020a038b16600081815260066020818152604080842098845260058901825283206002908101549490935252909401549b339a50919850929650945050505050565b600081815260076020818152604080842054600160a060020a0316808552600683528185203386529093019091528220548291829160609183918291849160ff16801515610e86576040805160e560020a62461bcd02815260206004820152602360248201527f596f7520617265206e6f742061206d656d62657220696e207468697320666f7260448201527f756d2e0000000000000000000000000000000000000000000000000000000000606482015290519081900360840190fd5b600160a060020a03821660009081526006602081815260408084203385529283018252808420548085526005909301825292839020600190810180548551600293821615610100026000190190911692909204601f810184900484028301840190955284825292936060939192830182828015610f445780601f10610f1957610100808354040283529160200191610f44565b820191906000526020600020905b815481529060010190602001808311610f2757829003601f168201915b50505050600160a060020a0386166000818152600660208181526040808420898552600581018352818520600290810154969095529282528383015460048401546001948501805484519681161561010002600019011696909604601f810185900485028601850190935282855297985094969495506060939183018282801561100f5780601f10610fe45761010080835404028352916020019161100f565b820191906000526020600020905b815481529060010190602001808311610ff257829003601f168201915b50505050509050828833878786868494509e509e509e509e509e509e509e505050505050505050919395979092949650565b60005481565b60008061105333611cb6565b905061105e33611701565b83820211156110dd576040805160e560020a62461bcd02815260206004820152602f60248201527f546f20686967682e20417175697265206d6f72652073636f6e6573206f72207460448201527f72792061206c6f77657220434f502e0000000000000000000000000000000000606482015290519081900360840190fd5b336000818152600660209081526040918290206004018690558151928352820185905280517f1e3a664cad8d6510ba3a8d27e2d38dae9ac0d77c6c9c413c8a05e5f667bf1f1b9281900390910190a1505033600090815260066020526040902060040154919050565b600160a060020a0383166000818152600260209081526040808320338452825280832054938352600190915281205490919083118015906111875750828110155b151561119257600080fd5b600160a060020a03808516600090815260016020526040808220805487019055918716815220805484900390556000198110156111f457600160a060020a03851660009081526002602090815260408083203384529091529020805484900390555b83600160a060020a031685600160a060020a03167fddf252ad1be2c89b69c2b068fc378daa952ba7f163c4a11628f55a4df523b3ef856040518082815260200191505060405180910390a3506001949350505050565b60016020526000908152604090205481565b60045460ff1681565b33600090815260066020526040812054600160a060020a031615156112e8576040805160e560020a62461bcd028152602060048201526021602482015260008051602061283483398151915260448201527f2e00000000000000000000000000000000000000000000000000000000000000606482015290519081900360840190fd5b336000908152600660209081526040808320600160a060020a038616845260070190915290205460ff16151561138e576040805160e560020a62461bcd02815260206004820152602760248201527f54686973207573657220646f6573206e6f7420657869737420696e20796f757260448201527f20666f72756d2e00000000000000000000000000000000000000000000000000606482015290519081900360840190fd5b61139733611701565b3360009081526006602052604090206004015484026113b46125a9565b011115611457576040805160e560020a62461bcd02815260206004820152604960248201527f5573657220697320676976656e20746f6f206d756368206b61726d612e20596f60448201527f75722062616c616365206d69676874206e6f742062652061626c6520746f206860648201527f616e646c652069742e0000000000000000000000000000000000000000000000608482015290519081900360a40190fd5b336000818152600660208181526040808420600160a060020a03881680865293810183528185205480865260059091018352938190206002018890558051948552908401919091528281018690525190917f6e72efde20f4f95dd9fe67aff423f49f00e54450d57a924a4e34d9b4389347fa919081900360600190a15060019392505050565b600260209081526000928352604080842090915290825290205481565b336000908152600660205260408120546060908290600160a060020a03161515611582576040805160e560020a62461bcd028152602060048201526021602482015260008051602061283483398151915260448201527f2e00000000000000000000000000000000000000000000000000000000000000606482015290519081900360840190fd5b336000908152600660209081526040808320600160a060020a038816845260070190915290205460ff161515611602576040805160e560020a62461bcd02815260206004820152601960248201527f54686973207573657220646f6573206e6f742065786973742e00000000000000604482015290519081900360640190fd5b336000908152600660208181526040808420600160a060020a03898116865293810183528185205480865260059091018352938190208054600191820180548451600261010095831615959095026000190190911693909304601f8101869004860284018601909452838352941693606093919290918301828280156116c95780601f1061169e576101008083540402835291602001916116c9565b820191906000526020600020905b8154815290600101906020018083116116ac57829003601f168201915b5050336000908152600660209081526040808320998352600590990190529690962060020154949a9299509397509095505050505050565b600160a060020a031660009081526001602052604090205490565b33600090815260096020526040812054606090829081901515611789576040805160e560020a62461bcd02815260206004820152601560248201527f466f72756d20646f6573206e6f742065786973742e0000000000000000000000604482015290519081900360640190fd5b60606006600087600160a060020a0316600160a060020a031681526020019081526020016000206001018054600181600116156101000203166002900480601f0160208091040260200160405190810160405280929190818152602001828054600181600116156101000203166002900480156118475780601f1061181c57610100808354040283529160200191611847565b820191906000526020600020905b81548152906001019060200180831161182a57829003601f168201915b50505050600160a060020a03881660009081526006602052604090206002810154600490910154989992989097509550909350505050565b600081815260076020818152604080842054600160a060020a03168452600682528084203385529092019052902054819060ff16915091565b600854600019015b90565b6005805460408051602060026001851615610100026000190190941693909304601f81018490048402820184019092528181529291830182828015610ba15780601f10610b7657610100808354040283529160200191610ba1565b600160a060020a031660009081526006602052604090206004015490565b336000908152600660209081526040808320600201546009909252822054811580159061196857508082145b156119bd576040805160e560020a62461bcd02815260206004820152601860248201527f596f7520616c7265616479206f776e206120666f72756d2e0000000000000000604482015290519081900360640190fd5b6040805160a081018252338082526020808301888152600854848601526000606085018190526080850181905292835260068252939091208251815473ffffffffffffffffffffffffffffffffffffffff1916600160a060020a0390911617815592518051929392611a35926001850192019061279b565b5060408281015160028301556060808401516003840155608090930151600490920191909155805191820181523380835260208084018881526000858501819052928352600682528383208380526005018252929091208351815473ffffffffffffffffffffffffffffffffffffffff1916600160a060020a0390911617815591518051611ac9926001850192019061279b565b506040918201516002918201553360008181526006602081815285832060078082018352878520805460ff1916600190811790915582850184528886208690556003830180548201905560088054600986528a88208190558752918452888620805473ffffffffffffffffffffffffffffffffffffffff191688179055815481019091558585529282529094015485518281528086018590526060810182905260809681018781528b51978201979097528a517fdd3369ddaf79b75cbff0e47a0b1d006f335ca8c86536c9ea26f7eb749f9df3fd9793968c959394929360a085019291870191908190849084905b83811015611bcf578181015183820152602001611bb7565b50505050905090810190601f168015611bfc5780820380516001836020036101000a031916815260200191505b509550505050505060405180910390a15060019392505050565b33600090815260016020526040812054821115611c3257600080fd5b33600081815260016020908152604080832080548790039055600160a060020a03871680845292819020805487019055805186815290519293927fddf252ad1be2c89b69c2b068fc378daa952ba7f163c4a11628f55a4df523b3ef929181900390910190a350600192915050565b3360009081526006602052604090206003015490565b600160a060020a03811660009081526006602052604081206003015460010181805b82811015611d1757600160a060020a03851660009081526006602090815260408083208484526005019091529020600201549190910190600101611cd8565b509392505050565b336000818152600660205260408120549091600160a060020a0390911614611da5576040805160e560020a62461bcd028152602060048201526021602482015260008051602061283483398151915260448201527f2e00000000000000000000000000000000000000000000000000000000000000606482015290519081900360840190fd5b336000908152600660209081526040808320600160a060020a038816845260070190915290205460ff16151560011415611e29576040805160e560020a62461bcd02815260206004820152601460248201527f5573657220616c7265616479206578697374732e000000000000000000000000604482015290519081900360640190fd5b611e3233611701565b336000908152600660205260409020600401548302611e4f6125a9565b011115611ef2576040805160e560020a62461bcd02815260206004820152604960248201527f5573657220697320676976656e20746f6f206d756368206b61726d612e20596f60448201527f75722062616c616365206d69676874206e6f742062652061626c6520746f206860648201527f616e646c652069742e0000000000000000000000000000000000000000000000608482015290519081900360a40190fd5b33600090815260066020908152604080832060038101548251606081018452600160a060020a038a811682528186018a81528286018a905283885260059094018652939095208551815473ffffffffffffffffffffffffffffffffffffffff1916941693909317835590518051919493611f749260018501929091019061279b565b506040918201516002919091015533600081815260066020818152848320600160a060020a038b16808552600782018352868520805460ff19166001908117909155828501845287862089905595855292825260030180549094019093558351908152928301869052606083830181815288519185019190915287517f9563ebf2e8cd8c6e801c3578d24b5ae1daf34409894f28aa09590bcf6b5ba551948a948a948a94929360808501928701918190849084905b83811015612041578181015183820152602001612029565b50505050905090810190601f16801561206e5780820380516001836020036101000a031916815260200191505b5094505050505060405180910390a1506001949350505050565b60008181526007602052604081205460609082908190600160a060020a03168015156120fe576040805160e560020a62461bcd02815260206004820152601560248201527f466f72756d20646f6573206e6f742065786973742e0000000000000000000000604482015290519081900360640190fd5b60606006600083600160a060020a0316600160a060020a031681526020019081526020016000206001018054600181600116156101000203166002900480601f0160208091040260200160405190810160405280929190818152602001828054600181600116156101000203166002900480156121bc5780601f10612191576101008083540402835291602001916121bc565b820191906000526020600020905b81548152906001019060200180831161219f57829003601f168201915b50505050600160a060020a03841660009081526006602052604090206002810154600490910154949a92995097509295509350505050565b600160a060020a0381166000908152600660205260408120600201541515612266576040805160e560020a62461bcd02815260206004820152601460248201527f466f72756d20646f6573206e6f74206578697374000000000000000000000000604482015290519081900360640190fd5b600160a060020a03821660009081526006602052604090206004015415156122d8576040805160e560020a62461bcd02815260206004820152601b60248201527f436173682d6f757420707269636520697320302073636f6e65732e0000000000604482015290519081900360640190fd5b600160a060020a038216600090815260066020908152604080832033845260070190915290205460ff16151561237e576040805160e560020a62461bcd02815260206004820152602360248201527f596f7520617265206e6f742061206d656d62657220696e207468697320666f7260448201527f756d2e0000000000000000000000000000000000000000000000000000000000606482015290519081900360840190fd5b600160a060020a038216600090815260066020818152604080842033855292830182528084205480855260059093019091529091206002015480151561240e576040805160e560020a62461bcd02815260206004820152601b60248201527f596f75206e656564206b61726d6120746f2063617368206f75742e0000000000604482015290519081900360640190fd5b600160a060020a03841660009081526006602090815260408083206004015460019092529091205482820211156124db576040805160e560020a62461bcd02815260206004820152604a60248201527f596f752063616e206e6f742063617368206f75742073696e636520666f72756d60448201527f20646f6573206e6f7420686176652073756666696369656e7420616d6f756e7460648201527f206f662073636f6e657300000000000000000000000000000000000000000000608482015290519081900360a40190fd5b600160a060020a038516600081815260016020908152604080832080548787029081900390915533808552828520805490920190915584845260068352818420888552600501835281842060020193909355805185815291820186905281810193909352606081019190915290517f99c66bf0ade74aea49d0ce673e7ec0d12f3cfd12c82f046de9fce19b4058c85c9181900360800190a1506001949350505050565b600160a060020a03918216600090815260026020908152604080832093909416825291909152205490565b3360008181526006602052604081206004015490918291906125ca90611cb6565b0291505090565b336000908152600660205260408120546060908290600160a060020a03161515612633576040805160e560020a62461bcd0281526020600482018190526024820152600080516020612834833981519152604482015290519081900360640190fd5b336000908152600660209081526040808320878452600501909152902054600160a060020a031615156126b0576040805160e560020a62461bcd02815260206004820152601960248201527f54686973207573657220646f6573206e6f742065786973742e00000000000000604482015290519081900360640190fd5b3360009081526006602090815260408083208784526005018252918290208054600191820180548551600261010095831615959095026000190190911693909304601f8101859004850284018501909552848352600160a060020a03909116936060938301828280156127645780601f1061273957610100808354040283529160200191612764565b820191906000526020600020905b81548152906001019060200180831161274757829003601f168201915b50503360009081526006602090815260408083208d8452600501909152902060020154959850929650939450505050509193909250565b828054600181600116156101000203166002900490600052602060002090601f016020900481019282601f106127dc57805160ff1916838001178555612809565b82800160010185558215612809579182015b828111156128095782518255916020019190600101906127ee565b50612815929150612819565b5090565b6118c091905b80821115612815576000815560010161281f56fe596f75206e65656420746f20637265617465206120666f72756d206669727374a165627a7a72305820feb8bf36b951ddda7ba96a5124f191a2eafa9cd6b129c1a0f6e6be6e3db92db30029",
  "source": "/*\nImplements EIP20 token standard: https://github.com/ethereum/EIPs/blob/master/EIPS/eip-20.md\n.*/\n\n\npragma solidity ^0.5.0;\n\nimport \"./EIP20Interface.sol\";\n\n\ncontract Forum is EIP20Interface {\n    // The coin\n    uint256 constant private MAX_UINT256 = 2**256 - 1;\n    mapping (address => uint256) public balances;\n    mapping (address => mapping (address => uint256)) public allowed;\n\n    string public name;\n    uint8 public decimals;\n    string public symbol;\n\n    // Forum\n    mapping (address => forumData) private forums;    // An address can hold a forum\n    mapping (uint => address) private fidOwner;       // A forumID (fid) is mapped to an owner of a forum with this fid.\n    uint256 private forumId;                          // Increments when a new forum is created\n    mapping (address => uint256) addressForumId;\n\n    struct forumData{\n      address owner;\n      string forumName;\n      uint256 fid;\n      uint256 userCount;\n      uint256 cop;\n      mapping(uint256 => userData) users;\n      mapping(address => uint256) userKey; //Equal to next userCount.\n      mapping(address => bool) userExists;\n    }\n\n    struct userData{\n      address userAddress;\n      string userName;\n      uint256 karma;\n      }\n\n    constructor (\n        uint256 _initialAmount,\n        string memory _tokenName,\n        uint8 _decimalUnits,\n        string memory _tokenSymbol\n    ) public {\n        balances[msg.sender] = _initialAmount;\n        totalSupply = _initialAmount;\n        name = _tokenName;\n        decimals = _decimalUnits;\n        symbol = _tokenSymbol;\n        forumId = 1;\n    }\n\n    // Coin functions...\n    function transfer(address _to, uint256 _value) public returns (bool success) {\n        require(balances[msg.sender] >= _value);\n        balances[msg.sender] -= _value;\n        balances[_to] += _value;\n        emit Transfer(msg.sender, _to, _value); //solhint-disable-line indent, no-unused-vars\n        return true;\n    }\n\n    function transferFrom(address _from, address _to, uint256 _value) public returns (bool success) {\n        uint256 allowance = allowed[_from][msg.sender];\n        require(balances[_from] >= _value && allowance >= _value);\n        balances[_to] += _value;\n        balances[_from] -= _value;\n        if (allowance < MAX_UINT256) {\n            allowed[_from][msg.sender] -= _value;\n        }\n        emit Transfer(_from, _to, _value); //solhint-disable-line indent, no-unused-vars\n        return true;\n    }\n\n    function balanceOf(address _owner) public view returns (uint256 balance) {\n        return balances[_owner];\n    }\n\n    function approve(address _spender, uint256 _value) public returns (bool success) {\n        allowed[msg.sender][_spender] = _value;\n        emit Approval(msg.sender, _spender, _value); //solhint-disable-line indent, no-unused-vars\n        return true;\n    }\n\n    function allowance(address _owner, address _spender) public view returns (uint256 remaining) {\n        return allowed[_owner][_spender];\n    }\n    // .. end of coin functions\n\n\n\n    // Forum functions...\n\n    function createForum(string memory _fname) public returns (bool success){\n      uint256 a = forums[msg.sender].fid;\n      uint256 b = addressForumId[msg.sender];\n      if((a != 0) && (a == b)){\n        revert(\"You already own a forum.\");\n      }\n      forums[msg.sender] = forumData(msg.sender, _fname, forumId, 0, 0);\n      forums[msg.sender].users[0] = userData(msg.sender, _fname, 0);\n      forums[msg.sender].userExists[msg.sender] = true;\n      forums[msg.sender].userKey[msg.sender] = 0;\n      forums[msg.sender].userCount ++;\n      addressForumId[msg.sender] = forumId;\n      fidOwner[forumId] = msg.sender;\n      forumId = forumId + 1;\n      emit CreateForum(true, msg.sender, _fname, forums[msg.sender].fid);\n      return (true);\n    }\n    function getForumCount() public view returns (uint256 id){\n      return (forumId-1);\n    }\n\n    function getForumDataByFid(uint256 _fid) public view returns (address forumOwner, string memory forumName, uint256 fid, uint256 cop){\n      address owner = fidOwner[_fid];\n      if(owner == address(0x0))\n        revert(\"Forum does not exist.\");\n      string memory fName = forums[owner].forumName;\n      uint256 id = forums[owner].fid;\n      uint256 fcop = forums[owner].cop;\n      return(owner, fName, id, fcop);\n    }\n\n    function getForumData(address _owner) public view returns (address forumOwner, string memory forumName, uint256 fid, uint256 cop){\n      if(addressForumId[msg.sender] == 0){\n        revert(\"Forum does not exist.\");\n      }\n      string memory fName = forums[_owner].forumName;\n      uint256 id = forums[_owner].fid;\n      uint256 fcop = forums[_owner].cop;\n      return(_owner, fName, id, fcop);\n    }\n    //Max cash out, that is if all users were to cash out.\n    function getCurrentMCO() public view returns (uint256 max){\n      uint256 res = accForumKarma(msg.sender) * forums[msg.sender].cop;\n      return res;\n    }\n\n    function addUserToForum(address _userAddress, string memory _userName, uint256 _karma) public returns (bool success){\n      if(forums[msg.sender].owner != msg.sender){\n        revert(\"You need to create a forum first.\");\n      }\n      if(forums[msg.sender].userExists[_userAddress] == true){\n        revert(\"User already exists.\");\n      }\n      if(( getCurrentMCO() + ( forums[msg.sender].cop * _karma)) > balanceOf(msg.sender))\n        revert(\"User is given too much karma. Your balace might not be able to handle it.\"); //t\n\n        uint256 newUserCount = forums[msg.sender].userCount;\n        forums[msg.sender].users[newUserCount] = userData(_userAddress, _userName, _karma);\n        forums[msg.sender].userExists[_userAddress] = true;\n        forums[msg.sender].userKey[_userAddress] = newUserCount;\n        forums[msg.sender].userCount++;\n        emit AddUserToForum(_userAddress, _userName, _karma);\n        return (true);\n    }\n\n    function setKarma(uint256 _karma, address _userAddress) public returns (bool succ){\n      if(forums[msg.sender].owner == address(0x0)){\n        revert(\"You need to create a forum first.\"); //t\n      }\n      if(!forums[msg.sender].userExists[_userAddress]){\n        revert(\"This user does not exist in your forum.\"); //t\n      }\n      if(( getCurrentMCO() + ( forums[msg.sender].cop * _karma)) > balanceOf(msg.sender))\n        revert(\"User is given too much karma. Your balace might not be able to handle it.\"); //t\n\n      uint256 ukey = forums[msg.sender].userKey[_userAddress];\n      forums[msg.sender].users[ukey].karma = _karma;\n      emit SetKarma(msg.sender, _userAddress, _karma);\n      return true;\n    }\n\n    function getUserByAddress(address _userAddress) public view returns (address usrAddress, string memory usrName, uint256 usrKarma) {\n        if(forums[msg.sender].owner == address(0x0)){\n          revert(\"You need to create a forum first.\");\n        }\n        if(!forums[msg.sender].userExists[_userAddress]){\n          revert(\"This user does not exist.\");\n        }\n        uint256 uKey = forums[msg.sender].userKey[_userAddress];\n        address uaddress = forums[msg.sender].users[uKey].userAddress;\n        string memory uname = forums[msg.sender].users[uKey].userName;\n        uint256 ukarma = forums[msg.sender].users[uKey].karma;\n        return (uaddress, uname, ukarma);\n    }\n\n    function getUserByIndex(uint256 _ucount) public view returns (address usrAddress, string memory usrName, uint256 usrKarma){\n      if(forums[msg.sender].owner == address(0x0)){\n        revert(\"You need to create a forum first\");\n      }\n\n      if(forums[msg.sender].users[_ucount].userAddress == address(0x0)){\n        revert(\"This user does not exist.\");\n      }\n      address uaddress = forums[msg.sender].users[_ucount].userAddress;\n      string memory uname = forums[msg.sender].users[_ucount].userName;\n      uint256 ukarma = forums[msg.sender].users[_ucount].karma;\n      return (uaddress, uname, ukarma);\n      }\n\n    function getUserCount() public view returns (uint256 _ucount){\n      return forums[msg.sender].userCount;\n    }\n\n    function getMyInfo(address _admin) public view returns (uint256 _fID, address _forumAddress, address _myAddress, string memory _userName, uint256 _karma) {\n      bool exists = forums[_admin].userExists[msg.sender];\n      if(!exists)\n        revert(\"You are not a member in this forum.\");\n      uint256 key = forums[_admin].userKey[msg.sender];\n      string memory uname = forums[_admin].users[key].userName;\n      uint256 karma = forums[_admin].users[key].karma;\n      uint256 fid = forums[_admin].fid;\n      return (fid, _admin, msg.sender, uname, karma);\n    }\n\n    function getMyInfoByFid(uint256 _fid) public view returns (uint256 _fID, address _forumAddress, address _myAddress, string memory _userName, uint256 _karma, uint256 _cop, string memory _forumName) {\n      address admin = fidOwner[_fid];\n      bool exists = forums[admin].userExists[msg.sender];\n      if(!exists)\n        revert(\"You are not a member in this forum.\");\n      uint256 key = forums[admin].userKey[msg.sender];\n      string memory uname = forums[admin].users[key].userName;\n      uint256 karma = forums[admin].users[key].karma;\n      uint256 fid = forums[admin].fid;\n      uint256 cop = forums[admin].cop;\n      string memory fname = forums[admin].forumName;\n      return (fid, admin, msg.sender, uname, karma, cop, fname);\n    }\n\n    function getMemberStatus(uint256 _fid) public view returns (uint256 _fID, bool success){\n      address admin = fidOwner[_fid];\n      return (_fid, forums[admin].userExists[msg.sender]);\n    }\n\n    function accForumKarma(address _forum) public view returns (uint256) {\n      uint256 numUsers = forums[_forum].userCount +1;\n      uint256 accKarma = 0;\n      for(uint256 i = 0; i<numUsers; i++){\n        accKarma += forums[_forum].users[i].karma;\n      }\n      return accKarma;\n    }\n\n    function setCashOutPrice(uint256 p) public returns (uint256 coPrice){\n      uint256 accKarma = accForumKarma(msg.sender);\n      if(accKarma * p > balanceOf(msg.sender))\n        revert(\"To high. Aquire more scones or try a lower COP.\");\n      forums[msg.sender].cop = p;\n      emit SetCashOutPrice(msg.sender, forums[msg.sender].cop);\n      return forums[msg.sender].cop;\n    }\n\n    function getCashOutPrice(address _forum) public view returns (uint256 fcop){\n      return forums[_forum].cop;\n    }\n\n    function cashOut(address _forum) public returns (bool _succ){\n      if (forums[_forum].fid == 0)\n        revert(\"Forum does not exist\");\n\n      if (forums[_forum].cop == 0)\n        revert(\"Cash-out price is 0 scones.\");\n      if(!forums[_forum].userExists[msg.sender])\n        revert(\"You are not a member in this forum.\");\n\n      uint256 myKey = forums[_forum].userKey[msg.sender];\n      uint256 myKarma = forums[_forum].users[myKey].karma;\n      if(myKarma == 0)\n        revert(\"You need karma to cash out.\");\n\n      uint256 price = forums[_forum].cop;\n      if(balances[_forum] < myKarma*price)\n        revert(\"You can not cash out since forum does not have sufficient amount of scones\");\n      balances[_forum] -= myKarma*price;\n      balances[msg.sender] += myKarma*price;\n      forums[_forum].users[myKey].karma = 0;\n      emit CashOut(price, myKarma, _forum, msg.sender);\n      return true;\n    }\n\n    event SetKarma(address _forum, address _userAddress, uint256 _karma);\n    event SetCashOutPrice(address _forum, uint256 _cop);\n    event CashOut(uint256 _cop, uint256 _karma, address _from, address _to);\n    event AddUserToForum(address _userAddress, string _userName, uint256 _karma);\n    event CreateForum(bool _success, address _forumAddress, string _forumName, uint256 _fid);\n}\n",
  "sourcePath": "/home/uhrej/Git/Exjobb/SaviourCoin/MainApplication/contracts/Forum.sol",
  "compiler": {
    "name": "solc",
    "version": "0.5.0+commit.1d4f565a.Emscripten.clang"
  },
  "schemaVersion": "3.0.1",
  "updatedAt": "2020-05-19T21:54:42.444Z",
  "devdoc": {
    "methods": {}
  },
  "userdoc": {
    "methods": {}
  }
}