{
  "contractName": "Forum",
  "abi": [
    {
      "inputs": [
        {
          "internalType": "uint256",
          "name": "_initialAmount",
          "type": "uint256"
        },
        {
          "internalType": "string",
          "name": "_tokenName",
          "type": "string"
        },
        {
          "internalType": "uint8",
          "name": "_decimalUnits",
          "type": "uint8"
        },
        {
          "internalType": "string",
          "name": "_tokenSymbol",
          "type": "string"
        }
      ],
      "payable": false,
      "stateMutability": "nonpayable",
      "type": "constructor"
    },
    {
      "anonymous": false,
      "inputs": [
        {
          "indexed": false,
          "internalType": "bool",
          "name": "succ",
          "type": "bool"
        },
        {
          "indexed": false,
          "internalType": "string",
          "name": "info",
          "type": "string"
        },
        {
          "indexed": false,
          "internalType": "address",
          "name": "_userAddress",
          "type": "address"
        },
        {
          "indexed": false,
          "internalType": "string",
          "name": "_userName",
          "type": "string"
        }
      ],
      "name": "AddUserToForum",
      "type": "event"
    },
    {
      "anonymous": false,
      "inputs": [
        {
          "indexed": true,
          "internalType": "address",
          "name": "_owner",
          "type": "address"
        },
        {
          "indexed": true,
          "internalType": "address",
          "name": "_spender",
          "type": "address"
        },
        {
          "indexed": false,
          "internalType": "uint256",
          "name": "_value",
          "type": "uint256"
        }
      ],
      "name": "Approval",
      "type": "event"
    },
    {
      "anonymous": false,
      "inputs": [
        {
          "indexed": false,
          "internalType": "bool",
          "name": "succ",
          "type": "bool"
        },
        {
          "indexed": false,
          "internalType": "string",
          "name": "info",
          "type": "string"
        },
        {
          "indexed": false,
          "internalType": "address",
          "name": "self",
          "type": "address"
        },
        {
          "indexed": false,
          "internalType": "string",
          "name": "fname",
          "type": "string"
        },
        {
          "indexed": false,
          "internalType": "uint256",
          "name": "fid",
          "type": "uint256"
        }
      ],
      "name": "CreateForum",
      "type": "event"
    },
    {
      "anonymous": false,
      "inputs": [
        {
          "indexed": false,
          "internalType": "bool",
          "name": "success",
          "type": "bool"
        }
      ],
      "name": "Succ",
      "type": "event"
    },
    {
      "anonymous": false,
      "inputs": [
        {
          "indexed": true,
          "internalType": "address",
          "name": "_from",
          "type": "address"
        },
        {
          "indexed": true,
          "internalType": "address",
          "name": "_to",
          "type": "address"
        },
        {
          "indexed": false,
          "internalType": "uint256",
          "name": "_value",
          "type": "uint256"
        }
      ],
      "name": "Transfer",
      "type": "event"
    },
    {
      "constant": true,
      "inputs": [
        {
          "internalType": "address",
          "name": "",
          "type": "address"
        },
        {
          "internalType": "address",
          "name": "",
          "type": "address"
        }
      ],
      "name": "allowed",
      "outputs": [
        {
          "internalType": "uint256",
          "name": "",
          "type": "uint256"
        }
      ],
      "payable": false,
      "stateMutability": "view",
      "type": "function"
    },
    {
      "constant": true,
      "inputs": [
        {
          "internalType": "address",
          "name": "",
          "type": "address"
        }
      ],
      "name": "balances",
      "outputs": [
        {
          "internalType": "uint256",
          "name": "",
          "type": "uint256"
        }
      ],
      "payable": false,
      "stateMutability": "view",
      "type": "function"
    },
    {
      "constant": true,
      "inputs": [],
      "name": "decimals",
      "outputs": [
        {
          "internalType": "uint8",
          "name": "",
          "type": "uint8"
        }
      ],
      "payable": false,
      "stateMutability": "view",
      "type": "function"
    },
    {
      "constant": true,
      "inputs": [],
      "name": "name",
      "outputs": [
        {
          "internalType": "string",
          "name": "",
          "type": "string"
        }
      ],
      "payable": false,
      "stateMutability": "view",
      "type": "function"
    },
    {
      "constant": true,
      "inputs": [],
      "name": "symbol",
      "outputs": [
        {
          "internalType": "string",
          "name": "",
          "type": "string"
        }
      ],
      "payable": false,
      "stateMutability": "view",
      "type": "function"
    },
    {
      "constant": true,
      "inputs": [],
      "name": "totalSupply",
      "outputs": [
        {
          "internalType": "uint256",
          "name": "",
          "type": "uint256"
        }
      ],
      "payable": false,
      "stateMutability": "view",
      "type": "function"
    },
    {
      "constant": false,
      "inputs": [
        {
          "internalType": "address",
          "name": "_to",
          "type": "address"
        },
        {
          "internalType": "uint256",
          "name": "_value",
          "type": "uint256"
        }
      ],
      "name": "transfer",
      "outputs": [
        {
          "internalType": "bool",
          "name": "success",
          "type": "bool"
        }
      ],
      "payable": false,
      "stateMutability": "nonpayable",
      "type": "function"
    },
    {
      "constant": false,
      "inputs": [
        {
          "internalType": "address",
          "name": "_from",
          "type": "address"
        },
        {
          "internalType": "address",
          "name": "_to",
          "type": "address"
        },
        {
          "internalType": "uint256",
          "name": "_value",
          "type": "uint256"
        }
      ],
      "name": "transferFrom",
      "outputs": [
        {
          "internalType": "bool",
          "name": "success",
          "type": "bool"
        }
      ],
      "payable": false,
      "stateMutability": "nonpayable",
      "type": "function"
    },
    {
      "constant": true,
      "inputs": [
        {
          "internalType": "address",
          "name": "_owner",
          "type": "address"
        }
      ],
      "name": "balanceOf",
      "outputs": [
        {
          "internalType": "uint256",
          "name": "balance",
          "type": "uint256"
        }
      ],
      "payable": false,
      "stateMutability": "view",
      "type": "function"
    },
    {
      "constant": false,
      "inputs": [
        {
          "internalType": "address",
          "name": "_spender",
          "type": "address"
        },
        {
          "internalType": "uint256",
          "name": "_value",
          "type": "uint256"
        }
      ],
      "name": "approve",
      "outputs": [
        {
          "internalType": "bool",
          "name": "success",
          "type": "bool"
        }
      ],
      "payable": false,
      "stateMutability": "nonpayable",
      "type": "function"
    },
    {
      "constant": true,
      "inputs": [
        {
          "internalType": "address",
          "name": "_owner",
          "type": "address"
        },
        {
          "internalType": "address",
          "name": "_spender",
          "type": "address"
        }
      ],
      "name": "allowance",
      "outputs": [
        {
          "internalType": "uint256",
          "name": "remaining",
          "type": "uint256"
        }
      ],
      "payable": false,
      "stateMutability": "view",
      "type": "function"
    },
    {
      "constant": false,
      "inputs": [
        {
          "internalType": "string",
          "name": "_fname",
          "type": "string"
        }
      ],
      "name": "createForum",
      "outputs": [
        {
          "internalType": "bool",
          "name": "success",
          "type": "bool"
        }
      ],
      "payable": false,
      "stateMutability": "nonpayable",
      "type": "function"
    },
    {
      "constant": true,
      "inputs": [],
      "name": "getForumCount",
      "outputs": [
        {
          "internalType": "uint256",
          "name": "id",
          "type": "uint256"
        }
      ],
      "payable": false,
      "stateMutability": "view",
      "type": "function"
    },
    {
      "constant": true,
      "inputs": [
        {
          "internalType": "uint256",
          "name": "_fid",
          "type": "uint256"
        }
      ],
      "name": "getForumData",
      "outputs": [
        {
          "internalType": "bool",
          "name": "succ",
          "type": "bool"
        },
        {
          "internalType": "address",
          "name": "Owner",
          "type": "address"
        },
        {
          "internalType": "string",
          "name": "Forum_Name",
          "type": "string"
        },
        {
          "internalType": "uint256",
          "name": "Forum_ID",
          "type": "uint256"
        }
      ],
      "payable": false,
      "stateMutability": "view",
      "type": "function"
    },
    {
      "constant": true,
      "inputs": [
        {
          "internalType": "address",
          "name": "_owner",
          "type": "address"
        }
      ],
      "name": "getForumData",
      "outputs": [
        {
          "internalType": "bool",
          "name": "succ",
          "type": "bool"
        },
        {
          "internalType": "address",
          "name": "Owner",
          "type": "address"
        },
        {
          "internalType": "string",
          "name": "Forum_Name",
          "type": "string"
        },
        {
          "internalType": "uint256",
          "name": "Forum_ID",
          "type": "uint256"
        }
      ],
      "payable": false,
      "stateMutability": "view",
      "type": "function"
    },
    {
      "constant": false,
      "inputs": [
        {
          "internalType": "address",
          "name": "_userAddress",
          "type": "address"
        },
        {
          "internalType": "string",
          "name": "_userName",
          "type": "string"
        },
        {
          "internalType": "uint256",
          "name": "_karma",
          "type": "uint256"
        }
      ],
      "name": "addUserToForum",
      "outputs": [
        {
          "internalType": "bool",
          "name": "success",
          "type": "bool"
        }
      ],
      "payable": false,
      "stateMutability": "nonpayable",
      "type": "function"
    },
    {
      "constant": false,
      "inputs": [
        {
          "internalType": "uint256",
          "name": "_karma",
          "type": "uint256"
        },
        {
          "internalType": "address",
          "name": "_userAddress",
          "type": "address"
        }
      ],
      "name": "setKarma",
      "outputs": [
        {
          "internalType": "bool",
          "name": "succ",
          "type": "bool"
        }
      ],
      "payable": false,
      "stateMutability": "nonpayable",
      "type": "function"
    },
    {
      "constant": true,
      "inputs": [
        {
          "internalType": "uint256",
          "name": "_ucount",
          "type": "uint256"
        }
      ],
      "name": "getUserData",
      "outputs": [
        {
          "internalType": "bool",
          "name": "_succ",
          "type": "bool"
        },
        {
          "internalType": "address",
          "name": "_userAddress",
          "type": "address"
        },
        {
          "internalType": "string",
          "name": "_userinfo",
          "type": "string"
        },
        {
          "internalType": "uint256",
          "name": "_karma",
          "type": "uint256"
        }
      ],
      "payable": false,
      "stateMutability": "view",
      "type": "function"
    },
    {
      "constant": true,
      "inputs": [
        {
          "internalType": "address",
          "name": "_userAddress",
          "type": "address"
        }
      ],
      "name": "getUserData",
      "outputs": [
        {
          "internalType": "bool",
          "name": "succ",
          "type": "bool"
        },
        {
          "internalType": "address",
          "name": "_address",
          "type": "address"
        },
        {
          "internalType": "string",
          "name": "_userinfo",
          "type": "string"
        },
        {
          "internalType": "uint256",
          "name": "_karma",
          "type": "uint256"
        }
      ],
      "payable": false,
      "stateMutability": "view",
      "type": "function"
    },
    {
      "constant": true,
      "inputs": [],
      "name": "getUserCount",
      "outputs": [
        {
          "internalType": "uint256",
          "name": "_ucount",
          "type": "uint256"
        }
      ],
      "payable": false,
      "stateMutability": "view",
      "type": "function"
    },
    {
      "constant": true,
      "inputs": [
        {
          "internalType": "uint256",
          "name": "_fid",
          "type": "uint256"
        }
      ],
      "name": "getMyInfo",
      "outputs": [
        {
          "internalType": "uint256",
          "name": "_fID",
          "type": "uint256"
        },
        {
          "internalType": "address",
          "name": "_forumAddress",
          "type": "address"
        },
        {
          "internalType": "address",
          "name": "_myAddress",
          "type": "address"
        },
        {
          "internalType": "string",
          "name": "_userName",
          "type": "string"
        },
        {
          "internalType": "uint256",
          "name": "_karma",
          "type": "uint256"
        }
      ],
      "payable": false,
      "stateMutability": "view",
      "type": "function"
    },
    {
      "constant": true,
      "inputs": [
        {
          "internalType": "address",
          "name": "_admin",
          "type": "address"
        }
      ],
      "name": "getMyInfo",
      "outputs": [
        {
          "internalType": "uint256",
          "name": "_fID",
          "type": "uint256"
        },
        {
          "internalType": "address",
          "name": "_forumAddress",
          "type": "address"
        },
        {
          "internalType": "address",
          "name": "_myAddress",
          "type": "address"
        },
        {
          "internalType": "string",
          "name": "_userName",
          "type": "string"
        },
        {
          "internalType": "uint256",
          "name": "_karma",
          "type": "uint256"
        }
      ],
      "payable": false,
      "stateMutability": "view",
      "type": "function"
    },
    {
      "constant": true,
      "inputs": [
        {
          "internalType": "address",
          "name": "_forum",
          "type": "address"
        }
      ],
      "name": "accForumKarma",
      "outputs": [
        {
          "internalType": "uint256",
          "name": "",
          "type": "uint256"
        }
      ],
      "payable": false,
      "stateMutability": "view",
      "type": "function"
    },
    {
      "constant": true,
      "inputs": [
        {
          "internalType": "address",
          "name": "_forum",
          "type": "address"
        }
      ],
      "name": "getCheckOutPrice",
      "outputs": [
        {
          "internalType": "uint256",
          "name": "_res",
          "type": "uint256"
        }
      ],
      "payable": false,
      "stateMutability": "view",
      "type": "function"
    },
    {
      "constant": false,
      "inputs": [
        {
          "internalType": "address",
          "name": "_forum",
          "type": "address"
        }
      ],
      "name": "checkOut",
      "outputs": [
        {
          "internalType": "bool",
          "name": "_succ",
          "type": "bool"
        }
      ],
      "payable": false,
      "stateMutability": "nonpayable",
      "type": "function"
    }
  ],
  "bytecode": "0x60806040523480156200001157600080fd5b506040516200223838038062002238833981810160405260808110156200003757600080fd5b8151602083018051604051929492938301929190846401000000008211156200005f57600080fd5b9083019060208201858111156200007557600080fd5b82516401000000008111828201881017156200009057600080fd5b82525081516020918201929091019080838360005b83811015620000bf578181015183820152602001620000a5565b50505050905090810190601f168015620000ed5780820380516001836020036101000a031916815260200191505b506040818152602083015192018051929491939192846401000000008211156200011657600080fd5b9083019060208201858111156200012c57600080fd5b82516401000000008111828201881017156200014757600080fd5b82525081516020918201929091019080838360005b83811015620001765781810151838201526020016200015c565b50505050905090810190601f168015620001a45780820380516001836020036101000a031916815260200191505b506040908152336000908152600160209081529181208990558890558651620001d794506003935090870191506200020d565b506004805460ff191660ff84161790558051620001fc9060059060208401906200020d565b5050600160085550620002b2915050565b828054600181600116156101000203166002900490600052602060002090601f016020900481019282601f106200025057805160ff191683800117855562000280565b8280016001018555821562000280579182015b828111156200028057825182559160200191906001019062000263565b506200028e92915062000292565b5090565b620002af91905b808211156200028e576000815560010162000299565b90565b611f7680620002c26000396000f3fe608060405234801561001057600080fd5b50600436106101735760003560e01c806378f46998116100de578063a9059cbb11610097578063bfb800c711610071578063bfb800c714610686578063c44782c8146106a3578063dd62ed3e1461075b578063ffc9896b1461078957610173565b8063a9059cbb1461062c578063b5cb15f714610658578063bcb1a3251461066057610173565b806378f46998146105045780638326099c1461052a57806383d3f6b7146105505780638d23caa01461055857806395d89b411461057e578063a232e64b1461058657610173565b806323b872dd1161013057806323b872dd1461040a57806327e235e314610440578063313ce5671461046657806342382b82146104845780635c658165146104b057806370a08231146104de57610173565b806301b142781461017857806306fdde031461024d578063095ea7b3146102ca5780630a32bf361461030a57806318160ddd146103305780631fef580c1461034a575b600080fd5b6101956004803603602081101561018e57600080fd5b50356107af565b60405180868152602001856001600160a01b03166001600160a01b03168152602001846001600160a01b03166001600160a01b0316815260200180602001838152602001828103825284818151815260200191508051906020019080838360005b8381101561020e5781810151838201526020016101f6565b50505050905090810190601f16801561023b5780820380516001836020036101000a031916815260200191505b50965050505050505060405180910390f35b6102556108d4565b6040805160208082528351818301528351919283929083019185019080838360005b8381101561028f578181015183820152602001610277565b50505050905090810190601f1680156102bc5780820380516001836020036101000a031916815260200191505b509250505060405180910390f35b6102f6600480360360408110156102e057600080fd5b506001600160a01b038135169060200135610962565b604080519115158252519081900360200190f35b6101956004803603602081101561032057600080fd5b50356001600160a01b03166109c9565b610338610adb565b60408051918252519081900360200190f35b6103676004803603602081101561036057600080fd5b5035610ae1565b6040518085151515158152602001846001600160a01b03166001600160a01b0316815260200180602001838152602001828103825284818151815260200191508051906020019080838360005b838110156103cc5781810151838201526020016103b4565b50505050905090810190601f1680156103f95780820380516001836020036101000a031916815260200191505b509550505050505060405180910390f35b6102f66004803603606081101561042057600080fd5b506001600160a01b03813581169160208101359091169060400135610c9e565b6103386004803603602081101561045657600080fd5b50356001600160a01b0316610da2565b61046e610db4565b6040805160ff9092168252519081900360200190f35b6102f66004803603604081101561049a57600080fd5b50803590602001356001600160a01b0316610dbd565b610338600480360360408110156104c657600080fd5b506001600160a01b0381358116916020013516610e55565b610338600480360360208110156104f457600080fd5b50356001600160a01b0316610e72565b6103676004803603602081101561051a57600080fd5b50356001600160a01b0316610e91565b6103386004803603602081101561054057600080fd5b50356001600160a01b0316610fdd565b610338611039565b6102f66004803603602081101561056e57600080fd5b50356001600160a01b0316611040565b6102556110cb565b6102f66004803603602081101561059c57600080fd5b8101906020810181356401000000008111156105b757600080fd5b8201836020820111156105c957600080fd5b803590602001918460018302840111640100000000831117156105eb57600080fd5b91908080601f016020809104026020016040519081016040528093929190818152602001838380828437600092019190915250929550611126945050505050565b6102f66004803603604081101561064257600080fd5b506001600160a01b0381351690602001356114b5565b61033861153f565b6103386004803603602081101561067657600080fd5b50356001600160a01b0316611555565b6103676004803603602081101561069c57600080fd5b50356115be565b6102f6600480360360608110156106b957600080fd5b6001600160a01b0382351691908101906040810160208201356401000000008111156106e457600080fd5b8201836020820111156106f657600080fd5b8035906020019184600183028401116401000000008311171561071857600080fd5b91908080601f0160208091040260200160405190810160405280939291908181526020018383808284376000920191909152509295505091359250611712915050565b6103386004803603604081101561077157600080fd5b506001600160a01b0381358116916020013516611b85565b6103676004803603602081101561079f57600080fd5b50356001600160a01b0316611bb0565b6000818152600760209081526040808320546001600160a01b0316808452600683528184203385526005810184528285205480865260049091018452828520600190810180548551600261010094831615949094026000190190911692909204601f8101879004870283018701909552848252869586956060958795909490938793919290918301828280156108865780601f1061085b57610100808354040283529160200191610886565b820191906000526020600020905b81548152906001019060200180831161086957829003601f168201915b505050506001600160a01b038516600081815260066020818152604080842098845260048901825283206002908101549490935252909401549b949a50339950909750919550919350505050565b6003805460408051602060026001851615610100026000190190941693909304601f8101849004840282018401909252818152929183018282801561095a5780601f1061092f5761010080835404028352916020019161095a565b820191906000526020600020905b81548152906001019060200180831161093d57829003601f168201915b505050505081565b3360008181526002602090815260408083206001600160a01b038716808552908352818420869055815186815291519394909390927f8c5be1e5ebec7d5bd14f71427d1e84f3dd0314c0f7b2291e5b200ac8c7c3b925928290030190a35060015b92915050565b6001600160a01b03811660009081526006602090815260408083203384526005810183528184205480855260049091018352818420600190810180548451600293821615610100026000190190911692909204601f81018690048602830186019094528382528594859460609486949093869391929091830182828015610a915780601f10610a6657610100808354040283529160200191610a91565b820191906000526020600020905b815481529060010190602001808311610a7457829003601f168201915b505050506001600160a01b038a16600081815260066020818152604080842098845260048901825283206002908101549490935252909401549a3399509197509295509350505050565b60005481565b33600090815260066020526040812054819060609082906001600160a01b0316610b485750506040805180820190915260208082527f596f75206e65656420746f20637265617465206120666f72756d206669727374908201526000925082915081610c97565b33600090815260066020526040902060030154851180610b66575060005b15610bae57505060408051808201909152601981527f54686973207573657220646f6573206e6f74206578697374730000000000000060208201526000925082915081610c97565b3360009081526006602090815260408083208884526004018252918290208054600191820180548551600261010095831615959095026000190190911693909304601f81018590048502840185019095528483526001600160a01b0390911693606093830182828015610c625780601f10610c3757610100808354040283529160200191610c62565b820191906000526020600020905b815481529060010190602001808311610c4557829003601f168201915b50503360009081526006602090815260408083208e845260040190915290206002015460019a50959850929650939450505050505b9193509193565b6001600160a01b038316600081815260026020908152604080832033845282528083205493835260019091528120549091908311801590610cdf5750828110155b610ce857600080fd5b6001600160a01b0380851660009081526001602052604080822080548701905591871681522080548490039055600019811015610d4a576001600160a01b03851660009081526002602090815260408083203384529091529020805484900390555b836001600160a01b0316856001600160a01b03167fddf252ad1be2c89b69c2b068fc378daa952ba7f163c4a11628f55a4df523b3ef856040518082815260200191505060405180910390a360019150505b9392505050565b60016020526000908152604090205481565b60045460ff1681565b336000908152600660205260408120546001600160a01b0316610de2575060006109c3565b3360009081526006602081815260408084206001600160a01b0387168552909201905290205460ff16610e17575060006109c3565b503360009081526006602090815260408083206001600160a01b03949094168352600584018252808320548352600490930190522060020155600190565b600260209081526000928352604080842090915290825290205481565b6001600160a01b0381166000908152600160205260409020545b919050565b3360009081526009602052604081205481906060908290610eef57505060408051808201909152601781527f466f72756d20646f6573206e6f74206578697374732e2000000000000000000060208201526000925082915081610c97565b606060066000876001600160a01b03166001600160a01b031681526020019081526020016000206001018054600181600116156101000203166002900480601f016020809104026020016040519081016040528092919081815260200182805460018160011615610100020316600290048015610fad5780601f10610f8257610100808354040283529160200191610fad565b820191906000526020600020905b815481529060010190602001808311610f9057829003601f168201915b505050506001600160a01b0388166000908152600660205260409020600201546001999297509550909350505050565b600080610fe983611555565b90506000610ff684610e72565b9050811580611003575080155b1561101357600092505050610e8c565b600082828161101e57fe5b0690506000838284038161102e57fe5b049695505050505050565b6008545b90565b60008061104c83610fdd565b90508061105d576000915050610e8c565b6001600160a01b039290921660008181526006602090815260408083203380855260058201845282852054808652600490920180855283862060020180549787526001808752858820805499909b0298899003909a5591865292852080549096019095558352905290555090565b6005805460408051602060026001851615610100026000190190941693909304601f8101849004840282018401909252818152929183018282801561095a5780601f1061092f5761010080835404028352916020019161095a565b336000908152600660209081526040808320600201546009909252822054811580159061115257508082145b15611265577f360973aa1f412aaed0aa70236cd0568063c3fd881fa2d2b695ff1d2b205cc91660003386600854604051808515151515815260200180602001856001600160a01b03166001600160a01b0316815260200180602001848152602001838103835260198152602001807f596f7520616c7265616479206f776e206120666f72756d212000000000000000815250602001838103825285818151815260200191508051906020019080838360005b8381101561121c578181015183820152602001611204565b50505050905090810190601f1680156112495780820380516001836020036101000a031916815260200191505b50965050505050505060405180910390a1600092505050610e8c565b60408051608081018252338082526020808301888152600854848601526000606085018190529283526006825293909120825181546001600160a01b0319166001600160a01b03909116178155925180519293926112c99260018501920190611dda565b50604082810151600283015560609283015160039092019190915580519182018152338083526020808401888152600085850181905292835260068252838320838052600401825292909120835181546001600160a01b0319166001600160a01b03909116178155915180516113459260018501920190611dda565b50604091820151600290910155336000818152600660208181528483209182018152848320805460ff191660019081179091556005830182528584208490556003909201805483019055600880546009835286852081905584526007825285842080546001600160a01b03191686179055805483019081905585518381529586018590526080860181905260a0868301818152601c918801919091527f466f72756d2063726561746564207375636365737366756c6c7921200000000060c088015260e0606088018181528c51918901919091528b517f360973aa1f412aaed0aa70236cd0568063c3fd881fa2d2b695ff1d2b205cc916989597968d969495610100860192908801918190849084905b8381101561146d578181015183820152602001611455565b50505050905090810190601f16801561149a5780820380516001836020036101000a031916815260200191505b50965050505050505060405180910390a15060019392505050565b336000908152600160205260408120548211156114d157600080fd5b336000818152600160209081526040808320805487900390556001600160a01b03871680845292819020805487019055805186815290519293927fddf252ad1be2c89b69c2b068fc378daa952ba7f163c4a11628f55a4df523b3ef929181900390910190a350600192915050565b3360009081526006602052604090206003015490565b6001600160a01b03811660009081526006602052604081206003015460010181805b828110156115b6576001600160a01b03851660009081526006602090815260408083208484526004019091529020600201549190910190600101611577565b509392505050565b600081815260076020526040812054819060609082906001600160a01b0316806116205760408051808201909152601681527502337b93ab6903237b2b9903737ba1032bc34b9ba17160551b6020820152600095509093509150839050610c97565b606060066000836001600160a01b03166001600160a01b031681526020019081526020016000206001018054600181600116156101000203166002900480601f0160208091040260200160405190810160405280929190818152602001828054600181600116156101000203166002900480156116de5780601f106116b3576101008083540402835291602001916116de565b820191906000526020600020905b8154815290600101906020018083116116c157829003601f168201915b505050506001600160a01b03841660009081526006602052604090206002015460019a949950919750909550919350505050565b3360008181526006602052604081205490916001600160a01b039091161461180657600080516020611e7383398151915260008585604051808415151515815260200180602001846001600160a01b03166001600160a01b031681526020018060200183810383526022815260200180611ef960229139604001838103825284818151815260200191508051906020019080838360005b838110156117c15781810151838201526020016117a9565b50505050905090810190601f1680156117ee5780820380516001836020036101000a031916815260200191505b509550505050505060405180910390a1506000610d9b565b3360009081526006602081815260408084206001600160a01b0389168552909201905290205460ff161515600114156118da57600080516020611e7383398151915260008585604051808415151515815260200180602001846001600160a01b03166001600160a01b0316815260200180602001838103835260158152602001807402ab9b2b91030b63932b0b23c9032bc34b9ba39971605d1b81525060200183810382528481815181526020019150805190602001908083836000838110156117c15781810151838201526020016117a9565b3360009081526006602081815260408084206001600160a01b0389168552909201905290205460ff16611ab15733600090815260066020908152604080832060038101805460019081019182905583516060810185526001600160a01b038b811682528187018b81528287018b90528489526004909501875294909620865181546001600160a01b03191695169490941784559151805191959461198393850192910190611dda565b5060409182015160029190910155336000908152600660208181528383206001600160a01b038a168085529281018252848420805460ff19166001908117909155600590910182528484208690558451818152948501929092526080848201818152601b918601919091527f4d656d626572206164646564207375636365737366756c6c792e20000000000060a086015260c0606086018181528a51918701919091528951600080516020611e738339815191529694958c958c959094939260e0860192918701918190849084905b83811015611a6a578181015183820152602001611a52565b50505050905090810190601f168015611a975780820380516001836020036101000a031916815260200191505b509550505050505060405180910390a16001915050610d9b565b600080516020611e7383398151915260008585604051808415151515815260200180602001846001600160a01b03166001600160a01b031681526020018060200183810383526038815260200180611ec160389139604001838103825284818151815260200191508051906020019080838360005b83811015611b3e578181015183820152602001611b26565b50505050905090810190601f168015611b6b5780820380516001836020036101000a031916815260200191505b509550505050505060405180910390a15060009392505050565b6001600160a01b03918216600090815260026020908152604080832093909416825291909152205490565b33600090815260066020526040812054819060609082906001600160a01b0316611c175750506040805180820190915260208082527f596f75206e65656420746f20637265617465206120666f72756d206669727374908201526000925082915081610c97565b3360009081526006602081815260408084206001600160a01b038a168552909201905290205460ff1615611d4b573360009081526006602090815260408083206001600160a01b0389811685526005820184528285205480865260049092018452938290208054600191820180548551600261010095831615959095026000190190911693909304601f81018790048702840187019095528483529295169360609391929190830182828015611d0e5780601f10611ce357610100808354040283529160200191611d0e565b820191906000526020600020905b815481529060010190602001808311611cf157829003601f168201915b505033600090815260066020908152604080832099835260049099019052969096206002015460019a50949850919650929450610c979350505050565b3360009081526006602081815260408084206001600160a01b038a168552909201905290205460ff16611da9576000806000819150604051806060016040528060278152602001611f1b602791399296509094509092509050610c97565b60008060008191506040518060600160405280602e8152602001611e93602e91399298919750919550909350915050565b828054600181600116156101000203166002900490600052602060002090601f016020900481019282601f10611e1b57805160ff1916838001178555611e48565b82800160010185558215611e48579182015b82811115611e48578251825591602001919060010190611e2d565b50611e54929150611e58565b5090565b61103d91905b80821115611e545760008155600101611e5e56fe4e2ccda530823d156bb2b039daef610f40c3abcd9ad3dc2b8d5d7b84e27c400b536f6d657468696e672077656e742077726f6e67207769746820616464696e672061206e6577206d656d6265722e536f6d657468696e672077656e742077726f6e672e2054686973206572726f722069732077656972642c20646f20796f75207375636b3f20596f75206e65656420746f20637265617465206120666f72756d2066697273742e2054686973207573657220646f6573206e6f742065786973747320696e20796f757220666f72756da265627a7a7231582043bc1ed665b4fe5d1b3dbd04a570a2d2b0723954606aa1f2cc04c4446633b75c64736f6c63430005100032",
  "source": "/*\nImplements EIP20 token standard: https://github.com/ethereum/EIPs/blob/master/EIPS/eip-20.md\n.*/\n\n\npragma solidity ^0.5.0;\n\nimport \"./EIP20Interface.sol\";\n\n\ncontract Forum is EIP20Interface {\n    // The coin\n    uint256 constant private MAX_UINT256 = 2**256 - 1;\n    mapping (address => uint256) public balances;\n    mapping (address => mapping (address => uint256)) public allowed;\n\n    string public name;\n    uint8 public decimals;\n    string public symbol;\n\n    // Forum\n    mapping (address => forumData) private forums;    // An address can hold a forum\n    mapping (uint => address) private fidOwner;       // A forumID (fid) is mapped to an owner of a forum with this fid.\n    uint256 private forumId;                          // Increments when a new forum is created\n    mapping (address => uint256) addressForumId;\n\n    struct forumData{\n      address owner;\n      string forumName;\n      uint256 fid;\n      uint256 userCount;\n      mapping(uint256 => userData) users;\n      mapping(address => uint256) userKey; //Equal to next userCount.\n      mapping(address => bool) userExists;\n    }\n\n    struct userData{\n      address userAddress;\n      string userName;\n      uint256 karma;\n      }\n\n    constructor (\n        uint256 _initialAmount,\n        string memory _tokenName,\n        uint8 _decimalUnits,\n        string memory _tokenSymbol\n    ) public {\n        balances[msg.sender] = _initialAmount;\n        totalSupply = _initialAmount;\n        name = _tokenName;\n        decimals = _decimalUnits;\n        symbol = _tokenSymbol;\n        forumId = 1;\n    }\n\n    // Coin functions...\n    function transfer(address _to, uint256 _value) public returns (bool success) {\n        require(balances[msg.sender] >= _value);\n        balances[msg.sender] -= _value;\n        balances[_to] += _value;\n        emit Transfer(msg.sender, _to, _value); //solhint-disable-line indent, no-unused-vars\n        return true;\n    }\n\n    function transferFrom(address _from, address _to, uint256 _value) public returns (bool success) {\n        uint256 allowance = allowed[_from][msg.sender];\n        require(balances[_from] >= _value && allowance >= _value);\n        balances[_to] += _value;\n        balances[_from] -= _value;\n        if (allowance < MAX_UINT256) {\n            allowed[_from][msg.sender] -= _value;\n        }\n        emit Transfer(_from, _to, _value); //solhint-disable-line indent, no-unused-vars\n        return true;\n    }\n\n    function balanceOf(address _owner) public view returns (uint256 balance) {\n        return balances[_owner];\n    }\n\n    function approve(address _spender, uint256 _value) public returns (bool success) {\n        allowed[msg.sender][_spender] = _value;\n        emit Approval(msg.sender, _spender, _value); //solhint-disable-line indent, no-unused-vars\n        return true;\n    }\n\n    function allowance(address _owner, address _spender) public view returns (uint256 remaining) {\n        return allowed[_owner][_spender];\n    }\n    // .. end of coin functions\n\n\n\n\n\n\n    // Forum functions...\n\n    function createForum(string memory _fname) public returns (bool success){\n      uint256 a = forums[msg.sender].fid;\n      uint256 b = addressForumId[msg.sender];\n      if((a != 0) && (a == b)){\n        emit CreateForum(false, \"You already own a forum! \", msg.sender, _fname, forumId);\n        return(false);\n      }\n      forums[msg.sender] = forumData(msg.sender, _fname, forumId, 0);\n      forums[msg.sender].users[0] = userData(msg.sender, _fname, 0);\n      forums[msg.sender].userExists[msg.sender] = true;\n      forums[msg.sender].userKey[msg.sender] = 0;\n      forums[msg.sender].userCount ++;\n      addressForumId[msg.sender] = forumId;\n      fidOwner[forumId] = msg.sender;\n      forumId = forumId + 1;\n      emit CreateForum(true, \"Forum created successfully! \", msg.sender, _fname, forumId);\n      return (true);\n    }\n\n    function getForumCount() public view returns (uint256 id){\n      return forumId;\n    }\n\n    function getForumData(uint256 _fid) public view returns (bool succ, address Owner, string memory Forum_Name, uint256 Forum_ID){\n      address owner = fidOwner[_fid];\n      if(owner == address(0x0))\n        return (false, owner, \"Forum does not exist. \", 0);\n      string memory fName = forums[owner].forumName;\n      uint256 id = forums[owner].fid;\n      return(true, owner, fName, id);\n    }\n\n    function getForumData(address _owner) public view returns (bool succ, address Owner, string memory Forum_Name, uint256 Forum_ID){\n      if(addressForumId[msg.sender] == 0){\n        return (false, address(0x0), \"Forum does not exists. \", 0);\n      }\n      string memory fName = forums[_owner].forumName;\n      uint256 id = forums[_owner].fid;\n      return(true, _owner, fName, id);\n    }\n\n    function addUserToForum(address _userAddress, string memory _userName, uint256 _karma) public returns (bool success){\n      if(forums[msg.sender].owner != msg.sender){\n        emit AddUserToForum(false, \"You need to create a forum first. \", _userAddress, _userName);\n        return (false);\n      }\n      if(forums[msg.sender].userExists[_userAddress] == true){\n        emit AddUserToForum(false, \"User already exists. \", _userAddress,  _userName);\n        return (false);\n      }\n      if(!forums[msg.sender].userExists[_userAddress]){\n        forums[msg.sender].userCount++;\n        uint256 newUserCount = forums[msg.sender].userCount;\n        forums[msg.sender].users[newUserCount] = userData(_userAddress, _userName, _karma);\n        forums[msg.sender].userExists[_userAddress] = true;\n        forums[msg.sender].userKey[_userAddress] = newUserCount;\n        emit AddUserToForum(true, \"Member added successfully. \", _userAddress, _userName);\n        return (true);\n\n      }\n      emit AddUserToForum(false, \"Something went wrong. This error is weird, do you suck? \", _userAddress, _userName);\n      return (false);\n    }\n\n    function setKarma(uint256 _karma, address _userAddress) public returns (bool succ){\n      if(forums[msg.sender].owner == address(0x0)){\n        return false;\n      }\n      if(!forums[msg.sender].userExists[_userAddress]){\n        return false;\n      }\n      uint256 ukey = forums[msg.sender].userKey[_userAddress];\n      forums[msg.sender].users[ukey].karma = _karma;\n      return true;\n    }\n\n    function getUserData(address _userAddress) public view returns (bool succ, address _address, string memory _userinfo, uint256 _karma) {\n        if(forums[msg.sender].owner == address(0x0)){\n          return (false, address(0x0), \"You need to create a forum first\", 0);\n        }\n        if(forums[msg.sender].userExists[_userAddress]){\n          uint256 uKey = forums[msg.sender].userKey[_userAddress];\n          address uaddress = forums[msg.sender].users[uKey].userAddress;\n          string memory uname = forums[msg.sender].users[uKey].userName;\n          uint256 karm = forums[msg.sender].users[uKey].karma;\n          return (true, uaddress, uname, karm);\n        }\n        if(!forums[msg.sender].userExists[_userAddress]){\n          return(false, address(0x0), \"This user does not exists in your forum\", 0);\n        }\n        return(false, address(0x0),\"Something went wrong with adding a new member.\", 0);\n    }\n\n    function getUserData(uint256 _ucount) public view returns (bool _succ, address _userAddress, string memory _userinfo, uint256 _karma){\n      if(forums[msg.sender].owner == address(0x0)){\n        return (false, address(0x0), \"You need to create a forum first\", 0);\n      }\n\n      if((forums[msg.sender].userCount < _ucount ) || _ucount < 0){\n        return (false, address(0x0), \"This user does not exists\", 0);\n      }\n\n      address uaddress = forums[msg.sender].users[_ucount].userAddress;\n      string memory uname = forums[msg.sender].users[_ucount].userName;\n      uint256 karma = forums[msg.sender].users[_ucount].karma;\n      return (true, uaddress, uname, karma);\n      }\n\n\n    function getUserCount() public view returns (uint256 _ucount){\n      return forums[msg.sender].userCount;\n    }\n\n    function getMyInfo(address _admin) public view returns (uint256 _fID, address _forumAddress, address _myAddress, string memory _userName, uint256 _karma) {\n      uint256 key = forums[_admin].userKey[msg.sender];\n      string memory uname = forums[_admin].users[key].userName;\n      uint256 karma = forums[_admin].users[key].karma;\n      uint256 fid = forums[_admin].fid;\n      return (fid, _admin, msg.sender, uname, karma);\n    }\n\n    function getMyInfo(uint256 _fid) public view returns (uint256 _fID, address _forumAddress, address _myAddress, string memory _userName, uint256 _karma) {\n      address admin = fidOwner[_fid];\n      uint256 key = forums[admin].userKey[msg.sender];\n      string memory uname = forums[admin].users[key].userName;\n      uint256 karma = forums[admin].users[key].karma;\n      uint256 fid = forums[admin].fid;\n      return (fid, admin, msg.sender, uname, karma);\n    }\n\n\n    function accForumKarma(address _forum) public view returns (uint256) {\n      uint256 numUsers = forums[_forum].userCount +1;\n      uint256 accKarma = 0;\n      for(uint256 i = 0; i<numUsers; i++){\n        accKarma += forums[_forum].users[i].karma;\n      }\n      return accKarma;\n    }\n\n    function getCheckOutPrice(address _forum) public view returns (uint256 _res){\n      uint256 totKarma = accForumKarma(_forum);\n      uint256 bal = balanceOf(_forum);\n      if(totKarma == 0 || bal == 0) return 0;\n      uint256 rest = bal % totKarma;\n      uint256 res = (bal-rest)/totKarma;\n      return res;\n    }\n\n    function checkOut(address _forum) public returns (bool _succ){\n      uint256 val = getCheckOutPrice(_forum);\n      if (val == 0) return false;\n      uint256 myKey = forums[_forum].userKey[msg.sender];\n      uint256 myKarma = forums[_forum].users[myKey].karma;\n      balances[_forum] -= myKarma*val;\n      balances[msg.sender] += myKarma*val;\n      forums[_forum].users[myKey].karma = 0;\n      return true;\n    }\n\n    event Succ(bool success);\n    event AddUserToForum(bool succ, string info, address _userAddress, string _userName);\n    event CreateForum(bool succ, string info, address self, string fname, uint256 fid);\n}\n",
  "sourcePath": "/home/anton/Documents/Gitz/Exjobb/Exjobb/SaviourCoin/MainApplication/contracts/Forum.sol",
  "compiler": {
    "name": "solc",
    "version": "0.5.16+commit.9c3226ce.Emscripten.clang"
  },
  "schemaVersion": "3.0.23",
  "updatedAt": "2020-05-06T15:11:40.110Z",
  "devdoc": {
    "methods": {}
  },
  "userdoc": {
    "methods": {}
  }
}