{
  "contractName": "Forum",
  "abi": [
    {
      "inputs": [],
      "payable": false,
      "stateMutability": "nonpayable",
      "type": "constructor"
    },
    {
      "anonymous": false,
      "inputs": [
        {
          "indexed": false,
          "internalType": "bool",
          "name": "_success",
          "type": "bool"
        },
        {
          "indexed": false,
          "internalType": "address",
          "name": "_userAddress",
          "type": "address"
        },
        {
          "indexed": false,
          "internalType": "string",
          "name": "_userName",
          "type": "string"
        },
        {
          "indexed": false,
          "internalType": "uint256",
          "name": "_karma",
          "type": "uint256"
        }
      ],
      "name": "AddUserToForum",
      "type": "event"
    },
    {
      "constant": false,
      "inputs": [
        {
          "internalType": "string",
          "name": "_fname",
          "type": "string"
        }
      ],
      "name": "createForum",
      "outputs": [
        {
          "internalType": "uint256",
          "name": "forum_created",
          "type": "uint256"
        }
      ],
      "payable": false,
      "stateMutability": "nonpayable",
      "type": "function"
    },
    {
      "constant": true,
      "inputs": [],
      "name": "getForumId",
      "outputs": [
        {
          "internalType": "uint256",
          "name": "id",
          "type": "uint256"
        }
      ],
      "payable": false,
      "stateMutability": "view",
      "type": "function"
    },
    {
      "constant": true,
      "inputs": [
        {
          "internalType": "uint256",
          "name": "_fid",
          "type": "uint256"
        }
      ],
      "name": "getForumData",
      "outputs": [
        {
          "internalType": "address",
          "name": "Owner",
          "type": "address"
        },
        {
          "internalType": "string",
          "name": "Forum_Name",
          "type": "string"
        },
        {
          "internalType": "uint256",
          "name": "Forum_ID",
          "type": "uint256"
        }
      ],
      "payable": false,
      "stateMutability": "view",
      "type": "function"
    },
    {
      "constant": false,
      "inputs": [
        {
          "internalType": "address",
          "name": "_userAddress",
          "type": "address"
        },
        {
          "internalType": "string",
          "name": "_userName",
          "type": "string"
        },
        {
          "internalType": "uint256",
          "name": "_karma",
          "type": "uint256"
        }
      ],
      "name": "addUserToForum",
      "outputs": [
        {
          "internalType": "bool",
          "name": "success",
          "type": "bool"
        }
      ],
      "payable": false,
      "stateMutability": "nonpayable",
      "type": "function"
    },
    {
      "constant": true,
      "inputs": [
        {
          "internalType": "address",
          "name": "_userAddress",
          "type": "address"
        }
      ],
      "name": "getUserData",
      "outputs": [
        {
          "internalType": "address",
          "name": "_address",
          "type": "address"
        },
        {
          "internalType": "string",
          "name": "_userinfo",
          "type": "string"
        },
        {
          "internalType": "uint256",
          "name": "_karma",
          "type": "uint256"
        }
      ],
      "payable": false,
      "stateMutability": "view",
      "type": "function"
    }
  ],
  "bytecode": "0x608060405234801561001057600080fd5b5060006003556109d5806100256000396000f3fe608060405234801561001057600080fd5b50600436106100575760003560e01c80630a85c44f1461005c578063a232e64b14610076578063bfb800c71461011c578063c44782c8146101c7578063ffc9896b14610293575b600080fd5b6100646102b9565b60408051918252519081900360200190f35b6100646004803603602081101561008c57600080fd5b8101906020810181356401000000008111156100a757600080fd5b8201836020820111156100b957600080fd5b803590602001918460018302840111640100000000831117156100db57600080fd5b91908080601f0160208091040260200160405190810160405280939291908181526020018383808284376000920191909152509295506102c0945050505050565b6101396004803603602081101561013257600080fd5b5035610419565b604080516001600160a01b0385168152908101829052606060208083018281528551928401929092528451608084019186019080838360005b8381101561018a578181015183820152602001610172565b50505050905090810190601f1680156101b75780820380516001836020036101000a031916815260200191505b5094505050505060405180910390f35b61027f600480360360608110156101dd57600080fd5b6001600160a01b03823516919081019060408101602082013564010000000081111561020857600080fd5b82018360208201111561021a57600080fd5b8035906020019184600183028401116401000000008311171561023c57600080fd5b91908080601f01602080910402602001604051908101604052809392919081815260200183838082843760009201919091525092955050913592506104f9915050565b604080519115158252519081900360200190f35b610139600480360360208110156102a957600080fd5b50356001600160a01b0316610783565b6003545b90565b60408051608081018252338082526020808301858152600354848601526000606085018190529283526001808352948320845181546001600160a01b0319166001600160a01b039091161781559051805193959193610327939285019291909101906108e1565b5060408281015160028301556060928301516003909201919091558051918201815233808352602080840186815260008585018190529283526001808352848420848052600401835293909220845181546001600160a01b0319166001600160a01b039091161781559151805192936103a8939085019291909101906108e1565b5060409182015160029182015533600081815260016020818152858320600681018252868420805460ff19168417905560058101825286842084905560039081018054840190558054845294905293902080546001600160a01b031916909117905580549091019081905592915050565b6000818152600260208181526040808420546001600160a01b031680855260018084528286208101805484516101009382161593909302600019011695909504601f81018590048502820185019093528281526060948694929386938301828280156104c65780601f1061049b576101008083540402835291602001916104c6565b820191906000526020600020905b8154815290600101906020018083116104a957829003601f168201915b5050506001600160a01b0385166000908152600160205260409020600201549497509195509293505050505b9193909250565b3360009081526001602090815260408083206001600160a01b038716845260060190915281205460ff166106b05733600090815260016020818152604080842060038101805485019081905582516060810184526001600160a01b038b811682528186018b81528286018990528389526004909401865293909620865181546001600160a01b03191694169390931783559051805191959492936105a2938501929101906108e1565b5060409182015160029190910155336000908152600160208181528383206001600160a01b038a16808552600682018352858520805460ff1916851790556005909101825284842086905584518381528083019190915260608101889052608094810185815289519582019590955288517f659a65e46a5208d5d8b8e7dc92da715ace2ff27bd9793a9ce4f670f651f967b79593948b948b948b9493919260a085019291870191908190849084905b83811015610669578181015183820152602001610651565b50505050905090810190601f1680156106965780820380516001836020036101000a031916815260200191505b509550505050505060405180910390a1600191505061077c565b7f659a65e46a5208d5d8b8e7dc92da715ace2ff27bd9793a9ce4f670f651f967b760008585856040518085151515158152602001846001600160a01b03166001600160a01b0316815260200180602001838152602001828103825284818151815260200191508051906020019080838360005b8381101561073b578181015183820152602001610723565b50505050905090810190601f1680156107685780820380516001836020036101000a031916815260200191505b509550505050505060405180910390a15060005b9392505050565b3360009081526001602090815260408083206001600160a01b0385168452600601909152812054606090829060ff16156108b6573360009081526001602081815260408084206001600160a01b038981168652600582018452828620548087526004909201845294829020805490850180548451600261010098831615989098026000190190911696909604601f81018690048602870186019094528386529195169360609390929083018282801561087d5780601f106108525761010080835404028352916020019161087d565b820191906000526020600020905b81548152906001019060200180831161086057829003601f168201915b50503360009081526001602090815260408083209983526004909901905296909620600201549498509196509294506104f29350505050565b60008081915060405180606001604052806027815260200161097a6027913991969195509350915050565b828054600181600116156101000203166002900490600052602060002090601f016020900481019282601f1061092257805160ff191683800117855561094f565b8280016001018555821561094f579182015b8281111561094f578251825591602001919060010190610934565b5061095b92915061095f565b5090565b6102bd91905b8082111561095b576000815560010161096556fe54686973207573657220646f6573206e6f742065786973747320696e20796f757220666f72756da265627a7a72315820ab57ea3bc29cd270d6ace811e8422daca9d93e97c2ae144011ef0ca2c7b25e4e64736f6c63430005100032",
  "source": "//Klientsidan\n  //Kunna se alla forum från klientsida.\n  //Se till att inte kunna bli tillagd i ett forum hur som helst.\n  //Mina uppgifter i ett forum.\n\n//Forumskaparsida\n  //Skapa ett forum\n  //Lägga till användare i mitt forum.\n\n//pragma solidity ^0.5.0;\npragma solidity ^0.5.16;\n\n\ncontract Forum {\n\n  mapping (address => mapping (address => userData)) private forumUsers;\n  mapping (address => forumData) private forums;\n  mapping (uint => address) private fidOwner;\n  uint256 private forumId;\n//  address[] private testz;\n\n  struct forumData{\n    address owner;\n    string forumName;\n    uint256 fid;\n    uint256 userCount;\n    mapping(uint256 => userData) users;\n    mapping(address => uint256) userKey; //Equal to next userCount.\n    mapping(address => bool) userExists;\n  }\n\n    struct userData{\n      address userAddress;\n      string userName;\n      uint256 karma;\n    }\n\n    constructor () public {\n      forumId = 0;\n    }\n\n    function createForum(string memory _fname) public returns (uint256 forum_created){\n      forums[msg.sender] = forumData(msg.sender, _fname, forumId, 0);\n      forums[msg.sender].users[0] = userData(msg.sender, _fname, 0);\n      forums[msg.sender].userExists[msg.sender] = true;\n      forums[msg.sender].userKey[msg.sender] = 0;\n      forums[msg.sender].userCount ++;\n      fidOwner[forumId] = msg.sender;\n      forumId = forumId + 1;\n\n      return forumId;\n    }\n\n    function getForumId() public view returns (uint256 id){\n      return forumId;\n    }\n\n    function getForumData(uint256 _fid) public view returns (address Owner, string memory Forum_Name, uint256 Forum_ID){\n      address owner = fidOwner[_fid];\n      string memory fName = forums[owner].forumName;\n      uint256 id = forums[owner].fid;\n      return(owner, fName, id);\n    }\n\n    function addUserToForum(address _userAddress, string memory _userName, uint256 _karma) public returns (bool success){\n      if(!forums[msg.sender].userExists[_userAddress]){\n\n      forums[msg.sender].userCount++;\n      uint256 newUserCount = forums[msg.sender].userCount;\n      forums[msg.sender].users[newUserCount] = userData(_userAddress, _userName, 0);\n      forums[msg.sender].userExists[_userAddress] = true;\n      forums[msg.sender].userKey[_userAddress] = newUserCount;\n      emit AddUserToForum(true, _userAddress, _userName, _karma);\n      return true;\n      }\n\n      emit AddUserToForum(false, _userAddress, _userName, _karma);\n      return false;\n    }\n\n    function getUserData(address _userAddress) public view returns (address _address, string memory _userinfo, uint256 _karma) {\n        if(forums[msg.sender].userExists[_userAddress]){\n          uint256 uKey = forums[msg.sender].userKey[_userAddress];\n          address uaddress = forums[msg.sender].users[uKey].userAddress;\n          string memory uname = forums[msg.sender].users[uKey].userName;\n          uint256 karm = forums[msg.sender].users[uKey].karma;\n          return (uaddress, uname, karm);\n        }\n        return(address(0x0), \"This user does not exists in your forum\", 0);\n\n    }\n\n\n    event AddUserToForum(bool _success, address _userAddress, string _userName, uint256 _karma);\n\n}\n",
  "sourcePath": "/home/anton/Documents/Gitz/Exjobb/Exjobb/SaviourCoin/MainApplication/contracts/Forum.sol",
  "compiler": {
    "name": "solc",
    "version": "0.5.16+commit.9c3226ce.Emscripten.clang"
  },
  "schemaVersion": "3.0.23",
  "updatedAt": "2020-04-07T20:01:11.716Z",
  "networkType": "ethereum",
  "devdoc": {
    "methods": {}
  },
  "userdoc": {
    "methods": {}
  }
}