{
  "contractName": "Forum",
  "abi": [
    {
      "inputs": [
        {
          "internalType": "uint256",
          "name": "_initialAmount",
          "type": "uint256"
        },
        {
          "internalType": "string",
          "name": "_tokenName",
          "type": "string"
        },
        {
          "internalType": "uint8",
          "name": "_decimalUnits",
          "type": "uint8"
        },
        {
          "internalType": "string",
          "name": "_tokenSymbol",
          "type": "string"
        }
      ],
      "payable": false,
      "stateMutability": "nonpayable",
      "type": "constructor"
    },
    {
      "anonymous": false,
      "inputs": [
        {
          "indexed": false,
          "internalType": "address",
          "name": "_userAddress",
          "type": "address"
        },
        {
          "indexed": false,
          "internalType": "string",
          "name": "_userName",
          "type": "string"
        },
        {
          "indexed": false,
          "internalType": "uint256",
          "name": "_karma",
          "type": "uint256"
        }
      ],
      "name": "AddUserToForum",
      "type": "event"
    },
    {
      "anonymous": false,
      "inputs": [
        {
          "indexed": true,
          "internalType": "address",
          "name": "_owner",
          "type": "address"
        },
        {
          "indexed": true,
          "internalType": "address",
          "name": "_spender",
          "type": "address"
        },
        {
          "indexed": false,
          "internalType": "uint256",
          "name": "_value",
          "type": "uint256"
        }
      ],
      "name": "Approval",
      "type": "event"
    },
    {
      "anonymous": false,
      "inputs": [
        {
          "indexed": false,
          "internalType": "uint256",
          "name": "_cop",
          "type": "uint256"
        },
        {
          "indexed": false,
          "internalType": "uint256",
          "name": "_karma",
          "type": "uint256"
        },
        {
          "indexed": false,
          "internalType": "address",
          "name": "_from",
          "type": "address"
        },
        {
          "indexed": false,
          "internalType": "address",
          "name": "_to",
          "type": "address"
        }
      ],
      "name": "CashOut",
      "type": "event"
    },
    {
      "anonymous": false,
      "inputs": [
        {
          "indexed": false,
          "internalType": "bool",
          "name": "_success",
          "type": "bool"
        },
        {
          "indexed": false,
          "internalType": "address",
          "name": "_forumAddress",
          "type": "address"
        },
        {
          "indexed": false,
          "internalType": "string",
          "name": "_forumName",
          "type": "string"
        },
        {
          "indexed": false,
          "internalType": "uint256",
          "name": "_fid",
          "type": "uint256"
        }
      ],
      "name": "CreateForum",
      "type": "event"
    },
    {
      "anonymous": false,
      "inputs": [
        {
          "indexed": false,
          "internalType": "address",
          "name": "_forum",
          "type": "address"
        },
        {
          "indexed": false,
          "internalType": "uint256",
          "name": "_cop",
          "type": "uint256"
        }
      ],
      "name": "SetCashOutPrice",
      "type": "event"
    },
    {
      "anonymous": false,
      "inputs": [
        {
          "indexed": false,
          "internalType": "address",
          "name": "_forum",
          "type": "address"
        },
        {
          "indexed": false,
          "internalType": "address",
          "name": "_userAddress",
          "type": "address"
        },
        {
          "indexed": false,
          "internalType": "uint256",
          "name": "_karma",
          "type": "uint256"
        }
      ],
      "name": "SetKarma",
      "type": "event"
    },
    {
      "anonymous": false,
      "inputs": [
        {
          "indexed": true,
          "internalType": "address",
          "name": "_from",
          "type": "address"
        },
        {
          "indexed": true,
          "internalType": "address",
          "name": "_to",
          "type": "address"
        },
        {
          "indexed": false,
          "internalType": "uint256",
          "name": "_value",
          "type": "uint256"
        }
      ],
      "name": "Transfer",
      "type": "event"
    },
    {
      "constant": true,
      "inputs": [
        {
          "internalType": "address",
          "name": "",
          "type": "address"
        },
        {
          "internalType": "address",
          "name": "",
          "type": "address"
        }
      ],
      "name": "allowed",
      "outputs": [
        {
          "internalType": "uint256",
          "name": "",
          "type": "uint256"
        }
      ],
      "payable": false,
      "stateMutability": "view",
      "type": "function"
    },
    {
      "constant": true,
      "inputs": [
        {
          "internalType": "address",
          "name": "",
          "type": "address"
        }
      ],
      "name": "balances",
      "outputs": [
        {
          "internalType": "uint256",
          "name": "",
          "type": "uint256"
        }
      ],
      "payable": false,
      "stateMutability": "view",
      "type": "function"
    },
    {
      "constant": true,
      "inputs": [],
      "name": "decimals",
      "outputs": [
        {
          "internalType": "uint8",
          "name": "",
          "type": "uint8"
        }
      ],
      "payable": false,
      "stateMutability": "view",
      "type": "function"
    },
    {
      "constant": true,
      "inputs": [],
      "name": "name",
      "outputs": [
        {
          "internalType": "string",
          "name": "",
          "type": "string"
        }
      ],
      "payable": false,
      "stateMutability": "view",
      "type": "function"
    },
    {
      "constant": true,
      "inputs": [],
      "name": "symbol",
      "outputs": [
        {
          "internalType": "string",
          "name": "",
          "type": "string"
        }
      ],
      "payable": false,
      "stateMutability": "view",
      "type": "function"
    },
    {
      "constant": true,
      "inputs": [],
      "name": "totalSupply",
      "outputs": [
        {
          "internalType": "uint256",
          "name": "",
          "type": "uint256"
        }
      ],
      "payable": false,
      "stateMutability": "view",
      "type": "function"
    },
    {
      "constant": false,
      "inputs": [
        {
          "internalType": "address",
          "name": "_to",
          "type": "address"
        },
        {
          "internalType": "uint256",
          "name": "_value",
          "type": "uint256"
        }
      ],
      "name": "transfer",
      "outputs": [
        {
          "internalType": "bool",
          "name": "success",
          "type": "bool"
        }
      ],
      "payable": false,
      "stateMutability": "nonpayable",
      "type": "function"
    },
    {
      "constant": false,
      "inputs": [
        {
          "internalType": "address",
          "name": "_from",
          "type": "address"
        },
        {
          "internalType": "address",
          "name": "_to",
          "type": "address"
        },
        {
          "internalType": "uint256",
          "name": "_value",
          "type": "uint256"
        }
      ],
      "name": "transferFrom",
      "outputs": [
        {
          "internalType": "bool",
          "name": "success",
          "type": "bool"
        }
      ],
      "payable": false,
      "stateMutability": "nonpayable",
      "type": "function"
    },
    {
      "constant": true,
      "inputs": [
        {
          "internalType": "address",
          "name": "_owner",
          "type": "address"
        }
      ],
      "name": "balanceOf",
      "outputs": [
        {
          "internalType": "uint256",
          "name": "balance",
          "type": "uint256"
        }
      ],
      "payable": false,
      "stateMutability": "view",
      "type": "function"
    },
    {
      "constant": false,
      "inputs": [
        {
          "internalType": "address",
          "name": "_spender",
          "type": "address"
        },
        {
          "internalType": "uint256",
          "name": "_value",
          "type": "uint256"
        }
      ],
      "name": "approve",
      "outputs": [
        {
          "internalType": "bool",
          "name": "success",
          "type": "bool"
        }
      ],
      "payable": false,
      "stateMutability": "nonpayable",
      "type": "function"
    },
    {
      "constant": true,
      "inputs": [
        {
          "internalType": "address",
          "name": "_owner",
          "type": "address"
        },
        {
          "internalType": "address",
          "name": "_spender",
          "type": "address"
        }
      ],
      "name": "allowance",
      "outputs": [
        {
          "internalType": "uint256",
          "name": "remaining",
          "type": "uint256"
        }
      ],
      "payable": false,
      "stateMutability": "view",
      "type": "function"
    },
    {
      "constant": false,
      "inputs": [
        {
          "internalType": "string",
          "name": "_fname",
          "type": "string"
        }
      ],
      "name": "createForum",
      "outputs": [
        {
          "internalType": "bool",
          "name": "success",
          "type": "bool"
        }
      ],
      "payable": false,
      "stateMutability": "nonpayable",
      "type": "function"
    },
    {
      "constant": true,
      "inputs": [],
      "name": "getForumCount",
      "outputs": [
        {
          "internalType": "uint256",
          "name": "id",
          "type": "uint256"
        }
      ],
      "payable": false,
      "stateMutability": "view",
      "type": "function"
    },
    {
      "constant": true,
      "inputs": [
        {
          "internalType": "uint256",
          "name": "_fid",
          "type": "uint256"
        }
      ],
      "name": "getForumDataByFid",
      "outputs": [
        {
          "internalType": "address",
          "name": "forumOwner",
          "type": "address"
        },
        {
          "internalType": "string",
          "name": "forumName",
          "type": "string"
        },
        {
          "internalType": "uint256",
          "name": "fid",
          "type": "uint256"
        },
        {
          "internalType": "uint256",
          "name": "cop",
          "type": "uint256"
        }
      ],
      "payable": false,
      "stateMutability": "view",
      "type": "function"
    },
    {
      "constant": true,
      "inputs": [
        {
          "internalType": "address",
          "name": "_owner",
          "type": "address"
        }
      ],
      "name": "getForumData",
      "outputs": [
        {
          "internalType": "address",
          "name": "forumOwner",
          "type": "address"
        },
        {
          "internalType": "string",
          "name": "forumName",
          "type": "string"
        },
        {
          "internalType": "uint256",
          "name": "fid",
          "type": "uint256"
        },
        {
          "internalType": "uint256",
          "name": "forumCOP",
          "type": "uint256"
        }
      ],
      "payable": false,
      "stateMutability": "view",
      "type": "function"
    },
    {
      "constant": true,
      "inputs": [],
      "name": "getCurrentMCO",
      "outputs": [
        {
          "internalType": "uint256",
          "name": "max",
          "type": "uint256"
        }
      ],
      "payable": false,
      "stateMutability": "view",
      "type": "function"
    },
    {
      "constant": false,
      "inputs": [
        {
          "internalType": "address",
          "name": "_userAddress",
          "type": "address"
        },
        {
          "internalType": "string",
          "name": "_userName",
          "type": "string"
        },
        {
          "internalType": "uint256",
          "name": "_karma",
          "type": "uint256"
        }
      ],
      "name": "addUserToForum",
      "outputs": [
        {
          "internalType": "bool",
          "name": "success",
          "type": "bool"
        }
      ],
      "payable": false,
      "stateMutability": "nonpayable",
      "type": "function"
    },
    {
      "constant": false,
      "inputs": [
        {
          "internalType": "uint256",
          "name": "_karma",
          "type": "uint256"
        },
        {
          "internalType": "address",
          "name": "_userAddress",
          "type": "address"
        }
      ],
      "name": "setKarma",
      "outputs": [
        {
          "internalType": "bool",
          "name": "succ",
          "type": "bool"
        }
      ],
      "payable": false,
      "stateMutability": "nonpayable",
      "type": "function"
    },
    {
      "constant": true,
      "inputs": [
        {
          "internalType": "address",
          "name": "_userAddress",
          "type": "address"
        }
      ],
      "name": "getUserByAddress",
      "outputs": [
        {
          "internalType": "address",
          "name": "usrAddress",
          "type": "address"
        },
        {
          "internalType": "string",
          "name": "usrName",
          "type": "string"
        },
        {
          "internalType": "uint256",
          "name": "usrKarma",
          "type": "uint256"
        }
      ],
      "payable": false,
      "stateMutability": "view",
      "type": "function"
    },
    {
      "constant": true,
      "inputs": [
        {
          "internalType": "uint256",
          "name": "_ucount",
          "type": "uint256"
        }
      ],
      "name": "getUserByIndex",
      "outputs": [
        {
          "internalType": "address",
          "name": "usrAddress",
          "type": "address"
        },
        {
          "internalType": "string",
          "name": "usrName",
          "type": "string"
        },
        {
          "internalType": "uint256",
          "name": "usrKarma",
          "type": "uint256"
        }
      ],
      "payable": false,
      "stateMutability": "view",
      "type": "function"
    },
    {
      "constant": true,
      "inputs": [],
      "name": "getUserCount",
      "outputs": [
        {
          "internalType": "uint256",
          "name": "_ucount",
          "type": "uint256"
        }
      ],
      "payable": false,
      "stateMutability": "view",
      "type": "function"
    },
    {
      "constant": true,
      "inputs": [
        {
          "internalType": "address",
          "name": "_admin",
          "type": "address"
        }
      ],
      "name": "getMyInfo",
      "outputs": [
        {
          "internalType": "uint256",
          "name": "_fID",
          "type": "uint256"
        },
        {
          "internalType": "address",
          "name": "_forumAddress",
          "type": "address"
        },
        {
          "internalType": "address",
          "name": "_myAddress",
          "type": "address"
        },
        {
          "internalType": "string",
          "name": "_userName",
          "type": "string"
        },
        {
          "internalType": "uint256",
          "name": "_karma",
          "type": "uint256"
        }
      ],
      "payable": false,
      "stateMutability": "view",
      "type": "function"
    },
    {
      "constant": true,
      "inputs": [
        {
          "internalType": "uint256",
          "name": "_fid",
          "type": "uint256"
        }
      ],
      "name": "getMyInfoByFid",
      "outputs": [
        {
          "internalType": "uint256",
          "name": "_fID",
          "type": "uint256"
        },
        {
          "internalType": "address",
          "name": "_forumAddress",
          "type": "address"
        },
        {
          "internalType": "address",
          "name": "_myAddress",
          "type": "address"
        },
        {
          "internalType": "string",
          "name": "_userName",
          "type": "string"
        },
        {
          "internalType": "uint256",
          "name": "_karma",
          "type": "uint256"
        }
      ],
      "payable": false,
      "stateMutability": "view",
      "type": "function"
    },
    {
      "constant": true,
      "inputs": [
        {
          "internalType": "uint256",
          "name": "_fid",
          "type": "uint256"
        }
      ],
      "name": "getMemberStatus",
      "outputs": [
        {
          "internalType": "bool",
          "name": "success",
          "type": "bool"
        }
      ],
      "payable": false,
      "stateMutability": "view",
      "type": "function"
    },
    {
      "constant": true,
      "inputs": [
        {
          "internalType": "address",
          "name": "_forum",
          "type": "address"
        }
      ],
      "name": "accForumKarma",
      "outputs": [
        {
          "internalType": "uint256",
          "name": "",
          "type": "uint256"
        }
      ],
      "payable": false,
      "stateMutability": "view",
      "type": "function"
    },
    {
      "constant": false,
      "inputs": [
        {
          "internalType": "uint256",
          "name": "p",
          "type": "uint256"
        }
      ],
      "name": "setCashOutPrice",
      "outputs": [
        {
          "internalType": "uint256",
          "name": "coPrice",
          "type": "uint256"
        }
      ],
      "payable": false,
      "stateMutability": "nonpayable",
      "type": "function"
    },
    {
      "constant": false,
      "inputs": [
        {
          "internalType": "address",
          "name": "_forum",
          "type": "address"
        }
      ],
      "name": "cashOut",
      "outputs": [
        {
          "internalType": "bool",
          "name": "_succ",
          "type": "bool"
        }
      ],
      "payable": false,
      "stateMutability": "nonpayable",
      "type": "function"
    }
  ],
  "bytecode": "0x60806040523480156200001157600080fd5b506040516200258438038062002584833981810160405260808110156200003757600080fd5b8151602083018051604051929492938301929190846401000000008211156200005f57600080fd5b9083019060208201858111156200007557600080fd5b82516401000000008111828201881017156200009057600080fd5b82525081516020918201929091019080838360005b83811015620000bf578181015183820152602001620000a5565b50505050905090810190601f168015620000ed5780820380516001836020036101000a031916815260200191505b506040818152602083015192018051929491939192846401000000008211156200011657600080fd5b9083019060208201858111156200012c57600080fd5b82516401000000008111828201881017156200014757600080fd5b82525081516020918201929091019080838360005b83811015620001765781810151838201526020016200015c565b50505050905090810190601f168015620001a45780820380516001836020036101000a031916815260200191505b506040908152336000908152600160209081529181208990558890558651620001d794506003935090870191506200020d565b506004805460ff191660ff84161790558051620001fc9060059060208401906200020d565b5050600160085550620002b2915050565b828054600181600116156101000203166002900490600052602060002090601f016020900481019282601f106200025057805160ff191683800117855562000280565b8280016001018555821562000280579182015b828111156200028057825182559160200191906001019062000263565b506200028e92915062000292565b5090565b620002af91905b808211156200028e576000815560010162000299565b90565b6122c280620002c26000396000f3fe608060405234801561001057600080fd5b50600436106101a95760003560e01c806378f46998116100f9578063bcb1a32511610097578063d8a7136411610071578063d8a7136414610812578063dd62ed3e14610838578063edcf4aca14610866578063ff5d32fe1461086e576101a9565b8063bcb1a32514610717578063c44782c81461073d578063d341cad1146107f5576101a9565b806395d89b41116100d357806395d89b4114610635578063a232e64b1461063d578063a9059cbb146106e3578063b5cb15f71461070f576101a9565b806378f469981461054b5780637d0d719b1461061057806383d3f6b71461062d576101a9565b806323b872dd1161016657806342382b821161014057806342382b82146104175780635c6581651461044357806369c212f61461047157806370a0823114610525576101a9565b806323b872dd1461039d57806327e235e3146103d3578063313ce567146103f9576101a9565b806306fdde03146101ae578063095ea7b31461022b5780630a32bf361461026b5780630d5c846b1461034957806318160ddd146103665780631d654eea14610380575b600080fd5b6101b661088b565b6040805160208082528351818301528351919283929083019185019080838360005b838110156101f05781810151838201526020016101d8565b50505050905090810190601f16801561021d5780820380516001836020036101000a031916815260200191505b509250505060405180910390f35b6102576004803603604081101561024157600080fd5b506001600160a01b038135169060200135610919565b604080519115158252519081900360200190f35b6102916004803603602081101561028157600080fd5b50356001600160a01b031661097f565b60405180868152602001856001600160a01b03166001600160a01b03168152602001846001600160a01b03166001600160a01b0316815260200180602001838152602001828103825284818151815260200191508051906020019080838360005b8381101561030a5781810151838201526020016102f2565b50505050905090810190601f1680156103375780820380516001836020036101000a031916815260200191505b50965050505050505060405180910390f35b6102916004803603602081101561035f57600080fd5b5035610af7565b61036e610c7d565b60408051918252519081900360200190f35b61036e6004803603602081101561039657600080fd5b5035610c83565b610257600480360360608110156103b357600080fd5b506001600160a01b03813581169160208101359091169060400135610d43565b61036e600480360360208110156103e957600080fd5b50356001600160a01b0316610e45565b610401610e57565b6040805160ff9092168252519081900360200190f35b6102576004803603604081101561042d57600080fd5b50803590602001356001600160a01b0316610e60565b61036e6004803603604081101561045957600080fd5b506001600160a01b0381358116916020013516611003565b6104976004803603602081101561048757600080fd5b50356001600160a01b0316611020565b604080516001600160a01b0385168152908101829052606060208083018281528551928401929092528451608084019186019080838360005b838110156104e85781810151838201526020016104d0565b50505050905090810190601f1680156105155780820380516001836020036101000a031916815260200191505b5094505050505060405180910390f35b61036e6004803603602081101561053b57600080fd5b50356001600160a01b03166111f3565b6105716004803603602081101561056157600080fd5b50356001600160a01b031661120e565b60405180856001600160a01b03166001600160a01b0316815260200180602001848152602001838152602001828103825285818151815260200191508051906020019080838360005b838110156105d25781810151838201526020016105ba565b50505050905090810190601f1680156105ff5780820380516001836020036101000a031916815260200191505b509550505050505060405180910390f35b6102576004803603602081101561062657600080fd5b5035611365565b61036e61139a565b6101b66113a5565b6102576004803603602081101561065357600080fd5b81019060208101813564010000000081111561066e57600080fd5b82018360208201111561068057600080fd5b803590602001918460018302840111640100000000831117156106a257600080fd5b91908080601f016020809104026020016040519081016040528093929190818152602001838380828437600092019190915250929550611400945050505050565b610257600480360360408110156106f957600080fd5b506001600160a01b0381351690602001356116b0565b61036e61173a565b61036e6004803603602081101561072d57600080fd5b50356001600160a01b0316611750565b6102576004803603606081101561075357600080fd5b6001600160a01b03823516919081019060408101602082013564010000000081111561077e57600080fd5b82018360208201111561079057600080fd5b803590602001918460018302840111640100000000831117156107b257600080fd5b91908080601f01602080910402602001604051908101604052809392919081815260200183838082843760009201919091525092955050913592506117b9915050565b6105716004803603602081101561080b57600080fd5b5035611a77565b6102576004803603602081101561082857600080fd5b50356001600160a01b0316611bd7565b61036e6004803603604081101561084e57600080fd5b506001600160a01b0381358116916020013516611ea3565b61036e611ece565b6104976004803603602081101561088457600080fd5b5035611ef6565b6003805460408051602060026001851615610100026000190190941693909304601f810184900484028201840190925281815292918301828280156109115780601f106108e657610100808354040283529160200191610911565b820191906000526020600020905b8154815290600101906020018083116108f457829003601f168201915b505050505081565b3360008181526002602090815260408083206001600160a01b038716808552908352818420869055815186815291519394909390927f8c5be1e5ebec7d5bd14f71427d1e84f3dd0314c0f7b2291e5b200ac8c7c3b925928290030190a350600192915050565b6001600160a01b038116600090815260066020908152604080832033845260070190915281205481908190606090829060ff16806109ee5760405162461bcd60e51b81526004018080602001828103825260238152602001806122236023913960400191505060405180910390fd5b6001600160a01b03871660009081526006602081815260408084203385529283018252808420548085526005909301825292839020600190810180548551600293821615610100026000190190911692909204601f810184900484028301840190955284825292936060939192830182828015610aac5780601f10610a8157610100808354040283529160200191610aac565b820191906000526020600020905b815481529060010190602001808311610a8f57829003601f168201915b505050506001600160a01b038b16600081815260066020818152604080842098845260058901825283206002908101549490935252909401549b339a50919850929650945050505050565b6000818152600760208181526040808420546001600160a01b03168085526006835281852033865290930190915282205482918291606091839160ff1680610b705760405162461bcd60e51b81526004018080602001828103825260238152602001806122236023913960400191505060405180910390fd5b6001600160a01b03821660009081526006602081815260408084203385529283018252808420548085526005909301825292839020600190810180548551600293821615610100026000190190911692909204601f810184900484028301840190955284825292936060939192830182828015610c2e5780601f10610c0357610100808354040283529160200191610c2e565b820191906000526020600020905b815481529060010190602001808311610c1157829003601f168201915b505050506001600160a01b038616600081815260066020818152604080842098845260058901825283206002908101549490935252909401549c959b50339a5090985091965092945050505050565b60005481565b600080610c8f33611750565b9050610c9a336111f3565b8382021115610cda5760405162461bcd60e51b815260040180806020018281038252602f8152602001806121aa602f913960400191505060405180910390fd5b336000818152600660209081526040918290206004018690558151928352820185905280517f1e3a664cad8d6510ba3a8d27e2d38dae9ac0d77c6c9c413c8a05e5f667bf1f1b9281900390910190a1505033600090815260066020526040902060040154919050565b6001600160a01b038316600081815260026020908152604080832033845282528083205493835260019091528120549091908311801590610d845750828110155b610d8d57600080fd5b6001600160a01b0380851660009081526001602052604080822080548701905591871681522080548490039055600019811015610def576001600160a01b03851660009081526002602090815260408083203384529091529020805484900390555b836001600160a01b0316856001600160a01b03167fddf252ad1be2c89b69c2b068fc378daa952ba7f163c4a11628f55a4df523b3ef856040518082815260200191505060405180910390a3506001949350505050565b60016020526000908152604090205481565b60045460ff1681565b336000908152600660205260408120546001600160a01b0316610eb45760405162461bcd60e51b815260040180806020018281038252602181526020018061226d6021913960400191505060405180910390fd5b3360009081526006602090815260408083206001600160a01b038616845260070190915290205460ff16610f195760405162461bcd60e51b81526004018080602001828103825260278152602001806122466027913960400191505060405180910390fd5b610f22336111f3565b336000908152600660205260409020600401548402610f3f611ece565b011115610f7d5760405162461bcd60e51b81526004018080602001828103825260498152602001806121616049913960600191505060405180910390fd5b3360008181526006602081815260408084206001600160a01b03881680865293810183528185205480865260059091018352938190206002018890558051948552908401919091528281018690525190917f6e72efde20f4f95dd9fe67aff423f49f00e54450d57a924a4e34d9b4389347fa919081900360600190a15060019392505050565b600260209081526000928352604080842090915290825290205481565b3360009081526006602052604081205460609082906001600160a01b03166110795760405162461bcd60e51b815260040180806020018281038252602181526020018061226d6021913960400191505060405180910390fd5b3360009081526006602090815260408083206001600160a01b038816845260070190915290205460ff166110f4576040805162461bcd60e51b815260206004820152601a60248201527f54686973207573657220646f6573206e6f74206578697374732e000000000000604482015290519081900360640190fd5b3360009081526006602081815260408084206001600160a01b03898116865293810183528185205480865260059091018352938190208054600191820180548451600261010095831615959095026000190190911693909304601f8101869004860284018601909452838352941693606093919290918301828280156111bb5780601f10611190576101008083540402835291602001916111bb565b820191906000526020600020905b81548152906001019060200180831161119e57829003601f168201915b5050336000908152600660209081526040808320998352600590990190529690962060020154949a9299509397509095505050505050565b6001600160a01b031660009081526001602052604090205490565b336000908152600960205260408120546060908290819061126f576040805162461bcd60e51b81526020600482015260166024820152752337b93ab6903237b2b9903737ba1032bc34b9ba399760511b604482015290519081900360640190fd5b606060066000876001600160a01b03166001600160a01b031681526020019081526020016000206001018054600181600116156101000203166002900480601f01602080910402602001604051908101604052809291908181526020018280546001816001161561010002031660029004801561132d5780601f106113025761010080835404028352916020019161132d565b820191906000526020600020905b81548152906001019060200180831161131057829003601f168201915b505050506001600160a01b03881660009081526006602052604090206002810154600490910154989992989097509550909350505050565b6000908152600760208181526040808420546001600160a01b0316845260068252808420338552909201905290205460ff1690565b600854600019015b90565b6005805460408051602060026001851615610100026000190190941693909304601f810184900484028201840190925281815292918301828280156109115780601f106108e657610100808354040283529160200191610911565b336000908152600660209081526040808320600201546009909252822054811580159061142c57508082145b1561147e576040805162461bcd60e51b815260206004820152601860248201527f596f7520616c7265616479206f776e206120666f72756d2e0000000000000000604482015290519081900360640190fd5b6040805160a08101825233808252602080830188815260085484860152600060608501819052608085018190529283526006825293909120825181546001600160a01b0319166001600160a01b03909116178155925180519293926114e992600185019201906120c8565b506040828101516002830155606080840151600384015560809093015160049092019190915580519182018152338083526020808401888152600085850181905292835260068252838320838052600501825292909120835181546001600160a01b0319166001600160a01b039091161781559151805161157092600185019201906120c8565b506040918201516002918201553360008181526006602081815285832060078082018352878520805460ff1916600190811790915582850184528886208690556003830180548201905560088054600986528a8820819055875291845288862080546001600160a01b03191688179055815481019091558585529282529094015485518281528086018590526060810182905260809681018781528b51978201979097528a517fdd3369ddaf79b75cbff0e47a0b1d006f335ca8c86536c9ea26f7eb749f9df3fd9793968c959394929360a085019291870191908190849084905b83811015611669578181015183820152602001611651565b50505050905090810190601f1680156116965780820380516001836020036101000a031916815260200191505b509550505050505060405180910390a15060019392505050565b336000908152600160205260408120548211156116cc57600080fd5b336000818152600160209081526040808320805487900390556001600160a01b03871680845292819020805487019055805186815290519293927fddf252ad1be2c89b69c2b068fc378daa952ba7f163c4a11628f55a4df523b3ef929181900390910190a350600192915050565b3360009081526006602052604090206003015490565b6001600160a01b03811660009081526006602052604081206003015460010181805b828110156117b1576001600160a01b03851660009081526006602090815260408083208484526005019091529020600201549190910190600101611772565b509392505050565b3360008181526006602052604081205490916001600160a01b03909116146118125760405162461bcd60e51b815260040180806020018281038252602181526020018061226d6021913960400191505060405180910390fd5b3360009081526006602090815260408083206001600160a01b038816845260070190915290205460ff1615156001141561188a576040805162461bcd60e51b81526020600482015260146024820152732ab9b2b91030b63932b0b23c9032bc34b9ba399760611b604482015290519081900360640190fd5b611893336111f3565b3360009081526006602052604090206004015483026118b0611ece565b0111156118ee5760405162461bcd60e51b81526004018080602001828103825260498152602001806121616049913960600191505060405180910390fd5b336000908152600660209081526040808320600381015482516060810184526001600160a01b038a811682528186018a81528286018a90528388526005909401865293909520855181546001600160a01b031916941693909317835590518051919493611963926001850192909101906120c8565b5060409182015160029190910155336000818152600660208181528483206001600160a01b038b16808552600782018352868520805460ff19166001908117909155828501845287862089905595855292825260030180549094019093558351908152928301869052606083830181815288519185019190915287517f9563ebf2e8cd8c6e801c3578d24b5ae1daf34409894f28aa09590bcf6b5ba551948a948a948a94929360808501928701918190849084905b83811015611a30578181015183820152602001611a18565b50505050905090810190601f168015611a5d5780820380516001836020036101000a031916815260200191505b5094505050505060405180910390a1506001949350505050565b600081815260076020526040812054606090829081906001600160a01b031680611ae1576040805162461bcd60e51b81526020600482015260166024820152752337b93ab6903237b2b9903737ba1032bc34b9ba399760511b604482015290519081900360640190fd5b606060066000836001600160a01b03166001600160a01b031681526020019081526020016000206001018054600181600116156101000203166002900480601f016020809104026020016040519081016040528092919081815260200182805460018160011615610100020316600290048015611b9f5780601f10611b7457610100808354040283529160200191611b9f565b820191906000526020600020905b815481529060010190602001808311611b8257829003601f168201915b505050506001600160a01b03841660009081526006602052604090206002810154600490910154949a92995097509295509350505050565b6001600160a01b038116600090815260066020526040812060020154611c3b576040805162461bcd60e51b8152602060048201526014602482015273119bdc9d5b48191bd95cc81b9bdd08195e1a5cdd60621b604482015290519081900360640190fd5b6001600160a01b038216600090815260066020526040902060040154611ca8576040805162461bcd60e51b815260206004820152601b60248201527f436173682d6f757420707269636520697320302073636f6e65732e0000000000604482015290519081900360640190fd5b6001600160a01b038216600090815260066020908152604080832033845260070190915290205460ff16611d0d5760405162461bcd60e51b81526004018080602001828103825260238152602001806122236023913960400191505060405180910390fd5b6001600160a01b038216600090815260066020818152604080842033855292830182528084205480855260059093019091529091206002015480611d98576040805162461bcd60e51b815260206004820152601b60248201527f596f75206e656564206b61726d6120746f2063617368206f75742e0000000000604482015290519081900360640190fd5b6001600160a01b0384166000908152600660209081526040808320600401546001909252909120548282021115611e005760405162461bcd60e51b815260040180806020018281038252604a8152602001806121d9604a913960600191505060405180910390fd5b6001600160a01b038516600081815260016020908152604080832080548787029081900390915533808552828520805490920190915584845260068352818420888552600501835281842060020193909355805185815291820186905281810193909352606081019190915290517f99c66bf0ade74aea49d0ce673e7ec0d12f3cfd12c82f046de9fce19b4058c85c9181900360800190a1506001949350505050565b6001600160a01b03918216600090815260026020908152604080832093909416825291909152205490565b336000818152600660205260408120600401549091829190611eef90611750565b0291505090565b3360009081526006602052604081205460609082906001600160a01b0316611f65576040805162461bcd60e51b815260206004820181905260248201527f596f75206e65656420746f20637265617465206120666f72756d206669727374604482015290519081900360640190fd5b3360009081526006602090815260408083208784526005019091529020546001600160a01b0316611fdd576040805162461bcd60e51b815260206004820152601a60248201527f54686973207573657220646f6573206e6f74206578697374732e000000000000604482015290519081900360640190fd5b3360009081526006602090815260408083208784526005018252918290208054600191820180548551600261010095831615959095026000190190911693909304601f81018590048502840185019095528483526001600160a01b03909116936060938301828280156120915780601f1061206657610100808354040283529160200191612091565b820191906000526020600020905b81548152906001019060200180831161207457829003601f168201915b50503360009081526006602090815260408083208d8452600501909152902060020154959850929650939450505050509193909250565b828054600181600116156101000203166002900490600052602060002090601f016020900481019282601f1061210957805160ff1916838001178555612136565b82800160010185558215612136579182015b8281111561213657825182559160200191906001019061211b565b50612142929150612146565b5090565b6113a291905b80821115612142576000815560010161214c56fe5573657220697320676976656e20746f6f206d756368206b61726d612e20596f75722062616c616365206d69676874206e6f742062652061626c6520746f2068616e646c652069742e546f20686967682e20417175697265206d6f72652073636f6e6573206f72207472792061206c6f77657220434f502e596f752063616e206e6f742063617368206f75742073696e636520666f72756d20646f6573206e6f7420686176652073756666696369656e7420616d6f756e74206f662073636f6e6573596f7520617265206e6f742061206d656d62657220696e207468697320666f72756d2e54686973207573657220646f6573206e6f7420657869737420696e20796f757220666f72756d2e596f75206e65656420746f20637265617465206120666f72756d2066697273742ea265627a7a7231582029d1d7e5543e69d8bb5e6c3206b0f63ccf435db64c17e12e099dce6d079a743264736f6c63430005100032",
  "source": "/*\nImplements EIP20 token standard: https://github.com/ethereum/EIPs/blob/master/EIPS/eip-20.md\n.*/\n\n\npragma solidity ^0.5.0;\n\nimport \"./EIP20Interface.sol\";\n\n\ncontract Forum is EIP20Interface {\n    // The coin\n    uint256 constant private MAX_UINT256 = 2**256 - 1;\n    mapping (address => uint256) public balances;\n    mapping (address => mapping (address => uint256)) public allowed;\n\n    string public name;\n    uint8 public decimals;\n    string public symbol;\n\n    // Forum\n    mapping (address => forumData) private forums;    // An address can hold a forum\n    mapping (uint => address) private fidOwner;       // A forumID (fid) is mapped to an owner of a forum with this fid.\n    uint256 private forumId;                          // Increments when a new forum is created\n    mapping (address => uint256) addressForumId;\n\n    struct forumData{\n      address owner;\n      string forumName;\n      uint256 fid;\n      uint256 userCount;\n      uint256 cop;\n      mapping(uint256 => userData) users;\n      mapping(address => uint256) userKey; //Equal to next userCount.\n      mapping(address => bool) userExists;\n    }\n\n    struct userData{\n      address userAddress;\n      string userName;\n      uint256 karma;\n      }\n\n    constructor (\n        uint256 _initialAmount,\n        string memory _tokenName,\n        uint8 _decimalUnits,\n        string memory _tokenSymbol\n    ) public {\n        balances[msg.sender] = _initialAmount;\n        totalSupply = _initialAmount;\n        name = _tokenName;\n        decimals = _decimalUnits;\n        symbol = _tokenSymbol;\n        forumId = 1;\n    }\n\n    // Coin functions...\n    function transfer(address _to, uint256 _value) public returns (bool success) {\n        require(balances[msg.sender] >= _value);\n        balances[msg.sender] -= _value;\n        balances[_to] += _value;\n        emit Transfer(msg.sender, _to, _value); //solhint-disable-line indent, no-unused-vars\n        return true;\n    }\n\n    function transferFrom(address _from, address _to, uint256 _value) public returns (bool success) {\n        uint256 allowance = allowed[_from][msg.sender];\n        require(balances[_from] >= _value && allowance >= _value);\n        balances[_to] += _value;\n        balances[_from] -= _value;\n        if (allowance < MAX_UINT256) {\n            allowed[_from][msg.sender] -= _value;\n        }\n        emit Transfer(_from, _to, _value); //solhint-disable-line indent, no-unused-vars\n        return true;\n    }\n\n    function balanceOf(address _owner) public view returns (uint256 balance) {\n        return balances[_owner];\n    }\n\n    function approve(address _spender, uint256 _value) public returns (bool success) {\n        allowed[msg.sender][_spender] = _value;\n        emit Approval(msg.sender, _spender, _value); //solhint-disable-line indent, no-unused-vars\n        return true;\n    }\n\n    function allowance(address _owner, address _spender) public view returns (uint256 remaining) {\n        return allowed[_owner][_spender];\n    }\n    // .. end of coin functions\n\n\n\n\n\n\n    // Forum functions...\n\n    function createForum(string memory _fname) public returns (bool success){\n      uint256 a = forums[msg.sender].fid;\n      uint256 b = addressForumId[msg.sender];\n      if((a != 0) && (a == b)){\n        revert(\"You already own a forum.\");\n      }\n      forums[msg.sender] = forumData(msg.sender, _fname, forumId, 0, 0);\n      forums[msg.sender].users[0] = userData(msg.sender, _fname, 0);\n      forums[msg.sender].userExists[msg.sender] = true;\n      forums[msg.sender].userKey[msg.sender] = 0;\n      forums[msg.sender].userCount ++;\n      addressForumId[msg.sender] = forumId;\n      fidOwner[forumId] = msg.sender;\n      forumId = forumId + 1;\n      emit CreateForum(true, msg.sender, _fname, forums[msg.sender].fid);\n      return (true);\n    }\n    function getForumCount() public view returns (uint256 id){\n      return (forumId-1);\n    }\n\n    function getForumDataByFid(uint256 _fid) public view returns (address forumOwner, string memory forumName, uint256 fid, uint256 cop){\n      address owner = fidOwner[_fid];\n      if(owner == address(0x0))\n        revert(\"Forum does not exists.\");\n      string memory fName = forums[owner].forumName;\n      uint256 id = forums[owner].fid;\n      uint256 fcop = forums[owner].cop;\n      return(owner, fName, id, fcop);\n    }\n\n    function getForumData(address _owner) public view returns (address forumOwner, string memory forumName, uint256 fid, uint256 forumCOP){\n      if(addressForumId[msg.sender] == 0){\n        revert(\"Forum does not exists.\");\n      }\n      string memory fName = forums[_owner].forumName;\n      uint256 id = forums[_owner].fid;\n      uint256 fcop = forums[_owner].cop;\n      return(_owner, fName, id, fcop);\n    }\n    //Max cash out, that is if all users were to cash out.\n    function getCurrentMCO() public view returns (uint256 max){\n      uint256 res = accForumKarma(msg.sender) * forums[msg.sender].cop;\n      return res;\n    }\n\n    function addUserToForum(address _userAddress, string memory _userName, uint256 _karma) public returns (bool success){\n      if(forums[msg.sender].owner != msg.sender){\n        revert(\"You need to create a forum first.\");\n      }\n      if(forums[msg.sender].userExists[_userAddress] == true){\n        revert(\"User already exists.\");\n      }\n      if(( getCurrentMCO() + ( forums[msg.sender].cop * _karma)) > balanceOf(msg.sender))\n        revert(\"User is given too much karma. Your balace might not be able to handle it.\"); //t\n\n        uint256 newUserCount = forums[msg.sender].userCount;\n        forums[msg.sender].users[newUserCount] = userData(_userAddress, _userName, _karma);\n        forums[msg.sender].userExists[_userAddress] = true;\n        forums[msg.sender].userKey[_userAddress] = newUserCount;\n        forums[msg.sender].userCount++;\n        emit AddUserToForum(_userAddress, _userName, _karma);\n        return (true);\n    }\n\n    function setKarma(uint256 _karma, address _userAddress) public returns (bool succ){\n      if(forums[msg.sender].owner == address(0x0)){\n        revert(\"You need to create a forum first.\"); //t\n      }\n      if(!forums[msg.sender].userExists[_userAddress]){\n        revert(\"This user does not exist in your forum.\"); //t\n      }\n      if(( getCurrentMCO() + ( forums[msg.sender].cop * _karma)) > balanceOf(msg.sender))\n        revert(\"User is given too much karma. Your balace might not be able to handle it.\"); //t\n\n      uint256 ukey = forums[msg.sender].userKey[_userAddress];\n      forums[msg.sender].users[ukey].karma = _karma;\n      emit SetKarma(msg.sender, _userAddress, _karma);\n      return true;\n    }\n\n    function getUserByAddress(address _userAddress) public view returns (address usrAddress, string memory usrName, uint256 usrKarma) {\n        if(forums[msg.sender].owner == address(0x0)){\n          revert(\"You need to create a forum first.\");\n        }\n        if(!forums[msg.sender].userExists[_userAddress]){\n          revert(\"This user does not exists.\");\n        }\n        uint256 uKey = forums[msg.sender].userKey[_userAddress];\n        address uaddress = forums[msg.sender].users[uKey].userAddress;\n        string memory uname = forums[msg.sender].users[uKey].userName;\n        uint256 ukarma = forums[msg.sender].users[uKey].karma;\n        return (uaddress, uname, ukarma);\n    }\n\n    function getUserByIndex(uint256 _ucount) public view returns (address usrAddress, string memory usrName, uint256 usrKarma){\n      if(forums[msg.sender].owner == address(0x0)){\n        revert(\"You need to create a forum first\");\n      }\n\n      if(forums[msg.sender].users[_ucount].userAddress == address(0x0)){\n        revert(\"This user does not exists.\");\n      }\n      address uaddress = forums[msg.sender].users[_ucount].userAddress;\n      string memory uname = forums[msg.sender].users[_ucount].userName;\n      uint256 ukarma = forums[msg.sender].users[_ucount].karma;\n      return (uaddress, uname, ukarma);\n      }\n\n    function getUserCount() public view returns (uint256 _ucount){\n      return forums[msg.sender].userCount;\n    }\n\n    function getMyInfo(address _admin) public view returns (uint256 _fID, address _forumAddress, address _myAddress, string memory _userName, uint256 _karma) {\n      bool exists = forums[_admin].userExists[msg.sender];\n      if(!exists)\n        revert(\"You are not a member in this forum.\");\n      uint256 key = forums[_admin].userKey[msg.sender];\n      string memory uname = forums[_admin].users[key].userName;\n      uint256 karma = forums[_admin].users[key].karma;\n      uint256 fid = forums[_admin].fid;\n      return (fid, _admin, msg.sender, uname, karma);\n    }\n\n    function getMyInfoByFid(uint256 _fid) public view returns (uint256 _fID, address _forumAddress, address _myAddress, string memory _userName, uint256 _karma) {\n      address admin = fidOwner[_fid];\n      bool exists = forums[admin].userExists[msg.sender];\n      if(!exists)\n        revert(\"You are not a member in this forum.\");\n      uint256 key = forums[admin].userKey[msg.sender];\n      string memory uname = forums[admin].users[key].userName;\n      uint256 karma = forums[admin].users[key].karma;\n      uint256 fid = forums[admin].fid;\n      return (fid, admin, msg.sender, uname, karma);\n    }\n\n    function getMemberStatus(uint256 _fid) public view returns (bool success){\n      address admin = fidOwner[_fid];\n      return forums[admin].userExists[msg.sender];\n    }\n\n    function accForumKarma(address _forum) public view returns (uint256) {\n      uint256 numUsers = forums[_forum].userCount +1;\n      uint256 accKarma = 0;\n      for(uint256 i = 0; i<numUsers; i++){\n        accKarma += forums[_forum].users[i].karma;\n      }\n      return accKarma;\n    }\n\n    function setCashOutPrice(uint256 p) public returns (uint256 coPrice){\n      uint256 accKarma = accForumKarma(msg.sender);\n      if(accKarma * p > balanceOf(msg.sender))\n        revert(\"To high. Aquire more scones or try a lower COP.\"); //t\n      forums[msg.sender].cop = p;\n      emit SetCashOutPrice(msg.sender, forums[msg.sender].cop);\n      return forums[msg.sender].cop;\n    }\n\n    function cashOut(address _forum) public returns (bool _succ){\n      if (forums[_forum].fid == 0)\n        revert(\"Forum does not exist\"); //t\n\n      if (forums[_forum].cop == 0)\n        revert(\"Cash-out price is 0 scones.\"); // t\n      if(!forums[_forum].userExists[msg.sender])\n        revert(\"You are not a member in this forum.\"); //t\n\n      uint256 myKey = forums[_forum].userKey[msg.sender];\n      uint256 myKarma = forums[_forum].users[myKey].karma;\n      if(myKarma == 0)\n        revert(\"You need karma to cash out.\");\n\n      uint256 price = forums[_forum].cop;\n      if(balances[_forum] < myKarma*price)\n        revert(\"You can not cash out since forum does not have sufficient amount of scones\");\n      balances[_forum] -= myKarma*price;\n      balances[msg.sender] += myKarma*price;\n      forums[_forum].users[myKey].karma = 0;\n      emit CashOut(price, myKarma, _forum, msg.sender);\n      return true;\n    }\n\n    event SetKarma(address _forum, address _userAddress, uint256 _karma);\n    event SetCashOutPrice(address _forum, uint256 _cop);\n    event CashOut(uint256 _cop, uint256 _karma, address _from, address _to);\n    event AddUserToForum(address _userAddress, string _userName, uint256 _karma);\n    event CreateForum(bool _success, address _forumAddress, string _forumName, uint256 _fid);\n}\n",
  "sourcePath": "/home/anton/Documents/Gitz/Exjobb/Exjobb/SaviourCoin/MainApplication/contracts/Forum.sol",
  "compiler": {
    "name": "solc",
    "version": "0.5.16+commit.9c3226ce.Emscripten.clang"
  },
  "schemaVersion": "3.0.23",
  "updatedAt": "2020-05-19T18:23:33.244Z",
  "devdoc": {
    "methods": {}
  },
  "userdoc": {
    "methods": {}
  }
}