{
  "contractName": "Forum",
  "abi": [
    {
      "constant": true,
      "inputs": [],
      "name": "name",
      "outputs": [
        {
          "name": "",
          "type": "string"
        }
      ],
      "payable": false,
      "stateMutability": "view",
      "type": "function",
      "signature": "0x06fdde03"
    },
    {
      "constant": true,
      "inputs": [],
      "name": "totalSupply",
      "outputs": [
        {
          "name": "",
          "type": "uint256"
        }
      ],
      "payable": false,
      "stateMutability": "view",
      "type": "function",
      "signature": "0x18160ddd"
    },
    {
      "constant": true,
      "inputs": [
        {
          "name": "",
          "type": "address"
        }
      ],
      "name": "balances",
      "outputs": [
        {
          "name": "",
          "type": "uint256"
        }
      ],
      "payable": false,
      "stateMutability": "view",
      "type": "function",
      "signature": "0x27e235e3"
    },
    {
      "constant": true,
      "inputs": [],
      "name": "decimals",
      "outputs": [
        {
          "name": "",
          "type": "uint8"
        }
      ],
      "payable": false,
      "stateMutability": "view",
      "type": "function",
      "signature": "0x313ce567"
    },
    {
      "constant": true,
      "inputs": [
        {
          "name": "",
          "type": "address"
        },
        {
          "name": "",
          "type": "address"
        }
      ],
      "name": "allowed",
      "outputs": [
        {
          "name": "",
          "type": "uint256"
        }
      ],
      "payable": false,
      "stateMutability": "view",
      "type": "function",
      "signature": "0x5c658165"
    },
    {
      "constant": true,
      "inputs": [],
      "name": "symbol",
      "outputs": [
        {
          "name": "",
          "type": "string"
        }
      ],
      "payable": false,
      "stateMutability": "view",
      "type": "function",
      "signature": "0x95d89b41"
    },
    {
      "inputs": [
        {
          "name": "_initialAmount",
          "type": "uint256"
        },
        {
          "name": "_tokenName",
          "type": "string"
        },
        {
          "name": "_decimalUnits",
          "type": "uint8"
        },
        {
          "name": "_tokenSymbol",
          "type": "string"
        }
      ],
      "payable": false,
      "stateMutability": "nonpayable",
      "type": "constructor",
      "signature": "constructor"
    },
    {
      "anonymous": false,
      "inputs": [
        {
          "indexed": false,
          "name": "_cop",
          "type": "uint256"
        },
        {
          "indexed": false,
          "name": "_karma",
          "type": "uint256"
        },
        {
          "indexed": false,
          "name": "_from",
          "type": "address"
        },
        {
          "indexed": false,
          "name": "_to",
          "type": "address"
        }
      ],
      "name": "CashOut",
      "type": "event",
      "signature": "0x99c66bf0ade74aea49d0ce673e7ec0d12f3cfd12c82f046de9fce19b4058c85c"
    },
    {
      "anonymous": false,
      "inputs": [
        {
          "indexed": false,
          "name": "_userAddress",
          "type": "address"
        },
        {
          "indexed": false,
          "name": "_userName",
          "type": "string"
        },
        {
          "indexed": false,
          "name": "_karma",
          "type": "uint256"
        }
      ],
      "name": "AddUserToForum",
      "type": "event",
      "signature": "0x9563ebf2e8cd8c6e801c3578d24b5ae1daf34409894f28aa09590bcf6b5ba551"
    },
    {
      "anonymous": false,
      "inputs": [
        {
          "indexed": false,
          "name": "_success",
          "type": "bool"
        },
        {
          "indexed": false,
          "name": "_forumAddress",
          "type": "address"
        },
        {
          "indexed": false,
          "name": "_forumName",
          "type": "string"
        },
        {
          "indexed": false,
          "name": "_fid",
          "type": "uint256"
        }
      ],
      "name": "CreateForum",
      "type": "event",
      "signature": "0xdd3369ddaf79b75cbff0e47a0b1d006f335ca8c86536c9ea26f7eb749f9df3fd"
    },
    {
      "anonymous": false,
      "inputs": [
        {
          "indexed": true,
          "name": "_from",
          "type": "address"
        },
        {
          "indexed": true,
          "name": "_to",
          "type": "address"
        },
        {
          "indexed": false,
          "name": "_value",
          "type": "uint256"
        }
      ],
      "name": "Transfer",
      "type": "event",
      "signature": "0xddf252ad1be2c89b69c2b068fc378daa952ba7f163c4a11628f55a4df523b3ef"
    },
    {
      "anonymous": false,
      "inputs": [
        {
          "indexed": true,
          "name": "_owner",
          "type": "address"
        },
        {
          "indexed": true,
          "name": "_spender",
          "type": "address"
        },
        {
          "indexed": false,
          "name": "_value",
          "type": "uint256"
        }
      ],
      "name": "Approval",
      "type": "event",
      "signature": "0x8c5be1e5ebec7d5bd14f71427d1e84f3dd0314c0f7b2291e5b200ac8c7c3b925"
    },
    {
      "constant": false,
      "inputs": [
        {
          "name": "_to",
          "type": "address"
        },
        {
          "name": "_value",
          "type": "uint256"
        }
      ],
      "name": "transfer",
      "outputs": [
        {
          "name": "success",
          "type": "bool"
        }
      ],
      "payable": false,
      "stateMutability": "nonpayable",
      "type": "function",
      "signature": "0xa9059cbb"
    },
    {
      "constant": false,
      "inputs": [
        {
          "name": "_from",
          "type": "address"
        },
        {
          "name": "_to",
          "type": "address"
        },
        {
          "name": "_value",
          "type": "uint256"
        }
      ],
      "name": "transferFrom",
      "outputs": [
        {
          "name": "success",
          "type": "bool"
        }
      ],
      "payable": false,
      "stateMutability": "nonpayable",
      "type": "function",
      "signature": "0x23b872dd"
    },
    {
      "constant": true,
      "inputs": [
        {
          "name": "_owner",
          "type": "address"
        }
      ],
      "name": "balanceOf",
      "outputs": [
        {
          "name": "balance",
          "type": "uint256"
        }
      ],
      "payable": false,
      "stateMutability": "view",
      "type": "function",
      "signature": "0x70a08231"
    },
    {
      "constant": false,
      "inputs": [
        {
          "name": "_spender",
          "type": "address"
        },
        {
          "name": "_value",
          "type": "uint256"
        }
      ],
      "name": "approve",
      "outputs": [
        {
          "name": "success",
          "type": "bool"
        }
      ],
      "payable": false,
      "stateMutability": "nonpayable",
      "type": "function",
      "signature": "0x095ea7b3"
    },
    {
      "constant": true,
      "inputs": [
        {
          "name": "_owner",
          "type": "address"
        },
        {
          "name": "_spender",
          "type": "address"
        }
      ],
      "name": "allowance",
      "outputs": [
        {
          "name": "remaining",
          "type": "uint256"
        }
      ],
      "payable": false,
      "stateMutability": "view",
      "type": "function",
      "signature": "0xdd62ed3e"
    },
    {
      "constant": false,
      "inputs": [
        {
          "name": "_fname",
          "type": "string"
        }
      ],
      "name": "createForum",
      "outputs": [
        {
          "name": "success",
          "type": "bool"
        }
      ],
      "payable": false,
      "stateMutability": "nonpayable",
      "type": "function",
      "signature": "0xa232e64b"
    },
    {
      "constant": true,
      "inputs": [],
      "name": "getForumCount",
      "outputs": [
        {
          "name": "id",
          "type": "uint256"
        }
      ],
      "payable": false,
      "stateMutability": "view",
      "type": "function",
      "signature": "0x83d3f6b7"
    },
    {
      "constant": true,
      "inputs": [
        {
          "name": "_fid",
          "type": "uint256"
        }
      ],
      "name": "getForumDataByFid",
      "outputs": [
        {
          "name": "forumOwner",
          "type": "address"
        },
        {
          "name": "forumName",
          "type": "string"
        },
        {
          "name": "fid",
          "type": "uint256"
        }
      ],
      "payable": false,
      "stateMutability": "view",
      "type": "function",
      "signature": "0xd341cad1"
    },
    {
      "constant": true,
      "inputs": [
        {
          "name": "_owner",
          "type": "address"
        }
      ],
      "name": "getForumData",
      "outputs": [
        {
          "name": "forumOwner",
          "type": "address"
        },
        {
          "name": "forumName",
          "type": "string"
        },
        {
          "name": "fid",
          "type": "uint256"
        }
      ],
      "payable": false,
      "stateMutability": "view",
      "type": "function",
      "signature": "0x78f46998"
    },
    {
      "constant": false,
      "inputs": [
        {
          "name": "_userAddress",
          "type": "address"
        },
        {
          "name": "_userName",
          "type": "string"
        },
        {
          "name": "_karma",
          "type": "uint256"
        }
      ],
      "name": "addUserToForum",
      "outputs": [
        {
          "name": "success",
          "type": "bool"
        }
      ],
      "payable": false,
      "stateMutability": "nonpayable",
      "type": "function",
      "signature": "0xc44782c8"
    },
    {
      "constant": false,
      "inputs": [
        {
          "name": "_karma",
          "type": "uint256"
        },
        {
          "name": "_userAddress",
          "type": "address"
        }
      ],
      "name": "setKarma",
      "outputs": [
        {
          "name": "succ",
          "type": "bool"
        }
      ],
      "payable": false,
      "stateMutability": "nonpayable",
      "type": "function",
      "signature": "0x42382b82"
    },
    {
      "constant": true,
      "inputs": [
        {
          "name": "_userAddress",
          "type": "address"
        }
      ],
      "name": "getUserByAddress",
      "outputs": [
        {
          "name": "usrAddress",
          "type": "address"
        },
        {
          "name": "usrName",
          "type": "string"
        },
        {
          "name": "usrKarma",
          "type": "uint256"
        }
      ],
      "payable": false,
      "stateMutability": "view",
      "type": "function",
      "signature": "0x69c212f6"
    },
    {
      "constant": true,
      "inputs": [
        {
          "name": "_ucount",
          "type": "uint256"
        }
      ],
      "name": "getUserByIndex",
      "outputs": [
        {
          "name": "usrAddress",
          "type": "address"
        },
        {
          "name": "usrName",
          "type": "string"
        },
        {
          "name": "usrKarma",
          "type": "uint256"
        }
      ],
      "payable": false,
      "stateMutability": "view",
      "type": "function",
      "signature": "0xff5d32fe"
    },
    {
      "constant": true,
      "inputs": [],
      "name": "getUserCount",
      "outputs": [
        {
          "name": "_ucount",
          "type": "uint256"
        }
      ],
      "payable": false,
      "stateMutability": "view",
      "type": "function",
      "signature": "0xb5cb15f7"
    },
    {
      "constant": true,
      "inputs": [
        {
          "name": "_admin",
          "type": "address"
        }
      ],
      "name": "getMyInfo",
      "outputs": [
        {
          "name": "_fID",
          "type": "uint256"
        },
        {
          "name": "_forumAddress",
          "type": "address"
        },
        {
          "name": "_myAddress",
          "type": "address"
        },
        {
          "name": "_userName",
          "type": "string"
        },
        {
          "name": "_karma",
          "type": "uint256"
        }
      ],
      "payable": false,
      "stateMutability": "view",
      "type": "function",
      "signature": "0x0a32bf36"
    },
    {
      "constant": true,
      "inputs": [
        {
          "name": "_fid",
          "type": "uint256"
        }
      ],
      "name": "getMyInfoByFid",
      "outputs": [
        {
          "name": "_fID",
          "type": "uint256"
        },
        {
          "name": "_forumAddress",
          "type": "address"
        },
        {
          "name": "_myAddress",
          "type": "address"
        },
        {
          "name": "_userName",
          "type": "string"
        },
        {
          "name": "_karma",
          "type": "uint256"
        },
        {
          "name": "_cashOutPrice",
          "type": "uint256"
        },
        {
          "name": "_forumName",
          "type": "string"
        }
      ],
      "payable": false,
      "stateMutability": "view",
      "type": "function",
      "signature": "0x0d5c846b"
    },
    {
      "constant": true,
      "inputs": [
        {
          "name": "_fid",
          "type": "uint256"
        }
      ],
      "name": "getMemberStatus",
      "outputs": [
        {
          "name": "_fID",
          "type": "uint256"
        },
        {
          "name": "success",
          "type": "bool"
        }
      ],
      "payable": false,
      "stateMutability": "view",
      "type": "function",
      "signature": "0x7d0d719b"
    },
    {
      "constant": true,
      "inputs": [
        {
          "name": "_forum",
          "type": "address"
        }
      ],
      "name": "accForumKarma",
      "outputs": [
        {
          "name": "",
          "type": "uint256"
        }
      ],
      "payable": false,
      "stateMutability": "view",
      "type": "function",
      "signature": "0xbcb1a325"
    },
    {
      "constant": true,
      "inputs": [
        {
          "name": "_forum",
          "type": "address"
        }
      ],
      "name": "getCashOutPrice",
      "outputs": [
        {
          "name": "_res",
          "type": "uint256"
        }
      ],
      "payable": false,
      "stateMutability": "view",
      "type": "function",
      "signature": "0x9c2ebaaa"
    },
    {
      "constant": false,
      "inputs": [
        {
          "name": "_forum",
          "type": "address"
        }
      ],
      "name": "cashOut",
      "outputs": [
        {
          "name": "_succ",
          "type": "bool"
        }
      ],
      "payable": false,
      "stateMutability": "nonpayable",
      "type": "function",
      "signature": "0xd8a71364"
    }
  ],
  "bytecode": "0x60806040523480156200001157600080fd5b506040516200463638038062004636833981018060405260808110156200003757600080fd5b810190808051906020019092919080516401000000008111156200005a57600080fd5b828101905060208101848111156200007157600080fd5b81518560018202830111640100000000821117156200008f57600080fd5b5050929190602001805190602001909291908051640100000000811115620000b657600080fd5b82810190506020810184811115620000cd57600080fd5b8151856001820283011164010000000082111715620000eb57600080fd5b505092919050505083600160003373ffffffffffffffffffffffffffffffffffffffff1673ffffffffffffffffffffffffffffffffffffffff16815260200190815260200160002081905550836000819055508260039080519060200190620001569291906200019d565b5081600460006101000a81548160ff021916908360ff16021790555080600590805190602001906200018a9291906200019d565b506001600881905550505050506200024c565b828054600181600116156101000203166002900490600052602060002090601f016020900481019282601f10620001e057805160ff191683800117855562000211565b8280016001018555821562000211579182015b8281111562000210578251825591602001919060010190620001f3565b5b50905062000220919062000224565b5090565b6200024991905b80821115620002455760008160009055506001016200022b565b5090565b90565b6143da806200025c6000396000f3fe608060405260043610610154576000357c0100000000000000000000000000000000000000000000000000000000900463ffffffff16806306fdde0314610159578063095ea7b3146101e95780630a32bf361461025c5780630d5c846b1461039a57806318160ddd1461053557806323b872dd1461056057806327e235e3146105f3578063313ce5671461065857806342382b82146106895780635c658165146106fc57806369c212f61461078157806370a082311461088557806378f46998146108ea5780637d0d719b146109ee57806383d3f6b714610a4857806395d89b4114610a735780639c2ebaaa14610b03578063a232e64b14610b68578063a9059cbb14610c48578063b5cb15f714610cbb578063bcb1a32514610ce6578063c44782c814610d4b578063d341cad114610e55578063d8a7136414610f43578063dd62ed3e14610fac578063ff5d32fe14611031575b600080fd5b34801561016557600080fd5b5061016e61111f565b6040518080602001828103825283818151815260200191508051906020019080838360005b838110156101ae578082015181840152602081019050610193565b50505050905090810190601f1680156101db5780820380516001836020036101000a031916815260200191505b509250505060405180910390f35b3480156101f557600080fd5b506102426004803603604081101561020c57600080fd5b81019080803573ffffffffffffffffffffffffffffffffffffffff169060200190929190803590602001909291905050506111bd565b604051808215151515815260200191505060405180910390f35b34801561026857600080fd5b506102ab6004803603602081101561027f57600080fd5b81019080803573ffffffffffffffffffffffffffffffffffffffff1690602001909291905050506112af565b604051808681526020018573ffffffffffffffffffffffffffffffffffffffff1673ffffffffffffffffffffffffffffffffffffffff1681526020018473ffffffffffffffffffffffffffffffffffffffff1673ffffffffffffffffffffffffffffffffffffffff16815260200180602001838152602001828103825284818151815260200191508051906020019080838360005b8381101561035b578082015181840152602081019050610340565b50505050905090810190601f1680156103885780820380516001836020036101000a031916815260200191505b50965050505050505060405180910390f35b3480156103a657600080fd5b506103d3600480360360208110156103bd57600080fd5b810190808035906020019092919050505061161c565b604051808881526020018773ffffffffffffffffffffffffffffffffffffffff1673ffffffffffffffffffffffffffffffffffffffff1681526020018673ffffffffffffffffffffffffffffffffffffffff1673ffffffffffffffffffffffffffffffffffffffff1681526020018060200185815260200184815260200180602001838103835287818151815260200191508051906020019080838360005b8381101561048d578082015181840152602081019050610472565b50505050905090810190601f1680156104ba5780820380516001836020036101000a031916815260200191505b50838103825284818151815260200191508051906020019080838360005b838110156104f35780820151818401526020810190506104d8565b50505050905090810190601f1680156105205780820380516001836020036101000a031916815260200191505b50995050505050505050505060405180910390f35b34801561054157600080fd5b5061054a611abc565b6040518082815260200191505060405180910390f35b34801561056c57600080fd5b506105d96004803603606081101561058357600080fd5b81019080803573ffffffffffffffffffffffffffffffffffffffff169060200190929190803573ffffffffffffffffffffffffffffffffffffffff16906020019092919080359060200190929190505050611ac2565b604051808215151515815260200191505060405180910390f35b3480156105ff57600080fd5b506106426004803603602081101561061657600080fd5b81019080803573ffffffffffffffffffffffffffffffffffffffff169060200190929190505050611d5c565b6040518082815260200191505060405180910390f35b34801561066457600080fd5b5061066d611d74565b604051808260ff1660ff16815260200191505060405180910390f35b34801561069557600080fd5b506106e2600480360360408110156106ac57600080fd5b8101908080359060200190929190803573ffffffffffffffffffffffffffffffffffffffff169060200190929190505050611d87565b604051808215151515815260200191505060405180910390f35b34801561070857600080fd5b5061076b6004803603604081101561071f57600080fd5b81019080803573ffffffffffffffffffffffffffffffffffffffff169060200190929190803573ffffffffffffffffffffffffffffffffffffffff169060200190929190505050611faf565b6040518082815260200191505060405180910390f35b34801561078d57600080fd5b506107d0600480360360208110156107a457600080fd5b81019080803573ffffffffffffffffffffffffffffffffffffffff169060200190929190505050611fd4565b604051808473ffffffffffffffffffffffffffffffffffffffff1673ffffffffffffffffffffffffffffffffffffffff16815260200180602001838152602001828103825284818151815260200191508051906020019080838360005b8381101561084857808201518184015260208101905061082d565b50505050905090810190601f1680156108755780820380516001836020036101000a031916815260200191505b5094505050505060405180910390f35b34801561089157600080fd5b506108d4600480360360208110156108a857600080fd5b81019080803573ffffffffffffffffffffffffffffffffffffffff169060200190929190505050612466565b6040518082815260200191505060405180910390f35b3480156108f657600080fd5b506109396004803603602081101561090d57600080fd5b81019080803573ffffffffffffffffffffffffffffffffffffffff1690602001909291905050506124af565b604051808473ffffffffffffffffffffffffffffffffffffffff1673ffffffffffffffffffffffffffffffffffffffff16815260200180602001838152602001828103825284818151815260200191508051906020019080838360005b838110156109b1578082015181840152602081019050610996565b50505050905090810190601f1680156109de5780820380516001836020036101000a031916815260200191505b5094505050505060405180910390f35b3480156109fa57600080fd5b50610a2760048036036020811015610a1157600080fd5b81019080803590602001909291905050506126a2565b60405180838152602001821515151581526020019250505060405180910390f35b348015610a5457600080fd5b50610a5d612775565b6040518082815260200191505060405180910390f35b348015610a7f57600080fd5b50610a88612782565b6040518080602001828103825283818151815260200191508051906020019080838360005b83811015610ac8578082015181840152602081019050610aad565b50505050905090810190601f168015610af55780820380516001836020036101000a031916815260200191505b509250505060405180910390f35b348015610b0f57600080fd5b50610b5260048036036020811015610b2657600080fd5b81019080803573ffffffffffffffffffffffffffffffffffffffff169060200190929190505050612820565b6040518082815260200191505060405180910390f35b348015610b7457600080fd5b50610c2e60048036036020811015610b8b57600080fd5b8101908080359060200190640100000000811115610ba857600080fd5b820183602082011115610bba57600080fd5b80359060200191846001830284011164010000000083111715610bdc57600080fd5b91908080601f016020809104026020016040519081016040528093929190818152602001838380828437600081840152601f19601f820116905080830192505050505050509192919290505050612889565b604051808215151515815260200191505060405180910390f35b348015610c5457600080fd5b50610ca160048036036040811015610c6b57600080fd5b81019080803573ffffffffffffffffffffffffffffffffffffffff16906020019092919080359060200190929190505050612ecb565b604051808215151515815260200191505060405180910390f35b348015610cc757600080fd5b50610cd0613024565b6040518082815260200191505060405180910390f35b348015610cf257600080fd5b50610d3560048036036020811015610d0957600080fd5b81019080803573ffffffffffffffffffffffffffffffffffffffff16906020019092919050505061306e565b6040518082815260200191505060405180910390f35b348015610d5757600080fd5b50610e3b60048036036060811015610d6e57600080fd5b81019080803573ffffffffffffffffffffffffffffffffffffffff16906020019092919080359060200190640100000000811115610dab57600080fd5b820183602082011115610dbd57600080fd5b80359060200191846001830284011164010000000083111715610ddf57600080fd5b91908080601f016020809104026020016040519081016040528093929190818152602001838380828437600081840152601f19601f8201169050808301925050505050505091929192908035906020019092919050505061313f565b604051808215151515815260200191505060405180910390f35b348015610e6157600080fd5b50610e8e60048036036020811015610e7857600080fd5b8101908080359060200190929190505050613702565b604051808473ffffffffffffffffffffffffffffffffffffffff1673ffffffffffffffffffffffffffffffffffffffff16815260200180602001838152602001828103825284818151815260200191508051906020019080838360005b83811015610f06578082015181840152602081019050610eeb565b50505050905090810190601f168015610f335780820380516001836020036101000a031916815260200191505b5094505050505060405180910390f35b348015610f4f57600080fd5b50610f9260048036036020811015610f6657600080fd5b81019080803573ffffffffffffffffffffffffffffffffffffffff16906020019092919050505061391b565b604051808215151515815260200191505060405180910390f35b348015610fb857600080fd5b5061101b60048036036040811015610fcf57600080fd5b81019080803573ffffffffffffffffffffffffffffffffffffffff169060200190929190803573ffffffffffffffffffffffffffffffffffffffff169060200190929190505050613e83565b6040518082815260200191505060405180910390f35b34801561103d57600080fd5b5061106a6004803603602081101561105457600080fd5b8101908080359060200190929190505050613f0a565b604051808473ffffffffffffffffffffffffffffffffffffffff1673ffffffffffffffffffffffffffffffffffffffff16815260200180602001838152602001828103825284818151815260200191508051906020019080838360005b838110156110e25780820151818401526020810190506110c7565b50505050905090810190601f16801561110f5780820380516001836020036101000a031916815260200191505b5094505050505060405180910390f35b60038054600181600116156101000203166002900480601f0160208091040260200160405190810160405280929190818152602001828054600181600116156101000203166002900480156111b55780601f1061118a576101008083540402835291602001916111b5565b820191906000526020600020905b81548152906001019060200180831161119857829003601f168201915b505050505081565b600081600260003373ffffffffffffffffffffffffffffffffffffffff1673ffffffffffffffffffffffffffffffffffffffff16815260200190815260200160002060008573ffffffffffffffffffffffffffffffffffffffff1673ffffffffffffffffffffffffffffffffffffffff168152602001908152602001600020819055508273ffffffffffffffffffffffffffffffffffffffff163373ffffffffffffffffffffffffffffffffffffffff167f8c5be1e5ebec7d5bd14f71427d1e84f3dd0314c0f7b2291e5b200ac8c7c3b925846040518082815260200191505060405180910390a36001905092915050565b60008060006060600080600660008873ffffffffffffffffffffffffffffffffffffffff1673ffffffffffffffffffffffffffffffffffffffff16815260200190815260200160002060060160003373ffffffffffffffffffffffffffffffffffffffff1673ffffffffffffffffffffffffffffffffffffffff16815260200190815260200160002060009054906101000a900460ff1690508015156113e3576040517f08c379a00000000000000000000000000000000000000000000000000000000081526004018080602001828103825260238152602001807f596f7520617265206e6f742061206d656d62657220696e207468697320666f7281526020017f756d2e000000000000000000000000000000000000000000000000000000000081525060400191505060405180910390fd5b6000600660008973ffffffffffffffffffffffffffffffffffffffff1673ffffffffffffffffffffffffffffffffffffffff16815260200190815260200160002060050160003373ffffffffffffffffffffffffffffffffffffffff1673ffffffffffffffffffffffffffffffffffffffff1681526020019081526020016000205490506060600660008a73ffffffffffffffffffffffffffffffffffffffff1673ffffffffffffffffffffffffffffffffffffffff16815260200190815260200160002060040160008381526020019081526020016000206001018054600181600116156101000203166002900480601f0160208091040260200160405190810160405280929190818152602001828054600181600116156101000203166002900480156115535780601f1061152857610100808354040283529160200191611553565b820191906000526020600020905b81548152906001019060200180831161153657829003601f168201915b505050505090506000600660008b73ffffffffffffffffffffffffffffffffffffffff1673ffffffffffffffffffffffffffffffffffffffff16815260200190815260200160002060040160008481526020019081526020016000206002015490506000600660008c73ffffffffffffffffffffffffffffffffffffffff1673ffffffffffffffffffffffffffffffffffffffff168152602001908152602001600020600201549050808b33858582925099509950995099509950505050505091939590929450565b6000806000606060008060606000600760008a815260200190815260200160002060009054906101000a900473ffffffffffffffffffffffffffffffffffffffff1690506000600660008373ffffffffffffffffffffffffffffffffffffffff1673ffffffffffffffffffffffffffffffffffffffff16815260200190815260200160002060060160003373ffffffffffffffffffffffffffffffffffffffff1673ffffffffffffffffffffffffffffffffffffffff16815260200190815260200160002060009054906101000a900460ff16905080151561178c576040517f08c379a00000000000000000000000000000000000000000000000000000000081526004018080602001828103825260238152602001807f596f7520617265206e6f742061206d656d62657220696e207468697320666f7281526020017f756d2e000000000000000000000000000000000000000000000000000000000081525060400191505060405180910390fd5b6000600660008473ffffffffffffffffffffffffffffffffffffffff1673ffffffffffffffffffffffffffffffffffffffff16815260200190815260200160002060050160003373ffffffffffffffffffffffffffffffffffffffff1673ffffffffffffffffffffffffffffffffffffffff1681526020019081526020016000205490506060600660008573ffffffffffffffffffffffffffffffffffffffff1673ffffffffffffffffffffffffffffffffffffffff16815260200190815260200160002060040160008381526020019081526020016000206001018054600181600116156101000203166002900480601f0160208091040260200160405190810160405280929190818152602001828054600181600116156101000203166002900480156118fc5780601f106118d1576101008083540402835291602001916118fc565b820191906000526020600020905b8154815290600101906020018083116118df57829003601f168201915b505050505090506000600660008673ffffffffffffffffffffffffffffffffffffffff1673ffffffffffffffffffffffffffffffffffffffff16815260200190815260200160002060040160008481526020019081526020016000206002015490506000600660008773ffffffffffffffffffffffffffffffffffffffff1673ffffffffffffffffffffffffffffffffffffffff16815260200190815260200160002060020154905060006119b087612820565b90506060600660008973ffffffffffffffffffffffffffffffffffffffff1673ffffffffffffffffffffffffffffffffffffffff1681526020019081526020016000206001018054600181600116156101000203166002900480601f016020809104026020016040519081016040528092919081815260200182805460018160011615610100020316600290048015611a8a5780601f10611a5f57610100808354040283529160200191611a8a565b820191906000526020600020905b815481529060010190602001808311611a6d57829003601f168201915b50505050509050828833878786868494509e509e509e509e509e509e509e505050505050505050919395979092949650565b60005481565b600080600260008673ffffffffffffffffffffffffffffffffffffffff1673ffffffffffffffffffffffffffffffffffffffff16815260200190815260200160002060003373ffffffffffffffffffffffffffffffffffffffff1673ffffffffffffffffffffffffffffffffffffffff16815260200190815260200160002054905082600160008773ffffffffffffffffffffffffffffffffffffffff1673ffffffffffffffffffffffffffffffffffffffff1681526020019081526020016000205410158015611b935750828110155b1515611b9e57600080fd5b82600160008673ffffffffffffffffffffffffffffffffffffffff1673ffffffffffffffffffffffffffffffffffffffff1681526020019081526020016000206000828254019250508190555082600160008773ffffffffffffffffffffffffffffffffffffffff1673ffffffffffffffffffffffffffffffffffffffff168152602001908152602001600020600082825403925050819055507fffffffffffffffffffffffffffffffffffffffffffffffffffffffffffffffff811015611ceb5782600260008773ffffffffffffffffffffffffffffffffffffffff1673ffffffffffffffffffffffffffffffffffffffff16815260200190815260200160002060003373ffffffffffffffffffffffffffffffffffffffff1673ffffffffffffffffffffffffffffffffffffffff168152602001908152602001600020600082825403925050819055505b8373ffffffffffffffffffffffffffffffffffffffff168573ffffffffffffffffffffffffffffffffffffffff167fddf252ad1be2c89b69c2b068fc378daa952ba7f163c4a11628f55a4df523b3ef856040518082815260200191505060405180910390a360019150509392505050565b60016020528060005260406000206000915090505481565b600460009054906101000a900460ff1681565b60008073ffffffffffffffffffffffffffffffffffffffff16600660003373ffffffffffffffffffffffffffffffffffffffff1673ffffffffffffffffffffffffffffffffffffffff16815260200190815260200160002060000160009054906101000a900473ffffffffffffffffffffffffffffffffffffffff1673ffffffffffffffffffffffffffffffffffffffff161415611e285760009050611fa9565b600660003373ffffffffffffffffffffffffffffffffffffffff1673ffffffffffffffffffffffffffffffffffffffff16815260200190815260200160002060060160008373ffffffffffffffffffffffffffffffffffffffff1673ffffffffffffffffffffffffffffffffffffffff16815260200190815260200160002060009054906101000a900460ff161515611ec45760009050611fa9565b6000600660003373ffffffffffffffffffffffffffffffffffffffff1673ffffffffffffffffffffffffffffffffffffffff16815260200190815260200160002060050160008473ffffffffffffffffffffffffffffffffffffffff1673ffffffffffffffffffffffffffffffffffffffff16815260200190815260200160002054905083600660003373ffffffffffffffffffffffffffffffffffffffff1673ffffffffffffffffffffffffffffffffffffffff16815260200190815260200160002060040160008381526020019081526020016000206002018190555060019150505b92915050565b6002602052816000526040600020602052806000526040600020600091509150505481565b6000606060008073ffffffffffffffffffffffffffffffffffffffff16600660003373ffffffffffffffffffffffffffffffffffffffff1673ffffffffffffffffffffffffffffffffffffffff16815260200190815260200160002060000160009054906101000a900473ffffffffffffffffffffffffffffffffffffffff1673ffffffffffffffffffffffffffffffffffffffff161415612104576040517f08c379a00000000000000000000000000000000000000000000000000000000081526004018080602001828103825260218152602001807f596f75206e65656420746f20637265617465206120666f72756d20666972737481526020017f2e0000000000000000000000000000000000000000000000000000000000000081525060400191505060405180910390fd5b600660003373ffffffffffffffffffffffffffffffffffffffff1673ffffffffffffffffffffffffffffffffffffffff16815260200190815260200160002060060160008573ffffffffffffffffffffffffffffffffffffffff1673ffffffffffffffffffffffffffffffffffffffff16815260200190815260200160002060009054906101000a900460ff161515612205576040517f08c379a000000000000000000000000000000000000000000000000000000000815260040180806020018281038252601a8152602001807f54686973207573657220646f6573206e6f74206578697374732e00000000000081525060200191505060405180910390fd5b6000600660003373ffffffffffffffffffffffffffffffffffffffff1673ffffffffffffffffffffffffffffffffffffffff16815260200190815260200160002060050160008673ffffffffffffffffffffffffffffffffffffffff1673ffffffffffffffffffffffffffffffffffffffff1681526020019081526020016000205490506000600660003373ffffffffffffffffffffffffffffffffffffffff1673ffffffffffffffffffffffffffffffffffffffff168152602001908152602001600020600401600083815260200190815260200160002060000160009054906101000a900473ffffffffffffffffffffffffffffffffffffffff1690506060600660003373ffffffffffffffffffffffffffffffffffffffff1673ffffffffffffffffffffffffffffffffffffffff16815260200190815260200160002060040160008481526020019081526020016000206001018054600181600116156101000203166002900480601f0160208091040260200160405190810160405280929190818152602001828054600181600116156101000203166002900480156123f05780601f106123c5576101008083540402835291602001916123f0565b820191906000526020600020905b8154815290600101906020018083116123d357829003601f168201915b505050505090506000600660003373ffffffffffffffffffffffffffffffffffffffff1673ffffffffffffffffffffffffffffffffffffffff1681526020019081526020016000206004016000858152602001908152602001600020600201549050828282965096509650505050509193909250565b6000600160008373ffffffffffffffffffffffffffffffffffffffff1673ffffffffffffffffffffffffffffffffffffffff168152602001908152602001600020549050919050565b60006060600080600960003373ffffffffffffffffffffffffffffffffffffffff1673ffffffffffffffffffffffffffffffffffffffff16815260200190815260200160002054141561256a576040517f08c379a00000000000000000000000000000000000000000000000000000000081526004018080602001828103825260168152602001807f466f72756d20646f6573206e6f74206578697374732e0000000000000000000081525060200191505060405180910390fd5b6060600660008673ffffffffffffffffffffffffffffffffffffffff1673ffffffffffffffffffffffffffffffffffffffff1681526020019081526020016000206001018054600181600116156101000203166002900480601f0160208091040260200160405190810160405280929190818152602001828054600181600116156101000203166002900480156126425780601f1061261757610100808354040283529160200191612642565b820191906000526020600020905b81548152906001019060200180831161262557829003601f168201915b505050505090506000600660008773ffffffffffffffffffffffffffffffffffffffff1673ffffffffffffffffffffffffffffffffffffffff16815260200190815260200160002060020154905085828294509450945050509193909250565b60008060006007600085815260200190815260200160002060009054906101000a900473ffffffffffffffffffffffffffffffffffffffff16905083600660008373ffffffffffffffffffffffffffffffffffffffff1673ffffffffffffffffffffffffffffffffffffffff16815260200190815260200160002060060160003373ffffffffffffffffffffffffffffffffffffffff1673ffffffffffffffffffffffffffffffffffffffff16815260200190815260200160002060009054906101000a900460ff169250925050915091565b6000600160085403905090565b60058054600181600116156101000203166002900480601f0160208091040260200160405190810160405280929190818152602001828054600181600116156101000203166002900480156128185780601f106127ed57610100808354040283529160200191612818565b820191906000526020600020905b8154815290600101906020018083116127fb57829003601f168201915b505050505081565b60008061282c8361306e565b9050600061283984612466565b9050600082148061284a5750600081145b1561285a57600092505050612884565b6000828281151561286757fe5b06905060008382840381151561287957fe5b049050809450505050505b919050565b600080600660003373ffffffffffffffffffffffffffffffffffffffff1673ffffffffffffffffffffffffffffffffffffffff1681526020019081526020016000206002015490506000600960003373ffffffffffffffffffffffffffffffffffffffff1673ffffffffffffffffffffffffffffffffffffffff1681526020019081526020016000205490506000821415801561292557508082145b15612998576040517f08c379a00000000000000000000000000000000000000000000000000000000081526004018080602001828103825260188152602001807f596f7520616c7265616479206f776e206120666f72756d2e000000000000000081525060200191505060405180910390fd5b6080604051908101604052803373ffffffffffffffffffffffffffffffffffffffff16815260200185815260200160085481526020016000815250600660003373ffffffffffffffffffffffffffffffffffffffff1673ffffffffffffffffffffffffffffffffffffffff16815260200190815260200160002060008201518160000160006101000a81548173ffffffffffffffffffffffffffffffffffffffff021916908373ffffffffffffffffffffffffffffffffffffffff1602179055506020820151816001019080519060200190612a75929190614309565b5060408201518160020155606082015181600301559050506060604051908101604052803373ffffffffffffffffffffffffffffffffffffffff1681526020018581526020016000815250600660003373ffffffffffffffffffffffffffffffffffffffff1673ffffffffffffffffffffffffffffffffffffffff168152602001908152602001600020600401600080815260200190815260200160002060008201518160000160006101000a81548173ffffffffffffffffffffffffffffffffffffffff021916908373ffffffffffffffffffffffffffffffffffffffff1602179055506020820151816001019080519060200190612b76929190614309565b50604082015181600201559050506001600660003373ffffffffffffffffffffffffffffffffffffffff1673ffffffffffffffffffffffffffffffffffffffff16815260200190815260200160002060060160003373ffffffffffffffffffffffffffffffffffffffff1673ffffffffffffffffffffffffffffffffffffffff16815260200190815260200160002060006101000a81548160ff0219169083151502179055506000600660003373ffffffffffffffffffffffffffffffffffffffff1673ffffffffffffffffffffffffffffffffffffffff16815260200190815260200160002060050160003373ffffffffffffffffffffffffffffffffffffffff1673ffffffffffffffffffffffffffffffffffffffff16815260200190815260200160002081905550600660003373ffffffffffffffffffffffffffffffffffffffff1673ffffffffffffffffffffffffffffffffffffffff16815260200190815260200160002060030160008154809291906001019190505550600854600960003373ffffffffffffffffffffffffffffffffffffffff1673ffffffffffffffffffffffffffffffffffffffff168152602001908152602001600020819055503360076000600854815260200190815260200160002060006101000a81548173ffffffffffffffffffffffffffffffffffffffff021916908373ffffffffffffffffffffffffffffffffffffffff1602179055506001600854016008819055507fdd3369ddaf79b75cbff0e47a0b1d006f335ca8c86536c9ea26f7eb749f9df3fd60013386600660003373ffffffffffffffffffffffffffffffffffffffff1673ffffffffffffffffffffffffffffffffffffffff1681526020019081526020016000206002015460405180851515151581526020018473ffffffffffffffffffffffffffffffffffffffff1673ffffffffffffffffffffffffffffffffffffffff16815260200180602001838152602001828103825284818151815260200191508051906020019080838360005b83811015612e83578082015181840152602081019050612e68565b50505050905090810190601f168015612eb05780820380516001836020036101000a031916815260200191505b509550505050505060405180910390a1600192505050919050565b600081600160003373ffffffffffffffffffffffffffffffffffffffff1673ffffffffffffffffffffffffffffffffffffffff1681526020019081526020016000205410151515612f1b57600080fd5b81600160003373ffffffffffffffffffffffffffffffffffffffff1673ffffffffffffffffffffffffffffffffffffffff1681526020019081526020016000206000828254039250508190555081600160008573ffffffffffffffffffffffffffffffffffffffff1673ffffffffffffffffffffffffffffffffffffffff168152602001908152602001600020600082825401925050819055508273ffffffffffffffffffffffffffffffffffffffff163373ffffffffffffffffffffffffffffffffffffffff167fddf252ad1be2c89b69c2b068fc378daa952ba7f163c4a11628f55a4df523b3ef846040518082815260200191505060405180910390a36001905092915050565b6000600660003373ffffffffffffffffffffffffffffffffffffffff1673ffffffffffffffffffffffffffffffffffffffff16815260200190815260200160002060030154905090565b6000806001600660008573ffffffffffffffffffffffffffffffffffffffff1673ffffffffffffffffffffffffffffffffffffffff16815260200190815260200160002060030154019050600080905060008090505b8281101561313457600660008673ffffffffffffffffffffffffffffffffffffffff1673ffffffffffffffffffffffffffffffffffffffff1681526020019081526020016000206004016000828152602001908152602001600020600201548201915080806001019150506130c4565b508092505050919050565b60003373ffffffffffffffffffffffffffffffffffffffff16600660003373ffffffffffffffffffffffffffffffffffffffff1673ffffffffffffffffffffffffffffffffffffffff16815260200190815260200160002060000160009054906101000a900473ffffffffffffffffffffffffffffffffffffffff1673ffffffffffffffffffffffffffffffffffffffff1614151561326c576040517f08c379a00000000000000000000000000000000000000000000000000000000081526004018080602001828103825260218152602001807f596f75206e65656420746f20637265617465206120666f72756d20666972737481526020017f2e0000000000000000000000000000000000000000000000000000000000000081525060400191505060405180910390fd5b60011515600660003373ffffffffffffffffffffffffffffffffffffffff1673ffffffffffffffffffffffffffffffffffffffff16815260200190815260200160002060060160008673ffffffffffffffffffffffffffffffffffffffff1673ffffffffffffffffffffffffffffffffffffffff16815260200190815260200160002060009054906101000a900460ff1615151415613373576040517f08c379a00000000000000000000000000000000000000000000000000000000081526004018080602001828103825260148152602001807f5573657220616c7265616479206578697374732e00000000000000000000000081525060200191505060405180910390fd5b600660003373ffffffffffffffffffffffffffffffffffffffff1673ffffffffffffffffffffffffffffffffffffffff168152602001908152602001600020600301600081548092919060010191905055506000600660003373ffffffffffffffffffffffffffffffffffffffff1673ffffffffffffffffffffffffffffffffffffffff1681526020019081526020016000206003015490506060604051908101604052808673ffffffffffffffffffffffffffffffffffffffff16815260200185815260200184815250600660003373ffffffffffffffffffffffffffffffffffffffff1673ffffffffffffffffffffffffffffffffffffffff168152602001908152602001600020600401600083815260200190815260200160002060008201518160000160006101000a81548173ffffffffffffffffffffffffffffffffffffffff021916908373ffffffffffffffffffffffffffffffffffffffff16021790555060208201518160010190805190602001906134f4929190614309565b50604082015181600201559050506001600660003373ffffffffffffffffffffffffffffffffffffffff1673ffffffffffffffffffffffffffffffffffffffff16815260200190815260200160002060060160008773ffffffffffffffffffffffffffffffffffffffff1673ffffffffffffffffffffffffffffffffffffffff16815260200190815260200160002060006101000a81548160ff02191690831515021790555080600660003373ffffffffffffffffffffffffffffffffffffffff1673ffffffffffffffffffffffffffffffffffffffff16815260200190815260200160002060050160008773ffffffffffffffffffffffffffffffffffffffff1673ffffffffffffffffffffffffffffffffffffffff168152602001908152602001600020819055507f9563ebf2e8cd8c6e801c3578d24b5ae1daf34409894f28aa09590bcf6b5ba551858585604051808473ffffffffffffffffffffffffffffffffffffffff1673ffffffffffffffffffffffffffffffffffffffff16815260200180602001838152602001828103825284818151815260200191508051906020019080838360005b838110156136ba57808201518184015260208101905061369f565b50505050905090810190601f1680156136e75780820380516001836020036101000a031916815260200191505b5094505050505060405180910390a160019150509392505050565b600060606000806007600086815260200190815260200160002060009054906101000a900473ffffffffffffffffffffffffffffffffffffffff169050600073ffffffffffffffffffffffffffffffffffffffff168173ffffffffffffffffffffffffffffffffffffffff1614156137e2576040517f08c379a00000000000000000000000000000000000000000000000000000000081526004018080602001828103825260168152602001807f466f72756d20646f6573206e6f74206578697374732e0000000000000000000081525060200191505060405180910390fd5b6060600660008373ffffffffffffffffffffffffffffffffffffffff1673ffffffffffffffffffffffffffffffffffffffff1681526020019081526020016000206001018054600181600116156101000203166002900480601f0160208091040260200160405190810160405280929190818152602001828054600181600116156101000203166002900480156138ba5780601f1061388f576101008083540402835291602001916138ba565b820191906000526020600020905b81548152906001019060200180831161389d57829003601f168201915b505050505090506000600660008473ffffffffffffffffffffffffffffffffffffffff1673ffffffffffffffffffffffffffffffffffffffff1681526020019081526020016000206002015490508282829550955095505050509193909250565b600080600660008473ffffffffffffffffffffffffffffffffffffffff1673ffffffffffffffffffffffffffffffffffffffff1681526020019081526020016000206002015414156139d5576040517f08c379a00000000000000000000000000000000000000000000000000000000081526004018080602001828103825260148152602001807f466f72756d20646f6573206e6f7420657869737400000000000000000000000081525060200191505060405180910390fd5b60006139e083612820565b90506000811415613a59576040517f08c379a000000000000000000000000000000000000000000000000000000000815260040180806020018281038252601b8152602001807f436173682d6f757420707269636520697320302073636f6e65732e000000000081525060200191505060405180910390fd5b600660008473ffffffffffffffffffffffffffffffffffffffff1673ffffffffffffffffffffffffffffffffffffffff16815260200190815260200160002060060160003373ffffffffffffffffffffffffffffffffffffffff1673ffffffffffffffffffffffffffffffffffffffff16815260200190815260200160002060009054906101000a900460ff161515613b80576040517f08c379a00000000000000000000000000000000000000000000000000000000081526004018080602001828103825260228152602001807f596f7520617265206e6f742061206d656d62657220696e207468697320666f7281526020017f756d00000000000000000000000000000000000000000000000000000000000081525060400191505060405180910390fd5b6000600660008573ffffffffffffffffffffffffffffffffffffffff1673ffffffffffffffffffffffffffffffffffffffff16815260200190815260200160002060050160003373ffffffffffffffffffffffffffffffffffffffff1673ffffffffffffffffffffffffffffffffffffffff1681526020019081526020016000205490506000600660008673ffffffffffffffffffffffffffffffffffffffff1673ffffffffffffffffffffffffffffffffffffffff16815260200190815260200160002060040160008381526020019081526020016000206002015490506000811415613cd6576040517f08c379a000000000000000000000000000000000000000000000000000000000815260040180806020018281038252601b8152602001807f596f75206e656564206b61726d6120746f2063617368206f75742e000000000081525060200191505060405180910390fd5b828102600160008773ffffffffffffffffffffffffffffffffffffffff1673ffffffffffffffffffffffffffffffffffffffff16815260200190815260200160002060008282540392505081905550828102600160003373ffffffffffffffffffffffffffffffffffffffff1673ffffffffffffffffffffffffffffffffffffffff168152602001908152602001600020600082825401925050819055506000600660008773ffffffffffffffffffffffffffffffffffffffff1673ffffffffffffffffffffffffffffffffffffffff1681526020019081526020016000206004016000848152602001908152602001600020600201819055507f99c66bf0ade74aea49d0ce673e7ec0d12f3cfd12c82f046de9fce19b4058c85c83828733604051808581526020018481526020018373ffffffffffffffffffffffffffffffffffffffff1673ffffffffffffffffffffffffffffffffffffffff1681526020018273ffffffffffffffffffffffffffffffffffffffff1673ffffffffffffffffffffffffffffffffffffffff16815260200194505050505060405180910390a160019350505050919050565b6000600260008473ffffffffffffffffffffffffffffffffffffffff1673ffffffffffffffffffffffffffffffffffffffff16815260200190815260200160002060008373ffffffffffffffffffffffffffffffffffffffff1673ffffffffffffffffffffffffffffffffffffffff16815260200190815260200160002054905092915050565b6000606060008073ffffffffffffffffffffffffffffffffffffffff16600660003373ffffffffffffffffffffffffffffffffffffffff1673ffffffffffffffffffffffffffffffffffffffff16815260200190815260200160002060000160009054906101000a900473ffffffffffffffffffffffffffffffffffffffff1673ffffffffffffffffffffffffffffffffffffffff161415614014576040517f08c379a00000000000000000000000000000000000000000000000000000000081526004018080602001828103825260208152602001807f596f75206e65656420746f20637265617465206120666f72756d20666972737481525060200191505060405180910390fd5b600073ffffffffffffffffffffffffffffffffffffffff16600660003373ffffffffffffffffffffffffffffffffffffffff1673ffffffffffffffffffffffffffffffffffffffff168152602001908152602001600020600401600086815260200190815260200160002060000160009054906101000a900473ffffffffffffffffffffffffffffffffffffffff1673ffffffffffffffffffffffffffffffffffffffff16141561412d576040517f08c379a000000000000000000000000000000000000000000000000000000000815260040180806020018281038252601a8152602001807f54686973207573657220646f6573206e6f74206578697374732e00000000000081525060200191505060405180910390fd5b6000600660003373ffffffffffffffffffffffffffffffffffffffff1673ffffffffffffffffffffffffffffffffffffffff168152602001908152602001600020600401600086815260200190815260200160002060000160009054906101000a900473ffffffffffffffffffffffffffffffffffffffff1690506060600660003373ffffffffffffffffffffffffffffffffffffffff1673ffffffffffffffffffffffffffffffffffffffff16815260200190815260200160002060040160008781526020019081526020016000206001018054600181600116156101000203166002900480601f0160208091040260200160405190810160405280929190818152602001828054600181600116156101000203166002900480156142945780601f1061426957610100808354040283529160200191614294565b820191906000526020600020905b81548152906001019060200180831161427757829003601f168201915b505050505090506000600660003373ffffffffffffffffffffffffffffffffffffffff1673ffffffffffffffffffffffffffffffffffffffff16815260200190815260200160002060040160008881526020019081526020016000206002015490508282829550955095505050509193909250565b828054600181600116156101000203166002900490600052602060002090601f016020900481019282601f1061434a57805160ff1916838001178555614378565b82800160010185558215614378579182015b8281111561437757825182559160200191906001019061435c565b5b5090506143859190614389565b5090565b6143ab91905b808211156143a757600081600090555060010161438f565b5090565b9056fea165627a7a72305820511e95aed6f4d1049eed21402105cc468f1b68dd62e23b37e1b9927a254f079c0029",
  "source": "/*\nImplements EIP20 token standard: https://github.com/ethereum/EIPs/blob/master/EIPS/eip-20.md\n.*/\n\n\npragma solidity ^0.5.0;\n\nimport \"./EIP20Interface.sol\";\n\n\ncontract Forum is EIP20Interface {\n    // The coin\n    uint256 constant private MAX_UINT256 = 2**256 - 1;\n    mapping (address => uint256) public balances;\n    mapping (address => mapping (address => uint256)) public allowed;\n\n    string public name;\n    uint8 public decimals;\n    string public symbol;\n\n    // Forum\n    mapping (address => forumData) private forums;    // An address can hold a forum\n    mapping (uint => address) private fidOwner;       // A forumID (fid) is mapped to an owner of a forum with this fid.\n    uint256 private forumId;                          // Increments when a new forum is created\n    mapping (address => uint256) addressForumId;\n\n    struct forumData{\n      address owner;\n      string forumName;\n      uint256 fid;\n      uint256 userCount;\n      mapping(uint256 => userData) users;\n      mapping(address => uint256) userKey; //Equal to next userCount.\n      mapping(address => bool) userExists;\n    }\n\n    struct userData{\n      address userAddress;\n      string userName;\n      uint256 karma;\n      }\n\n    constructor (\n        uint256 _initialAmount,\n        string memory _tokenName,\n        uint8 _decimalUnits,\n        string memory _tokenSymbol\n    ) public {\n        balances[msg.sender] = _initialAmount;\n        totalSupply = _initialAmount;\n        name = _tokenName;\n        decimals = _decimalUnits;\n        symbol = _tokenSymbol;\n        forumId = 1;\n    }\n\n    // Coin functions...\n    function transfer(address _to, uint256 _value) public returns (bool success) {\n        require(balances[msg.sender] >= _value);\n        balances[msg.sender] -= _value;\n        balances[_to] += _value;\n        emit Transfer(msg.sender, _to, _value); //solhint-disable-line indent, no-unused-vars\n        return true;\n    }\n\n    function transferFrom(address _from, address _to, uint256 _value) public returns (bool success) {\n        uint256 allowance = allowed[_from][msg.sender];\n        require(balances[_from] >= _value && allowance >= _value);\n        balances[_to] += _value;\n        balances[_from] -= _value;\n        if (allowance < MAX_UINT256) {\n            allowed[_from][msg.sender] -= _value;\n        }\n        emit Transfer(_from, _to, _value); //solhint-disable-line indent, no-unused-vars\n        return true;\n    }\n\n    function balanceOf(address _owner) public view returns (uint256 balance) {\n        return balances[_owner];\n    }\n\n    function approve(address _spender, uint256 _value) public returns (bool success) {\n        allowed[msg.sender][_spender] = _value;\n        emit Approval(msg.sender, _spender, _value); //solhint-disable-line indent, no-unused-vars\n        return true;\n    }\n\n    function allowance(address _owner, address _spender) public view returns (uint256 remaining) {\n        return allowed[_owner][_spender];\n    }\n    // .. end of coin functions\n\n\n\n\n\n\n    // Forum functions...\n\n    function createForum(string memory _fname) public returns (bool success){\n      uint256 a = forums[msg.sender].fid;\n      uint256 b = addressForumId[msg.sender];\n      if((a != 0) && (a == b)){\n        revert(\"You already own a forum.\");\n      }\n      forums[msg.sender] = forumData(msg.sender, _fname, forumId, 0);\n      forums[msg.sender].users[0] = userData(msg.sender, _fname, 0);\n      forums[msg.sender].userExists[msg.sender] = true;\n      forums[msg.sender].userKey[msg.sender] = 0;\n      forums[msg.sender].userCount ++;\n      addressForumId[msg.sender] = forumId;\n      fidOwner[forumId] = msg.sender;\n      forumId = forumId + 1;\n      emit CreateForum(true, msg.sender, _fname, forums[msg.sender].fid);\n      return (true);\n    }\n\n    function getForumCount() public view returns (uint256 id){\n      return (forumId-1);\n    }\n\n    function getForumDataByFid(uint256 _fid) public view returns (address forumOwner, string memory forumName, uint256 fid){\n      address owner = fidOwner[_fid];\n      if(owner == address(0x0))\n        revert(\"Forum does not exists.\");\n      string memory fName = forums[owner].forumName;\n      uint256 id = forums[owner].fid;\n      return(owner, fName, id);\n    }\n\n    function getForumData(address _owner) public view returns (address forumOwner, string memory forumName, uint256 fid){\n      if(addressForumId[msg.sender] == 0){\n        revert(\"Forum does not exists.\");\n      }\n      string memory fName = forums[_owner].forumName;\n      uint256 id = forums[_owner].fid;\n      return(_owner, fName, id);\n    }\n\n    function addUserToForum(address _userAddress, string memory _userName, uint256 _karma) public returns (bool success){\n      if(forums[msg.sender].owner != msg.sender){\n        revert(\"You need to create a forum first.\");\n      }\n      if(forums[msg.sender].userExists[_userAddress] == true){\n        revert(\"User already exists.\");\n      }\n        forums[msg.sender].userCount++;\n        uint256 newUserCount = forums[msg.sender].userCount;\n        forums[msg.sender].users[newUserCount] = userData(_userAddress, _userName, _karma);\n        forums[msg.sender].userExists[_userAddress] = true;\n        forums[msg.sender].userKey[_userAddress] = newUserCount;\n        emit AddUserToForum(_userAddress, _userName, _karma);\n        return (true);\n    }\n\n    function setKarma(uint256 _karma, address _userAddress) public returns (bool succ){\n      if(forums[msg.sender].owner == address(0x0)){\n        return false;\n      }\n      if(!forums[msg.sender].userExists[_userAddress]){\n        return false;\n      }\n      uint256 ukey = forums[msg.sender].userKey[_userAddress];\n      forums[msg.sender].users[ukey].karma = _karma;\n      return true;\n    }\n\n    function getUserByAddress(address _userAddress) public view returns (address usrAddress, string memory usrName, uint256 usrKarma) {\n        if(forums[msg.sender].owner == address(0x0)){\n          revert(\"You need to create a forum first.\");\n        }\n        if(!forums[msg.sender].userExists[_userAddress]){\n          revert(\"This user does not exists.\");\n        }\n        uint256 uKey = forums[msg.sender].userKey[_userAddress];\n        address uaddress = forums[msg.sender].users[uKey].userAddress;\n        string memory uname = forums[msg.sender].users[uKey].userName;\n        uint256 ukarma = forums[msg.sender].users[uKey].karma;\n        return (uaddress, uname, ukarma);\n    }\n\n    function getUserByIndex(uint256 _ucount) public view returns (address usrAddress, string memory usrName, uint256 usrKarma){\n      if(forums[msg.sender].owner == address(0x0)){\n        revert(\"You need to create a forum first\");\n      }\n\n      if(forums[msg.sender].users[_ucount].userAddress == address(0x0)){\n        revert(\"This user does not exists.\");\n      }\n      address uaddress = forums[msg.sender].users[_ucount].userAddress;\n      string memory uname = forums[msg.sender].users[_ucount].userName;\n      uint256 ukarma = forums[msg.sender].users[_ucount].karma;\n      return (uaddress, uname, ukarma);\n      }\n\n    function getUserCount() public view returns (uint256 _ucount){\n      return forums[msg.sender].userCount;\n    }\n\n    function getMyInfo(address _admin) public view returns (uint256 _fID, address _forumAddress, address _myAddress, string memory _userName, uint256 _karma) {\n      bool exists = forums[_admin].userExists[msg.sender];\n      if(!exists)\n        revert(\"You are not a member in this forum.\");\n      uint256 key = forums[_admin].userKey[msg.sender];\n      string memory uname = forums[_admin].users[key].userName;\n      uint256 karma = forums[_admin].users[key].karma;\n      uint256 fid = forums[_admin].fid;\n      return (fid, _admin, msg.sender, uname, karma);\n    }\n\n    function getMyInfoByFid(uint256 _fid) public view returns (uint256 _fID, address _forumAddress, address _myAddress, string memory _userName, uint256 _karma, uint256 _cashOutPrice, string memory _forumName) {\n      address admin = fidOwner[_fid];\n      bool exists = forums[admin].userExists[msg.sender];\n      if(!exists)\n        revert(\"You are not a member in this forum.\");\n      uint256 key = forums[admin].userKey[msg.sender];\n      string memory uname = forums[admin].users[key].userName;\n      uint256 karma = forums[admin].users[key].karma;\n      uint256 fid = forums[admin].fid;\n      uint256 cashOutPrice = getCashOutPrice(admin);\n      string memory fname = forums[admin].forumName;\n      return (fid, admin, msg.sender, uname, karma, cashOutPrice, fname);\n    }\n\n    function getMemberStatus(uint256 _fid) public view returns (uint256 _fID, bool success){\n      address admin = fidOwner[_fid];\n      return (_fid, forums[admin].userExists[msg.sender]);\n    }\n\n    function accForumKarma(address _forum) public view returns (uint256) {\n      uint256 numUsers = forums[_forum].userCount +1;\n      uint256 accKarma = 0;\n      for(uint256 i = 0; i<numUsers; i++){\n        accKarma += forums[_forum].users[i].karma;\n      }\n      return accKarma;\n    }\n\n    function getCashOutPrice(address _forum) public view returns (uint256 _res){\n      uint256 totKarma = accForumKarma(_forum);\n      uint256 bal = balanceOf(_forum);\n      if(totKarma == 0 || bal == 0) return 0;\n      uint256 rest = bal % totKarma;\n      uint256 res = (bal-rest)/totKarma;\n      return res;\n    }\n\n    function cashOut(address _forum) public returns (bool _succ){\n      if (forums[_forum].fid == 0)\n        revert(\"Forum does not exist\");\n      uint256 val = getCashOutPrice(_forum);\n      if (val == 0)\n        revert(\"Cash-out price is 0 scones.\");\n      if(!forums[_forum].userExists[msg.sender])\n        revert(\"You are not a member in this forum\");\n      uint256 myKey = forums[_forum].userKey[msg.sender];\n      uint256 myKarma = forums[_forum].users[myKey].karma;\n      if(myKarma == 0)\n        revert(\"You need karma to cash out.\");\n\n      balances[_forum] -= myKarma*val;\n      balances[msg.sender] += myKarma*val;\n      forums[_forum].users[myKey].karma = 0;\n      emit CashOut(val,myKarma, _forum, msg.sender);\n      return true;\n    }\n\n    event CashOut(uint256 _cop, uint256 _karma, address _from, address _to);\n    event AddUserToForum(address _userAddress, string _userName, uint256 _karma);\n    event CreateForum(bool _success, address _forumAddress, string _forumName, uint256 _fid);\n}\n",
  "sourcePath": "/home/uhrej/Git/Exjobb/SaviourCoin/MainApplicationWithDB/contracts/Forum.sol",
  "compiler": {
    "name": "solc",
    "version": "0.5.0+commit.1d4f565a.Emscripten.clang"
  },
  "schemaVersion": "3.0.1",
  "updatedAt": "2020-05-19T17:18:57.621Z",
  "devdoc": {
    "methods": {}
  },
  "userdoc": {
    "methods": {}
  }
}